:1070000055C000006EC000006CC000006AC00000E7
:1070100068C0000066C0000064C0000062C00000DC
:1070200060C000005EC00000E7C400005AC000005D
:1070300058C0000056C0000054C0000052C00000FC
:1070400050C00000DCC000004CC000004AC000007E
:1070500048C0000046C0000044C0000042C000001C
:1070600040C000003EC000003CC000003AC000002C
:1070700038C0000036C0000034C0000032C000003C
:1070800030C000002EC000002CC000002AC000004C
:1070900028C0000026C0000024C0000022C000005C
:1070A00020C000001EC000001CC0000011241FBE34
:1070B000CFEFDAE0DEBFCDBF11E0A0E0B1E0E2E16A
:1070C000FFE702C005900D92A03BB107D9F711E090
:1070D000A0EBB1E001C01D92A63CB107E1F785D35A
:1070E00016C78ECF84E08093E9000DC08091E80040
:1070F0008B778093E80003C08EB3882359F080918A
:10710000E80082FFF9CF8091E80085FFEFCF809102
:10711000F100089580E0089593E09093E900909144
:10712000E80095FD0DC09091E8009E779093E800EF
:1071300003C09EB3992369F09091E80090FFF9CFC6
:107140008093F1005D9884E690E09093B101809384
:10715000B0010895F89410926F001092810010927F
:1071600085001092840081E085BF15BE47985D9A26
:10717000289A0C94000008958091BA019091BB0167
:1071800001969093BB018093BA01292F97FF03C00A
:107190003EEF391B232F220F281710F4479808952C
:1071A000479A089584B7877F84BF88E10FB6F89423
:1071B00080936000109260000FBE90E880E00FB6F0
:1071C000F89490936100809361000FBE81E085BFC9
:1071D00082E085BF3F9A209A559AE1E6F0E09083DD
:1071E000108247985D9A289A109289009AEF90939E
:1071F000880080936F0083E080938100E5C31F9235
:107200000F920FB60F9211242F938F939F93EF93AA
:10721000FF9310928500109284008091B0019091AC
:10722000B101009741F001979093B1018093B001B3
:10723000009709F45D9A8091B2019091B301009793
:1072400041F001979093B3018093B201009709F444
:10725000289AE0E0F0E0859194912FEF8F3F92071C
:1072600049F08091B4019091B50101969093B501D8
:107270008093B401FF91EF919F918F912F910F9087
:107280000FBE0F901F90189582E061EC42E02FD363
:1072900083E061E842E12BD384E060E842E127C368
:1072A0008091BE01982F9F77913249F59091BF014F
:1072B0009032A1F0913219F5813A09F58091E800F8
:1072C000877F8093E8008DE091E067E070E045D42F
:1072D0008091E8008B778093E8000895813279F4FB
:1072E0008091E800877F8093E8008DE091E067E07F
:1072F00070E094D48091E8008E778093E800089540
:107300004F925F926F927F928F929F92AF92BF92B5
:10731000CF92DF92EF92FF920F931F93CF93DF9361
:1073200084E08093E9008091E80082FF4DC22898B4
:1073300084E690E09093B3018093B201D3DE182FDE
:10734000853481F484E699E19093B5018093B4018A
:1073500007B600FCFDCFF999FECF81E1809357007D
:10736000E89503C0843519F4BDDE8DE003C28C348A
:10737000E1F38035D1F3843721F484E4CDDE80E07D
:10738000F9C1813611F489E5F5C1813401F5AADE30
:10739000C82FA8DE282F30E0220F331F442737FDE7
:1073A0004095542F7C2F770F60E0CB01AA2797FDE3
:1073B000A095BA2F282B392B4A2B5B2B2093B60193
:1073C0003093B7014093B8015093B901CECF8037C5
:1073D00011F483E5CFC1833549F4C0E0D1E0899150
:1073E0009BDE41E0C730D407D1F7C5C1863521F413
:1073F00081E392DE80E3BEC1833731F487E88CDE1F
:1074000085E98ADE8EE1B6C18536F9F480E090E048
:10741000DC0133E025E0FC0130935700E89507B626
:1074200000FCFDCF20935700E89507B600FCFDCF88
:1074300080589F4FAF4FBF4F8030E0E79E07E0E09E
:10744000AE07E0E0BE0739F790CF823739F4E1E0CC
:10745000F0E089E08093570084918CC1863439F440
:10746000E0E0F0E089E080935700849183C18E349E
:1074700039F4E3E0F0E089E08093570084917AC129
:10748000813539F4E2E0F0E089E08093570084919F
:1074900071C1823631F489E53FDE80E03DDE80E86F
:1074A00069C1823419F0873609F0DAC01092B5014B
:1074B0001092B40117DEE82E15DEC82F13DED82E89
:1074C0008554823008F055C13E2D20E0D0E0C22B1B
:1074D000D32B10926F00173609F044C081E18093DE
:1074E0005700E895CC24BB24B39438C0E090B60193
:1074F000F090B7010091B8011091B901FD2DF6345B
:10750000B9F4EC2DF0E0EE29FF29849105DECC20C2
:1075100069F0D801C7010296A11DB11D8093B60183
:107520009093B701A093B801B093B901CB2415C0D3
:10753000D801C701B695A79597958795D2D4ECDD6C
:10754000D801C7010296A11DB11D8093B601909389
:10755000B701A093B801B093B9012197209709F022
:10756000C5CF7AC04090B6015090B7016090B80185
:107570007090B9014D2D463409F05AC083E0F201F4
:1075800080935700E89507B600FCFDCF51C0FD2D54
:10759000F63449F5CC2019F1E090B601F090B7012E
:1075A0000091B8011091B9019DDD982E88242B2DF2
:1075B00030E028293929F7010901A0925700E89500
:1075C0001124D801C7010296A11DB11D8093B601F7
:1075D0009093B701A093B801B093B90102C082DDC6
:1075E000B82ECA2423C0E090B601F090B7010091F4
:1075F000B8011091B90116950795F794E79472DDDB
:10760000682FC70176D48091B6019091B701A091FF
:10761000B801B091B9010296A11DB11D8093B601C8
:107620009093B701A093B801B093B901219704C01A
:10763000BB24CC24AA24A394209709F0A8CFFD2D25
:10764000F63441F485E0F20180935700E89507B6DF
:1076500000FCFDCF8DE060DD82E080936F008BC089
:10766000833471F4C091B601D091B7013BDD90E055
:1076700021E0FE010C0120935700E895112475CEFE
:107680008336A9F4E090B601F090B7010091B801FB
:107690001091B90127DDF701E16090E021E00C01D4
:1076A00020935700E8951124D801C70134C08D36C6
:1076B00061F4E091B601F091B70185E08093570045
:1076C000E89507B600FCFDCF50CE823551F4E0912D
:1076D000B601F091B701C591D4918D2F1DDD8C2F8E
:1076E00049C0843421F5E090B601F090B7010091D3
:1076F000B8011091B90116950795F794E794F2DC5B
:10770000682FC701F6D38091B6019091B701A0917F
:10771000B801B091B9010296A11DB11D8093B601C7
:107720009093B701A093B801B093B9011ECE8436EF
:10773000F1F4E090B601F090B7010091B80110911A
:10774000B901D801C701B695A79597958795C9D373
:10775000E3DCD801C7010296A11DB11D8093B601DB
:107760009093B701A093B801B093B90104C08B31D5
:1077700011F08FE3D1DC83E08093E9009091E80081
:107780008091E8008E778093E80095FF04C010C0D8
:107790008EB38823C9F08091E80080FFF9CF8091F3
:1077A000E8008E778093E80003C08EB3882361F0F1
:1077B0008091E80080FFF9CF84E08093E900809118
:1077C000E8008B778093E800DF91CF911F910F91B4
:1077D000FF90EF90DF90CF90BF90AF909F908F90F1
:1077E0007F906F905F904F900895209100083091A6
:1077F0000108109201081092000884B714BE98E1A5
:107800000FB6F89490936000109260000FBE90E065
:10781000FC01E270F07081FD1AC080FF06C0459146
:1078200054916FEF4F3F560789F483FF10C080914A
:10783000090190910A012817390749F0E0E0F0E0CA
:10784000859194912FEF8F3F920709F083DCAADC9A
:1078500078941092B5011092B4010DC051DD2FD370
:107860008091B4019091B5016BE18935960710F0D4
:107870001092140181DC80911401882379F78091A2
:10788000E00081608093E00065DC80E090E0089596
:10789000923029F0933041F0913061F410C02EE322
:1078A00030E087E291E01EC0882371F0813089F0DA
:1078B0008230A1F020E030E080E090E013C022E1CF
:1078C00030E085E191E00EC024E030E085E691E013
:1078D00009C028E130E089E691E004C02AE230E006
:1078E00083E891E0FA0191838083C9010895809330
:1078F000E900EBEEF0E0808181608083EDEEF0E066
:1079000010826093EC0040838091EE00881F8827EE
:10791000881F08958091BE0187FF11C003C08EB3F8
:107920008823B1F08091E80082FFF9CF8091E800D0
:107930008B778093E80008958EB3882349F0809177
:10794000E80080FFF9CF8091E8008E778093E8000F
:1079500008950F931F93CF93DF9341D048D0C8ED84
:10796000D0E088818F778883888180688883888148
:107970008F7D888319BC1EBA1092BC0100EE10E006
:10798000F80180818B7F808388818160888380E09B
:1079900060E042E0ACDFE1EEF0E080818E7F80834A
:1079A000E2EEF0E080818160808380818860808366
:1079B000F80180818E7F8083888180618883DF9158
:1079C000CF911F910F910895E7EDF0E080818160E4
:1079D00080838AE482BF81E08093BD01BACFE8ED65
:1079E000F0E080818E7F80831092E20008951092F3
:1079F000DA001092E10008951F920F920FB60F92D5
:107A000011242F933F934F935F936F937F938F93A3
:107A10009F93AF93BF93EF93FF938091DA0080FF22
:107A20001BC08091D80080FF17C08091DA008E7F44
:107A30008093DA008091D90080FF0BC080E189BD7E
:107A400082E189BD09B400FEFDCF81E08EBB36D254
:107A500003C019BC1EBA32D28091E10080FF17C06A
:107A60008091E20080FF13C08091E2008E7F8093BE
:107A7000E2008091E20080618093E2008091D80072
:107A800080628093D80019BC85E08EBB17D28091AC
:107A9000E10084FF2CC08091E20084FF28C080E1D7
:107AA00089BD82E189BD09B400FEFDCF8091D80077
:107AB0008F7D8093D8008091E1008F7E8093E100DC
:107AC0008091E2008F7E8093E2008091E2008160ED
:107AD0008093E2008091BC01882321F48091E3002F
:107AE00087FF02C084E001C081E08EBBE7D18091B6
:107AF000E10083FF21C08091E20083FF1DC08091DF
:107B0000E100877F8093E10082E08EBB1092BC0190
:107B10008091E1008E7F8093E1008091E2008E7F72
:107B20008093E2008091E20080618093E20080E037
:107B300060E042E0DCDEC2D1FF91EF91BF91AF91F6
:107B40009F918F917F916F915F914F913F912F9175
:107B50000F900FBE0F901F901895482F592FFA01C4
:107B60008091C4019091C5018617970718F4BC0154
:107B700040E03BC061157105D9F78091E8008E7730
:107B80008093E800F5CF8EB3882309F443C0853095
:107B9000E9F18091E80083FD3BC08091E80082FD1F
:107BA0002FC08091E80080FF20C09091F300809169
:107BB000F200392F20E090E0822B932B06C04191F8
:107BC0004093F1006150704001966115710519F004
:107BD00088309105A0F341E08830910509F040E03C
:107BE0008091E8008E778093E8006115710559F661
:107BF000442349F605C08EB3882361F0853061F0D7
:107C00008091E80082FFF7CF80E0089583E0089537
:107C100081E0089582E0089583E00895611571057B
:107C200051F524C04EB34423C9F1453099F1409138
:107C3000E80043FD31C04091E80042FFF3CFE82F58
:107C4000F92F07C08091F1008193CF0161507040FE
:107C500069F0CF015091F3004091F200352F20E000
:107C600050E0422B532B4115510561F74091E8003C
:107C70004B774093E80061157105A1F605C08EB3FE
:107C8000882361F0853061F08091E80080FFF7CFB4
:107C900080E0089583E0089581E0089582E00895EA
:107CA00083E008950F931F93DF93CF9300D0CDB758
:107CB000DEB7EEEBF1E08091F100819381E0E63CEC
:107CC000F807C9F7EDDA8091E80083FFE2C0809100
:107CD000BE019091BF01953009F46BC0963040F41D
:107CE000913061F1913070F0933009F0D2C026C02C
:107CF000983009F4A1C0993009F4B0C0963009F069
:107D0000C8C07AC0803809F4C4C0823809F0C1C044
:107D10008091C20187708093E9009091EB001092EE
:107D2000E9008091E800877F8093E80081E095FF7B
:107D300080E08093F1001092F10089C0882319F04F
:107D4000823009F0A6C08F71823009F0A2C0809104
:107D5000C001882341F52091C201277009F499C020
:107D60002093E9008091EB0080FF1DC08091BF014E
:107D7000833021F48091EB00806213C08091EB008E
:107D800080618093EB0081E090E002C0880F991F32
:107D90002A95E2F78093EA001092EA008091EB00C6
:107DA00088608093EB001092E9008091E800877F63
:107DB00051C0882309F06DC01091C0011F770FB723
:107DC000F8948091E800877F8093E800A3DD80919C
:107DD000E80080FFFCCF8091E3008078812B8093C6
:107DE000E30080688093E300112311F083E001C079
:107DF00082E08EBB0FBF4DC08058823008F049C072
:107E00008091C0019091C1016091C201AE014F5FAC
:107E10005F4F3EDDBC01009709F43BC08091E80054
:107E2000877F8093E80089819A8197DE8091E800BE
:107E30008B778093E8002DC0803859F58091E80059
:107E4000877F8093E8008091BC018093F10080914E
:107E5000E8008E778093E8005DDD1BC08823C9F4BD
:107E60009091C0019230A8F48091E800877F8093C0
:107E7000E8009093BC014EDD8091BC01882321F481
:107E80008091E30087FF02C084E001C081E08EBBE7
:107E9000FBD98091E80083FF0AC08091EB008062EB
:107EA0008093EB008091E800877F8093E8000F903B
:107EB0000F90CF91DF911F910F9108950895CF9367
:107EC0008EB3882361F0C091E900C7701092E90079
:107ED0008091E80083FF01C0E5DEC093E900CF9107
:107EE0000895F999FECF92BD81BDF89A992780B582
:107EF0000895262FF999FECF1FBA92BD81BD20BDEE
:107F00000FB6F894FA9AF99A0FBE01960895F8946C
:027F1000FFCFA1
:107F12004341544552494E41007777000800000022
:107F2200000000080112011001020000084F1B743A
:107F32002B01000201000109023E00020100803211
:107F420009040000010202010005240010010424BA
:107F520002040524060001070582030800FF090444
:107F62000100020A000000070504021000010705D3
:107F720083021000010403090418034D0061004B41
:107F8200006500790020004D0061004B006500791A
:107F92000000002A0353007000610072006B00466B
:107FA2000075006E00200045006C006500630074DF
:107FB2000072006F006E0069006300730000000031
:040000030000700089
:100000000C946E010C9496010C9496010C9496013C
:100010000C9496010C9496010C9496010C94960104
:100020000C9496010C9496010C94DB0D0C94660EC6
:100030000C9496010C9496010C9496010C949601E4
:100040000C9496010C9496010C9496010C949601D4
:100050000C9496010C9496010C9496010C94330820
:100060000C9496010C9496010C9496010C949601B4
:100070000C9496010C9496010C9496010C949601A4
:100080000C9496010C9496010C9496010C94960194
:100090000C9496010C9496010C9496010C94960184
:1000A0000C9496010C9496010C94960100000000AB
:1000B000240027002A002D00300000000000250049
:1000C00028002B002E003100000000002300260035
:1000D00029002C002F000404040404030405020278
:1000E00002020403020202020606060606060404D1
:1000F00002020204040802011040804010204080E7
:10010000408008020401804020100201108010206D
:1001100040400000000200080E0000030401000B34
:100120000000070605040100080A0B0C0D09050173
:100130000902A1010901A10085010509190129038D
:10014000150025019503750181029501750581034F
:1001500005010930093109381581257F7508950396
:100160008106C0C005010906A1018502050719E045
:1001700029E715002501750195088102950175088B
:100180008103950675081500256505071900296581
:100190008100C009040200010300000009210101DF
:1001A00000012265000705840340000100000000F3
:1001B000000000002A2B28000000000000000000C2
:1001C0000000000000000000000000002C9EB4A011
:1001D000A1A2A434A6A7A5AE362D3738271E1F200E
:1001E000212223242526B333B62EB7B89F848586D3
:1001F0008788898A8B8C8D8E8F9091929394959617
:100200009798999A9B9C9D2F3130A3AD3504050694
:100210000708090A0B0C0D0E0F10111213141516F6
:100220001718191A1B1C1DAFB1B0B500040309043F
:100230002203410072006400750069006E006F00C7
:1002400020004C0065006F006E00610072006400C9
:100250006F001803410072006400750069006E00B1
:100260006F0020004C004C0043001201000200000F
:10027000004041233680000101020001120100020A
:10028000020000404123368000010102000100C14C
:100290008081C1080B000202020100090400000174
:1002A00002020000052400100105240101010424BC
:1002B0000206052406000107058103100040090419
:1002C0000100020A000000070502024000000705C5
:1002D000830240000000A00A170DF90F11241FBE71
:1002E000CFEFDAE0DEBFCDBF11E0A0E0B1E0E0EF9C
:1002F000F1E202C005900D92A23EB107D9F713E0DA
:10030000A2EEB1E001C01D92A93BB107E1F712E0F6
:10031000CCEDD2E004C02297FE010E94F210C63D4F
:10032000D107C9F70E94E00B0C94F6100C94000062
:100330008EE090E09093EB028093EA028CE090E0F4
:100340009093ED028093EC02A4EEB1E020E030E067
:1003500091E0F901ED56FE4F80818C93F901E1594E
:10036000FE4F0190F081E02D1296FC93EE931197D1
:1003700013961C92139714961C92149715961C9220
:10038000159716961C92169717961C921797189603
:100390001C92189719961C9219971A961C921A97E4
:1003A0001B961C921B971C961C921C97F7FF04C06F
:1003B0001A969C931A970AC03197329720F41B968D
:1003C0009C931B9703C01C969C931C972E5F3F4FDA
:1003D0001D962432310509F0BCCF089521E030E0AC
:1003E0000090E70202C0220F331F0A94E2F78091C7
:1003F000E602A82FB0E0A951BE4FEAEEF1E08C91E1
:1004000090E082239323892B19F081818F5F818370
:100410008081882319F08181815081831D963D96CA
:1004200082E0E43DF80759F7089582E190E0909367
:1004300019038093180383E190E090931B0380934A
:100440001A0384E190E090931D0380931C0385E1DF
:1004500090E090931F0380931E0386E190E09093B9
:1004600021038093200387E190E0909323038093FE
:10047000220310923D0310923C0381E090E09093A0
:100480003F0380933E0382E090E09093410380938A
:10049000400383E090E0909343038093420384E021
:1004A00090E0909345038093440385E090E090931F
:1004B00047038093460388E090E090933103809354
:1004C00030038CE090E090932903809328038FE021
:1004D00090E090933303809332038DE090E090930B
:1004E00037038093360386E090E090932703809350
:1004F000260387E090E090932503809324030895DA
:10050000CF93DF93C0E0D0E08EE061E00E94010A6B
:100510005D9880E161E00E94010A289868EC70E033
:1005200080E090E00E94A1088EE060E00E94010A55
:100530005D9A80E160E00E94010A289A68EC70E010
:1005400080E090E00E94A1082196C330D105E1F639
:10055000DF91CF9108951F93ECEEF1E090E010E071
:100560008081882331F08481882311F411E001C057
:1005700091E03D9682E0E63DF80791F7992331F04E
:100580008EE061E00E94010A5D9805C08EE060E0A7
:100590000E94010A5D9A112331F080E161E00E941E
:1005A000010A289805C080E160E00E94010A289AAB
:1005B0001F9108951F93182F60E00E946409812FF6
:1005C00060E00E94010A1F9108951F93182F61E0B7
:1005D0000E946409812F60E00E94010A1F91089522
:1005E0008AE08093CE0299E09093D0022BE0209392
:1005F000CF029093D1022093D3028093D2028093B2
:10060000D4022093D6029093D5022093D7029093E0
:10061000D9028093D8022093DA028093DC0290936F
:10062000DB029093DD028093DF022093DE021092C2
:10063000E0021092E1021092E2021092E3021092A4
:10064000E4021092E50289E00E94DA028AE00E9448
:10065000DA028BE00E94DA028EE00E94E50280E17D
:100660000E94E50208951F93182F61E00E9464091B
:10067000812F61E00E94010A1F910895FF920F935C
:100680001F93DF93CF9300D00F92CDB7DEB769836E
:100690007A838B83142FF72E062F0E94DA02112300
:1006A00039F08F2D0E94E502802F0E94330303C092
:1006B000802F0E94E5020F900F900F90CF91DF9155
:1006C0001F910F91FF900895CF93DF93C0E0D0E08A
:1006D0006091DA027091DB028091DC0241E00E94BD
:1006E0003E0368EC70E080E090E00E94A108609119
:1006F000DD027091DE028091DF0241E00E943E0344
:1007000068EC70E080E090E00E94A1082196C4317E
:10071000D105F1F689E00E94DA028AE00E94DA024D
:100720008BE00E94DA02DF91CF910895CF93DF939F
:1007300089E00E94DA028AE00E94DA028BE00E94DD
:10074000DA02C0E0D0E06091CE027091CF028091D9
:10075000D00241E00E943E0362E370E080E090E05E
:100760000E94A1086091D7027091D8028091D902AD
:1007700041E00E943E0362E370E080E090E00E946E
:10078000A1086091D1027091D2028091D30241E020
:100790000E943E0362E370E080E090E00E94A108C6
:1007A0006091D4027091D5028091D60241E00E94FE
:1007B0003E0362E370E080E090E00E94A108219691
:1007C000C430D10509F0BFCFC0E0D0E06091DA02BB
:1007D0007091DB028091DC0241E00E943E0364E6FE
:1007E00070E080E090E00E94A1086091DD027091CD
:1007F000DE028091DF0241E00E943E0364E670E089
:1008000080E090E00E94A1082196C430D105F1F665
:1008100089E00E94DA028AE00E94DA028BE00E94FC
:10082000DA02DF91CF91089589E00E94DA028AE02E
:100830000E94DA028BE00E94DA02809113038F5F3C
:1008400066E00E94BD1090931303992369F4809190
:10085000EC01882349F06091CE027091CF02809123
:10086000D00241E00E943E0380911303813069F47D
:100870008091F901882349F06091D1027091D202F0
:100880008091D30241E00E943E03809113038230A5
:1008900069F480910602882349F06091D402709136
:1008A000D5028091D60241E00E943E03809113035D
:1008B000833069F480911302882349F06091D70254
:1008C0007091D8028091D90241E00E943E0380914C
:1008D0001303843069F480912002882349F06091E9
:1008E000DA027091DB028091DC0241E00E943E035B
:1008F00080911303853069F480912D02882349F09B
:100900006091DD027091DE028091DF0241E00E9481
:100910003E030895BF92CF92DF92EF92FF920F9322
:100920001F93CF93DF937C018B01B62E862F0E94FD
:10093000DA02CE2C8E2D0E94DA02802F60E00E9417
:100940006409802F60E00E94010A62E070E080E0AC
:1009500090E00E94A108802F0E94340A20E00197B5
:1009600009F421E0DD24D394D2228C2D0E94E502EB
:1009700062E070E080E090E00E94A108C3E9D1E06D
:10098000888199818E159F0551F08017910739F064
:100990000E94340A20E0019709F421E0D222229635
:1009A00081E0C73BD80761F78B2D0E94340A20E015
:1009B000892B09F421E0D2228B2D0E94DA028C2DA2
:1009C0000E94DA0262E070E080E090E00E94A108FC
:1009D0008D2DDF91CF911F910F91FF90EF90DF90C0
:1009E000CF90BF9008950F931F93CF93DF93C3E9E8
:1009F000D1E001E028813981C90106970397D8F039
:100A00002C303105C1F02D303105A9F02F303105E2
:100A100091F0F901EE0FFF1FE85EFC4F60817181DC
:100A2000C9010E948A04182F69E170E080E090E01B
:100A30000E94A1080123229681E0C73BD807D1F686
:100A4000802FDF91CF911F910F910895AF92BF92A8
:100A5000CF92DF92FF920F931F93CF93DF9304EE19
:100A600011E0C0E0D0E08DE0A82EB12CB1E0CB2E9B
:100A7000D12C8091E602CA9DF001CB9DF00DDA9D4C
:100A8000F00D1124EC51FE4FE80FF11DF3808F2D76
:100A900090E00090E70202C0959587950A94E2F7EE
:100AA0008170F801868380810E94340A9091E70268
:100AB000882351F4960102C0220F331F9A95E2F762
:100AC000C9019F2D982B09C0F60102C0EE0FFF1F30
:100AD0009A95E2F79E2F90959F218091E602CA9DFC
:100AE000F001CB9DF00DDA9DF00D1124EC51FE4F7D
:100AF000E80FF11D93832196035F1F4FC231D1058B
:100B000009F0B7CFDF91CF911F910F91FF90DF9048
:100B1000CF90BF90AF9008950E947B08209116035C
:100B200030911703621B730B7093150360931403CA
:100B300082E0683E780734F488EE92E0861B970BDB
:100B40000E94FA080E947B087093170360931603B3
:100B50000895FF920F931F93CF93DF938091E80244
:100B60009091E902019663E270E00E94C9109093AF
:100B7000E9028093E802009709F0ADC0EFEEF2E0E1
:100B8000C5EED1E040E010E0FF2400E08985882335
:100B900009F465C08F81882309F461C028813981F7
:100BA0005FEF2F3F3507A1F4808191815FEF8B3696
:100BB000950714F401E03CC055E08C3D95070CF01E
:100BC00083C066E970E00E94C910062F0F5F47C01E
:100BD0008FEF2E3F3807A9F4808191812FEF8B365C
:100BE00092071CF4FF24F3943AC055E08C3D95071E
:100BF0000CF06CC066E970E00E94C910F62EF39408
:100C00002EC08FEF2D3F380799F4808191812FEF0F
:100C10008B3692070CF45DC055E08C3D95070CF0C7
:100C200051C066E970E00E94C910162F1F5F17C0FF
:100C30002C5F3F4FA1F4808191812FEF8B3692077B
:100C400014F441E00CC055E08C3D950714F04AE0E7
:100C500006C066E970E00E94C910462F4F5F3296C9
:100C60002D9683E0E331F80709F090CF112329F0A6
:100C7000442339F4612F619505C0442311F0642F9A
:100C800001C060E0FF2021F0002339F44F2D06C0A1
:100C9000002319F0402F419501C040E0662311F474
:100CA0004423C9F070E0660F771F660F771F50E08E
:100CB000440F551F440F551F81E593E020E00E942B
:100CC000950B09C01AE0CBCF0AE0B2CF9AE0F92E1B
:100CD000C6CF11E0C4CFDF91CF911F910F91FF904C
:100CE0000895CF93DF938091EE028823A9F1C5EE9A
:100CF000D1E08A85882359F18F81882399F08881F2
:100D00009981019729F481E593E061E00E94C40B89
:100D1000888199810297D9F481E593E062E00E948D
:100D2000C40B15C08885882391F08881998101972B
:100D300029F481E593E061E00E94BC0B88819981F0
:100D4000029729F481E593E062E00E94BC0B2D96A6
:100D500082E0CF3CD80769F6DF91CF910895FF92EA
:100D60000F931F93CF93DF931092EE020FEE12E0DA
:100D7000C5EED1E0FF24F3948F8188872E818823EC
:100D800021F130E08091EC029091ED0228173907B3
:100D900094F4F092EE021F828B85882329F082E57D
:100DA00093E068810E94E10A8985882309F1F801AE
:100DB000118210821DC089858823D1F0F8018081BD
:100DC000918101969183808313C030E08091EA0283
:100DD0009091EB02821793075CF4F092EE02FF828F
:100DE0008B85882329F082E593E068810E94240B9B
:100DF0000E5F1F4F2D96F3E003311F0709F0BCCFA4
:100E0000DF91CF911F910F91FF900895CF93DF93C2
:100E10001092E3011092E201C8EBDBE0AEC00E9449
:100E200026050E94EE018091E7028F5F8093E70222
:100E3000883059F41092E7028091E6028F5F809328
:100E4000E602833011F41092E6020E94AF060E947F
:100E500071060E94A9050E9414040E94AB028091B1
:100E6000E2019091E3018330910509F449C0843097
:100E700091054CF48130910519F18230910584F58A
:100E8000892B71F074C08530910509F459C0853003
:100E900091050CF445C0069709F069C081E074C063
:100EA0006091CE027091CF028091D00241E00E9409
:100EB0003E032091E2013091E3018091EC014FC0AB
:100EC0006091D1027091D2028091D30241E00E94E0
:100ED0003E032091E2013091E3018091F9013FC08E
:100EE0006091D4027091D5028091D60241E00E94B7
:100EF0003E032091E2013091E301809106022FC070
:100F00006091D7027091D8028091D90241E00E948D
:100F10003E032091E2013091E301809113021FC052
:100F20006091DA027091DB028091DC0241E00E9464
:100F30003E032091E2013091E301809120020FC035
:100F40006091DD027091DE028091DF0241E00E943B
:100F50003E032091E2013091E30180912D0288232C
:100F600011F02F5F3F4F3093E3012093E20161E0E6
:100F700070E080E090E00E94A10821978FEFCF3FC2
:100F8000D80709F04CCF80E0DF91CF9108950E94FF
:100F9000150264EF71E080E090E00E94A1080E94D9
:100FA000F3048823A9F00E9480020E940607882388
:100FB00039F082E593E060E271E00E94510C0895FF
:100FC00082E593E069E471E00E94510C0E946403A1
:100FD00008950E9426050E94EE018091E7028F5F2E
:100FE0008093E702883059F41092E7028091E6027C
:100FF0008F5F8093E602833011F41092E6020E9424
:10100000AF060E9471060E94A9050E9414040E9466
:10101000AB020E948C050895CF93DF93C3E9D1E022
:10102000888160E00E946409888160E00E94010A72
:10103000229681E0C73BD80799F782E593E00E94AA
:10104000810A81E593E00E94800ADF91CF910895A3
:101050000E94F0020E940C080E9498010E94C7079B
:101060000E94960308951F920F920FB60F921124BB
:101070002F933F938F939F93AF93BF9380914C0394
:1010800090914D03A0914E03B0914F0330915003C6
:101090000196A11DB11D232F2D5F2D3720F02D5757
:1010A0000196A11DB11D2093500380934C03909392
:1010B0004D03A0934E03B0934F038091480390914A
:1010C0004903A0914A03B0914B030196A11DB11DA4
:1010D0008093480390934903A0934A03B0934B0332
:1010E000BF91AF919F918F913F912F910F900FBE24
:1010F0000F901F9018959FB7F89420914803309156
:10110000490340914A0350914B0386B5A89B06C002
:101110008F3F21F02F5F3F4F4F4F5F4F9FBF542FA7
:10112000432F322F2227280F311D411D511D82E0F0
:10113000220F331F441F551F8A95D1F7B901CA01E9
:1011400008959B01AC017FB7F8948091480390917A
:101150004903A0914A03B0914B0366B5A89B05C013
:101160006F3F19F00196A11DB11D7FBFBA2FA92FA6
:10117000982F8827860F911DA11DB11D62E0880F51
:10118000991FAA1FBB1F6A95D1F7BC012DC0FFB7DD
:10119000F8948091480390914903A0914A03B0913B
:1011A0004B03E6B5A89B05C0EF3F19F00196A11DC2
:1011B000B11DFFBFBA2FA92F982F88278E0F911D21
:1011C000A11DB11DE2E0880F991FAA1FBB1FEA9560
:1011D000D1F7861B970B885E9340C8F221503040B0
:1011E0004040504068517C4F211531054105510563
:1011F00071F60895019739F0880F991F880F991F8C
:1012000002970197F1F70895789484B5826084BDC0
:1012100084B5816084BD85B5826085BD85B58160FA
:1012200085BDEEE6F0E0808181608083E1E8F0E05A
:101230001082808182608083808181608083E0E889
:10124000F0E0808181608083E1EBF0E08081846068
:101250008083E0EBF0E0808181608083E1E9F0E071
:10126000808182608083808181608083E0E9F0E01A
:10127000808181608083E1ECF0E080818460808304
:10128000808182608083808181608083E3ECF0E0F4
:10129000808181608083E0ECF0E0808182608083E7
:1012A000E2ECF0E0808181608083EAE7F0E0808119
:1012B000846080838081826080838081816080837C
:1012C0008081806880830895CF93DF93482F50E01A
:1012D000CA018C509F4FFC0134914A525F4FFA0172
:1012E0008491882369F190E0880F991FFC01E455EF
:1012F000FF4FA591B491FC01E654FF4FC591D491E5
:10130000662351F42FB7F8948C91932F90958923ED
:101310008C93888189230BC0623061F42FB7F894D5
:101320008C91932F909589238C938881832B88832C
:101330002FBF06C09FB7F8948C91832B8C939FBFCF
:10134000DF91CF9108958730C1F1883080F48330E8
:10135000F9F0843030F4813029F1823009F050C046
:1013600024C08430C9F0863009F04AC022C08A30D7
:1013700091F18B3030F4883031F1893009F040C080
:1013800026C08C3091F18C3060F18E30C9F533C0BD
:10139000809180008F7703C0809180008F7D809343
:1013A0008000089584B58F7702C084B58F7D84BD99
:1013B00008958091B0008F7703C08091B0008F7D39
:1013C0008093B0000895809190008F7707C080913E
:1013D00090008F7D03C080919000877F8093900064
:1013E00008958091C0008F7703C08091C0008F7DE9
:1013F0008093C00008958091C200877F8093C200CF
:101400000895FF920F931F93F62E482F50E0CA01C4
:101410008E5E9E4FFC012491CA018C509F4FFC01AF
:1014200014914A525F4FFA0104910023C9F022231C
:1014300019F0822F0E94A309E02FF0E0EE0FFF1FAA
:10144000E654FF4FA591B4919FB7F894FF2021F483
:101450008C911095812302C08C91812B8C939FBF1E
:101460001F910F91FF9008950F931F93482F50E005
:10147000CA018E5E9E4FFC012491CA018C509F4F81
:10148000FC0104914A525F4FFA011491112319F49F
:1014900020E030E015C0222319F0822F0E94A3091A
:1014A000812F90E0880F991F88539F4FFC01A591D1
:1014B000B4918C9120E030E0802311F021E030E005
:1014C000C9011F910F910895FC0191818081813A9A
:1014D00031F4913089F080E0933089F40DC081328D
:1014E00069F49B3021F482818093B70105C09A3062
:1014F00029F482818093B80181E0089580E0089505
:1015000008950895EF92FF920F931F938C01E62E9A
:10151000DC01ED91FC910480F581E02D0995F82E18
:10152000D801ED91FC910680F781E02DC8016E2D68
:1015300009958F2D90E01F910F91FF90EF900895E6
:1015400010925103109255031092540385EC91E0D0
:1015500090935303809352030895EF92FF920F9359
:101560001F93DF93CF930F92CDB7DEB789838B01A3
:101570007A0184E0BE016F5F7F4F41E050E00E943E
:10158000360D84E4B801A7010E94360D0F90CF916B
:10159000DF911F910F91FF90EF90089582E048E056
:1015A00050E00E94AD0A0895FC0116821782108651
:1015B00011861286138614823496BF010E94CE0AC9
:1015C0000895DC01683810F0685829C0E62FF0E073
:1015D00067FF13C0E058F04081E090E002C0880F40
:1015E000991FEA95E2F7809514962C911497282379
:1015F00014962C93149760E012C0E455FE4F64914A
:10160000662319F420E030E01DC067FF08C014967F
:101610008C9114978D7F14968C9314976F77FD019E
:1016200090E0662321F08681861709F416829F5F79
:1016300031969630B1F7CD011496BD010E94CE0AC5
:1016400021E030E0C9010895CF93DF93DC016838D1
:1016500010F0685825C0E62FF0E067FF12C0E05890
:10166000F04081E090E002C0880F991FEA95E2F710
:1016700014962C911497282B14962C93149760E0B1
:101680000FC0E455FE4F64916623D9F167FF08C08F
:1016900014968C911497826014968C9314976F779C
:1016A00016968C9116978617A9F117968C91179715
:1016B000861781F118968C911897861759F119960B
:1016C0008C911997861731F11A968C911A97861773
:1016D00009F11B968C911B978617E1F0ED01E0E074
:1016E000F0E09E2F8E81882321F4EA0FFB1F668392
:1016F00006C09F5F31962196E630F10591F796304E
:1017000049F481E090E013969C938E93129720E029
:1017100030E007C0CD011496BD010E94CE0A21E041
:1017200030E0C901DF91CF910895DF93CF9300D0CE
:1017300000D0CDB7DEB7FC01808189836A834B83FB
:101740002C8381E0BE016F5F7F4F44E050E00E9438
:10175000AD0A0F900F900F900F90CF91DF910895E9
:10176000FC018081681739F06083CF0160E040E0C0
:1017700020E00E94950B0895FC01609520812623AE
:10178000622F0E94B00B0895FC01862F6081682BA8
:10179000CF010E94B00B089580E86EE271E045E64B
:1017A00050E00E94B10C0895FC0180818F5F80831E
:1017B00080E863E971E049E150E00E94B10C0895CE
:1017C000CF93DF930E94040986E693E00E94180DF0
:1017D0000E942808C0E0D0E00E94E9072097E1F3CA
:1017E0000E940000F9CFCF92DF92EF92FF920F9309
:1017F0001F93CF93DF937C016B018A01C0E0D0E09F
:101800000FC0D6016D916D01D701ED91FC91019052
:10181000F081E02DC7010995C80FD91F0150104074
:101820000115110571F7CE01DF91CF911F910F9135
:10183000FF90EF90DF90CF900895EF92FF920F937B
:101840001F938C01DC01ED91FC910190F081E02D62
:101850006DE009957C01D801ED91FC910190F0813A
:10186000E02DC8016AE009959C012E0D3F1DC901BC
:101870001F910F91FF90EF900895CF93DF93DB01BD
:101880000D900020E9F71197A61BB70BEC01E8813A
:10189000F9810280F381E02DAD010995DF91CF91AF
:1018A0000895EF92FF920F931F937C010E943D0CCD
:1018B0008C01C7010E941D0C080F191FC8011F9140
:1018C0000F91FF90EF900895282F80916003882357
:1018D000C1F057FF1AC015C0289890935F038091FC
:1018E000F1008193E217F307B9F74115510539F07B
:1018F0008091F200882319F48BE68093E800AFBF53
:1019000002C04FEF5FEFCA010895AFB7F894277098
:101910002093E9008091F200282F30E0241735074A
:101920000CF4A901FB019B01240F311D94E6DACFD1
:10193000DF93CF930F92CDB7DEB7BE016F5F7F4FBE
:1019400041E050E00E94640C019719F02FEF3FEF47
:1019500003C08981282F30E0C9010F90CF91DF911A
:101960000895FF920F931F93F82E142F052F409187
:10197000630350916403212F302FC901DC01FB0167
:101980006EEF29C0F7FE02C0949101C090812091B2
:1019900061033091620324173507ACF48091E800AD
:1019A0008570E1F38091E80082FF03C02FEF3FEFE5
:1019B00017C09093F100C90101968F739070892B25
:1019C00011F46093E8002F5F3F4F30936203209340
:1019D0006103119731961097A9F6812F902F9C01E2
:1019E000C9011F910F91FF9008959C018091E8001B
:1019F00082FFFCCFF901260F311D03C08091F10059
:101A00008193E217F307D1F7289884E680935F0368
:101A10008BEF8093E800CB0108958093E9008091DB
:101A2000F200882319F08AE38093E800089508956E
:101A30001092600381E08093D70080EA8093D80001
:101A400082E189BD09B400FEFDCF61E070E080E075
:101A500090E00E94A10880E98093D8008CE08093F8
:101A6000E2001092E000559A209A08955F926F92DA
:101A70007F928F929F92AF92BF92CF92DF92EF921E
:101A8000FF920F931F93CF93DF93E82E842E752E32
:101A900080916003882371F18B01242F352FC901B8
:101AA000EC017AEFF72E67E0962E9E2050E4552E3B
:101AB0008E2D90E040E2A42EB12CA822B9223AE368
:101AC000632E20E4C22ED12CC822D92258C09FB741
:101AD000F8949092E9008091E80085FD02C020E032
:101AE00004C08091F200252D281B9FBF222361F4A2
:101AF000FA9419F42FEF3FEF4DC061E070E080E001
:101B000090E00E94A1083BC0822F90E0C817D9073F
:101B10000CF42C2FC21BD1094FB7F8949092E90016
:101B2000A114B10421F406C01092F1002150222327
:101B3000D9F719C0E7FC03C0F801922F10C0C80103
:101B4000322F06C0FC010196E491E093F100315080
:101B50003323C1F706C081918093F10091509923FE
:101B6000D1F7020F111D8091E80085FF05C0209775
:101B700029F4C114D10411F06092E8004FBF2097FE
:101B800009F0A5CF5D9884E680935E03282D372D5C
:101B9000C9019C01C901DF91CF911F910F91FF9065
:101BA000EF90DF90CF90BF90AF909F908F907F90FD
:101BB0006F905F9008951F920F920FB60F921124AD
:101BC0001F932F933F934F935F936F937F938F93C5
:101BD0009F93AF93BF93EF93FF938091E100109297
:101BE000E100982F83FF0FC01092E90081E08093FD
:101BF000EB001092EC0082E38093ED001092600302
:101C000088E08093F00092FF36C083E08093E90083
:101C10008091F200882349F08AE38093E80005C0B0
:101C20008BEA93E00E943C1001C012E09FB7F89449
:101C30001093E9008091F2009FBF882389F780917B
:101C40005E03882351F080915E03815080935E0390
:101C500080915E03882309F45D9A80915F03882355
:101C600051F080915F03815080935F0380915F0307
:101C7000882309F4289AFF91EF91BF91AF919F912A
:101C80008F917F916F915F914F913F912F911F9114
:101C90000F900FBE0F901F9018950F931F93DF9317
:101CA000CF930F92CDB7DEB719828E010F5F1F4F12
:101CB000C8010E945B10C8010E94D40B898190E08A
:101CC0000F90CF91DF911F910F9108951F920F9266
:101CD0000FB60F921124EF92FF921F932F933F9311
:101CE0004F935F936F937F938F939F93AF93BF9324
:101CF000EF93FF93DF93CF93CDB7DEB76197DEBF4E
:101D0000CDBF1092E9008091E80083FF0FC1FE0172
:101D100031969E01275F3F4F03C08091F100819370
:101D2000E217F307D1F7289884E680935F0382EFE8
:101D30008093E800998197FF05C08091E80080FFBB
:101D4000FCCF03C08EEF8093E800292F30E0C9015B
:101D500080769070892B09F0C2C08A81882329F48B
:101D60001092F1001092F100D6C0813009F4D3C076
:101D7000833009F4D0C0853049F48091E80080FFB9
:101D8000FCCF8B8180688093E300C5C0863009F06A
:101D90007CC01C81EF80F8841230C1F51092E900FC
:101DA0001092620310926103109264031092630315
:101DB0000E944D0E99E0FE013996DF01292F1D92F8
:101DC0002A95E9F799871A8791E09E8790E8988B82
:101DD0009AEF998B2091610330916203275F3F4F07
:101DE0003C872B878D871092E90010926203109236
:101DF0006103F0926403E092630380E0BF0149E075
:101E000050E00E94B10C0E944D0E85C01092E90076
:101E10001092620310926103F0926403E0926303F4
:101E2000123241F482E290E00E94CC0B892B09F43B
:101E300076C071C0113079F488E0E816F10419F425
:101E400081E08093650380916503882309F06BC06E
:101E5000EAE6F2E013C0133009F061C08B818823F9
:101E600019F4ECE2F2E00AC0823019F4E0E3F2E0A7
:101E700005C0813009F053C0E2E5F2E0449180E80A
:101E8000BF0150E00E94B10C46C0873009F447C042
:101E9000883021F481E08093F1003DC08930D9F58C
:101EA00023703070232BD9F5EFE8F2E091E031E0B8
:101EB00026E39093E9003093EB0084918093EC004B
:101EC0002093ED009F5F3196953099F78EE78093D0
:101ED000EA001092EA008B81809360031CC08F811E
:101EE00098851092E900109262031092610390931A
:101EF0006403809363038D81882329F4CE010196C6
:101F00000E94671006C0823051F4CE0101960E94F3
:101F1000640A882321F08EEF8093E80007C081E2F5
:101F20008093EB0003C0ECE7F2E0A8CF6196DEBF40
:101F3000CDBFCF91DF91FF91EF91BF91AF919F9175
:101F40008F917F916F915F914F913F912F911F9151
:101F5000FF90EF900F900FBE0F901F90189520915B
:101F6000A7033091A8038091A9039091AA03281B8D
:101F7000390B2F733070C90108952091A703309158
:101F8000A8038091A9039091AA032817390719F48F
:101F90002FEF3FEF09C0E091A903F091AA03E9599F
:101FA000FC4F8081282F30E0C90108952091A703BC
:101FB0003091A8038091A9039091AA0328173907AB
:101FC00019F42FEF3FEF13C0E091A903F091AA039A
:101FD000E959FC4F20818091A9039091AA030196B1
:101FE0008F7390709093AA038093A90330E0C90186
:101FF00008951092AE031092AD0388EE93E0A0E036
:10200000B0E08093AF039093B003A093B103B0937B
:10201000B20383ED91E09093AC038093AB030895FA
:102020000F931F93DF93CF930F92CDB7DEB78C0141
:1020300069838091C001882369F083E0BE016F5FEE
:102040007F4F41E050E00E94360D1816190614F437
:102050009C0107C081E090E0F8019383828320E037
:1020600030E0C9010F90CF91DF911F910F9108953A
:1020700083E00E940D0D089582E00E94980C482F85
:102080002091A7033091A8032F5F3F4F2F7330702B
:102090008091A9039091AA032817390759F0E0917C
:1020A000A703F091A803E959FC4F40833093A8039C
:1020B0002093A7030895FC0180818E5F808380E8D0
:1020C00063E972E042E450E00E94B10C0895FC0123
:1020D00081819081913A59F4813209F04CC080E0BD
:1020E00069EB71E047E050E00E94B10C42C09132D0
:1020F00009F041C0803239F489EB91E067E070E08B
:102100000E94F50C36C0823209F035C0828180937E
:10211000C0018091B9019091BA01A091BB01B09129
:10212000BC01805B9440A040B04019F58091C00193
:1021300080FD12C087E797E790930108809300081D
:102140002BE088E190E00FB6F894A89580936000AA
:102150000FBE209360000DC088E10FB6F894809305
:102160006000109260000FBEA895109201081092B6
:10217000000881E0089580E00895991B79E004C08B
:10218000991F961708F0961B881F7A95C9F78095B6
:10219000089597FB092E07260AD077FD04D00CD0AE
:1021A00006D000201AF4709561957F4F0895F6F7D8
:1021B000909581959F4F0895AA1BBB1B51E107C0C5
:1021C000AA1FBB1FA617B70710F0A61BB70B881FC7
:1021D000991F5A95A9F780959095BC01CD01089556
:1021E000EE0FFF1F0590F491E02D0994F894FFCFB6
:1021F00074657374696E6720696E70757420002051
:102200003D3D3E20002E2E2E204641494C454400A7
:102210004D614B6579204D614B65792073656C6626
:102220002D7465737420726573756C743A20504117
:1022300053534544203A2D29004D614B6579204D7B
:10224000614B65792073656C662D746573742072BB
:102250006573756C743A204641494C45442100DA57
:1022600000D900D800D7002000010077006100737A
:1022700000640066006700FFFFFEFFFDFFFCFF013A
:102280000002000C0008000D000F0007000600050A
:1022900000040003000200010000001700160015F2
:1022A00000140013001200010100E1000000000012
:1022B0000000000000820AF30B240BE10AD40A009C
:1022C0000000001010F30BAF0FD60FBD0F38103CFD
:0222D0001000FC
:00000001FF

