:1070000055C000006EC000006CC000006AC00000E7
:1070100068C0000066C0000064C0000062C00000DC
:1070200060C000005EC00000E7C400005AC000005D
:1070300058C0000056C0000054C0000052C00000FC
:1070400050C00000DCC000004CC000004AC000007E
:1070500048C0000046C0000044C0000042C000001C
:1070600040C000003EC000003CC000003AC000002C
:1070700038C0000036C0000034C0000032C000003C
:1070800030C000002EC000002CC000002AC000004C
:1070900028C0000026C0000024C0000022C000005C
:1070A00020C000001EC000001CC0000011241FBE34
:1070B000CFEFDAE0DEBFCDBF11E0A0E0B1E0E2E16A
:1070C000FFE702C005900D92A03BB107D9F711E090
:1070D000A0EBB1E001C01D92A63CB107E1F785D35A
:1070E00016C78ECF84E08093E9000DC08091E80040
:1070F0008B778093E80003C08EB3882359F080918A
:10710000E80082FFF9CF8091E80085FFEFCF809102
:10711000F100089580E0089593E09093E900909144
:10712000E80095FD0DC09091E8009E779093E800EF
:1071300003C09EB3992369F09091E80090FFF9CFC6
:107140008093F1005D9884E690E09093B101809384
:10715000B0010895F89410926F001092810010927F
:1071600085001092840081E085BF15BE47985D9A26
:10717000289A0C94000008958091BA019091BB0167
:1071800001969093BB018093BA01292F97FF03C00A
:107190003EEF391B232F220F281710F4479808952C
:1071A000479A089584B7877F84BF88E10FB6F89423
:1071B00080936000109260000FBE90E880E00FB6F0
:1071C000F89490936100809361000FBE81E085BFC9
:1071D00082E085BF3F9A209A559AE1E6F0E09083DD
:1071E000108247985D9A289A109289009AEF90939E
:1071F000880080936F0083E080938100E5C31F9235
:107200000F920FB60F9211242F938F939F93EF93AA
:10721000FF9310928500109284008091B0019091AC
:10722000B101009741F001979093B1018093B001B3
:10723000009709F45D9A8091B2019091B301009793
:1072400041F001979093B3018093B201009709F444
:10725000289AE0E0F0E0859194912FEF8F3F92071C
:1072600049F08091B4019091B50101969093B501D8
:107270008093B401FF91EF919F918F912F910F9087
:107280000FBE0F901F90189582E061EC42E02FD363
:1072900083E061E842E12BD384E060E842E127C368
:1072A0008091BE01982F9F77913249F59091BF014F
:1072B0009032A1F0913219F5813A09F58091E800F8
:1072C000877F8093E8008DE091E067E070E045D42F
:1072D0008091E8008B778093E8000895813279F4FB
:1072E0008091E800877F8093E8008DE091E067E07F
:1072F00070E094D48091E8008E778093E800089540
:107300004F925F926F927F928F929F92AF92BF92B5
:10731000CF92DF92EF92FF920F931F93CF93DF9361
:1073200084E08093E9008091E80082FF4DC22898B4
:1073300084E690E09093B3018093B201D3DE182FDE
:10734000853481F484E699E19093B5018093B4018A
:1073500007B600FCFDCFF999FECF81E1809357007D
:10736000E89503C0843519F4BDDE8DE003C28C348A
:10737000E1F38035D1F3843721F484E4CDDE80E07D
:10738000F9C1813611F489E5F5C1813401F5AADE30
:10739000C82FA8DE282F30E0220F331F442737FDE7
:1073A0004095542F7C2F770F60E0CB01AA2797FDE3
:1073B000A095BA2F282B392B4A2B5B2B2093B60193
:1073C0003093B7014093B8015093B901CECF8037C5
:1073D00011F483E5CFC1833549F4C0E0D1E0899150
:1073E0009BDE41E0C730D407D1F7C5C1863521F413
:1073F00081E392DE80E3BEC1833731F487E88CDE1F
:1074000085E98ADE8EE1B6C18536F9F480E090E048
:10741000DC0133E025E0FC0130935700E89507B626
:1074200000FCFDCF20935700E89507B600FCFDCF88
:1074300080589F4FAF4FBF4F8030E0E79E07E0E09E
:10744000AE07E0E0BE0739F790CF823739F4E1E0CC
:10745000F0E089E08093570084918CC1863439F440
:10746000E0E0F0E089E080935700849183C18E349E
:1074700039F4E3E0F0E089E08093570084917AC129
:10748000813539F4E2E0F0E089E08093570084919F
:1074900071C1823631F489E53FDE80E03DDE80E86F
:1074A00069C1823419F0873609F0DAC01092B5014B
:1074B0001092B40117DEE82E15DEC82F13DED82E89
:1074C0008554823008F055C13E2D20E0D0E0C22B1B
:1074D000D32B10926F00173609F044C081E18093DE
:1074E0005700E895CC24BB24B39438C0E090B60193
:1074F000F090B7010091B8011091B901FD2DF6345B
:10750000B9F4EC2DF0E0EE29FF29849105DECC20C2
:1075100069F0D801C7010296A11DB11D8093B60183
:107520009093B701A093B801B093B901CB2415C0D3
:10753000D801C701B695A79597958795D2D4ECDD6C
:10754000D801C7010296A11DB11D8093B601909389
:10755000B701A093B801B093B9012197209709F022
:10756000C5CF7AC04090B6015090B7016090B80185
:107570007090B9014D2D463409F05AC083E0F201F4
:1075800080935700E89507B600FCFDCF51C0FD2D54
:10759000F63449F5CC2019F1E090B601F090B7012E
:1075A0000091B8011091B9019DDD982E88242B2DF2
:1075B00030E028293929F7010901A0925700E89500
:1075C0001124D801C7010296A11DB11D8093B601F7
:1075D0009093B701A093B801B093B90102C082DDC6
:1075E000B82ECA2423C0E090B601F090B7010091F4
:1075F000B8011091B90116950795F794E79472DDDB
:10760000682FC70176D48091B6019091B701A091FF
:10761000B801B091B9010296A11DB11D8093B601C8
:107620009093B701A093B801B093B901219704C01A
:10763000BB24CC24AA24A394209709F0A8CFFD2D25
:10764000F63441F485E0F20180935700E89507B6DF
:1076500000FCFDCF8DE060DD82E080936F008BC089
:10766000833471F4C091B601D091B7013BDD90E055
:1076700021E0FE010C0120935700E895112475CEFE
:107680008336A9F4E090B601F090B7010091B801FB
:107690001091B90127DDF701E16090E021E00C01D4
:1076A00020935700E8951124D801C70134C08D36C6
:1076B00061F4E091B601F091B70185E08093570045
:1076C000E89507B600FCFDCF50CE823551F4E0912D
:1076D000B601F091B701C591D4918D2F1DDD8C2F8E
:1076E00049C0843421F5E090B601F090B7010091D3
:1076F000B8011091B90116950795F794E794F2DC5B
:10770000682FC701F6D38091B6019091B701A0917F
:10771000B801B091B9010296A11DB11D8093B601C7
:107720009093B701A093B801B093B9011ECE8436EF
:10773000F1F4E090B601F090B7010091B80110911A
:10774000B901D801C701B695A79597958795C9D373
:10775000E3DCD801C7010296A11DB11D8093B601DB
:107760009093B701A093B801B093B90104C08B31D5
:1077700011F08FE3D1DC83E08093E9009091E80081
:107780008091E8008E778093E80095FF04C010C0D8
:107790008EB38823C9F08091E80080FFF9CF8091F3
:1077A000E8008E778093E80003C08EB3882361F0F1
:1077B0008091E80080FFF9CF84E08093E900809118
:1077C000E8008B778093E800DF91CF911F910F91B4
:1077D000FF90EF90DF90CF90BF90AF909F908F90F1
:1077E0007F906F905F904F900895209100083091A6
:1077F0000108109201081092000884B714BE98E1A5
:107800000FB6F89490936000109260000FBE90E065
:10781000FC01E270F07081FD1AC080FF06C0459146
:1078200054916FEF4F3F560789F483FF10C080914A
:10783000090190910A012817390749F0E0E0F0E0CA
:10784000859194912FEF8F3F920709F083DCAADC9A
:1078500078941092B5011092B4010DC051DD2FD370
:107860008091B4019091B5016BE18935960710F0D4
:107870001092140181DC80911401882379F78091A2
:10788000E00081608093E00065DC80E090E0089596
:10789000923029F0933041F0913061F410C02EE322
:1078A00030E087E291E01EC0882371F0813089F0DA
:1078B0008230A1F020E030E080E090E013C022E1CF
:1078C00030E085E191E00EC024E030E085E691E013
:1078D00009C028E130E089E691E004C02AE230E006
:1078E00083E891E0FA0191838083C9010895809330
:1078F000E900EBEEF0E0808181608083EDEEF0E066
:1079000010826093EC0040838091EE00881F8827EE
:10791000881F08958091BE0187FF11C003C08EB3F8
:107920008823B1F08091E80082FFF9CF8091E800D0
:107930008B778093E80008958EB3882349F0809177
:10794000E80080FFF9CF8091E8008E778093E8000F
:1079500008950F931F93CF93DF9341D048D0C8ED84
:10796000D0E088818F778883888180688883888148
:107970008F7D888319BC1EBA1092BC0100EE10E006
:10798000F80180818B7F808388818160888380E09B
:1079900060E042E0ACDFE1EEF0E080818E7F80834A
:1079A000E2EEF0E080818160808380818860808366
:1079B000F80180818E7F8083888180618883DF9158
:1079C000CF911F910F910895E7EDF0E080818160E4
:1079D00080838AE482BF81E08093BD01BACFE8ED65
:1079E000F0E080818E7F80831092E20008951092F3
:1079F000DA001092E10008951F920F920FB60F92D5
:107A000011242F933F934F935F936F937F938F93A3
:107A10009F93AF93BF93EF93FF938091DA0080FF22
:107A20001BC08091D80080FF17C08091DA008E7F44
:107A30008093DA008091D90080FF0BC080E189BD7E
:107A400082E189BD09B400FEFDCF81E08EBB36D254
:107A500003C019BC1EBA32D28091E10080FF17C06A
:107A60008091E20080FF13C08091E2008E7F8093BE
:107A7000E2008091E20080618093E2008091D80072
:107A800080628093D80019BC85E08EBB17D28091AC
:107A9000E10084FF2CC08091E20084FF28C080E1D7
:107AA00089BD82E189BD09B400FEFDCF8091D80077
:107AB0008F7D8093D8008091E1008F7E8093E100DC
:107AC0008091E2008F7E8093E2008091E2008160ED
:107AD0008093E2008091BC01882321F48091E3002F
:107AE00087FF02C084E001C081E08EBBE7D18091B6
:107AF000E10083FF21C08091E20083FF1DC08091DF
:107B0000E100877F8093E10082E08EBB1092BC0190
:107B10008091E1008E7F8093E1008091E2008E7F72
:107B20008093E2008091E20080618093E20080E037
:107B300060E042E0DCDEC2D1FF91EF91BF91AF91F6
:107B40009F918F917F916F915F914F913F912F9175
:107B50000F900FBE0F901F901895482F592FFA01C4
:107B60008091C4019091C5018617970718F4BC0154
:107B700040E03BC061157105D9F78091E8008E7730
:107B80008093E800F5CF8EB3882309F443C0853095
:107B9000E9F18091E80083FD3BC08091E80082FD1F
:107BA0002FC08091E80080FF20C09091F300809169
:107BB000F200392F20E090E0822B932B06C04191F8
:107BC0004093F1006150704001966115710519F004
:107BD00088309105A0F341E08830910509F040E03C
:107BE0008091E8008E778093E8006115710559F661
:107BF000442349F605C08EB3882361F0853061F0D7
:107C00008091E80082FFF7CF80E0089583E0089537
:107C100081E0089582E0089583E00895611571057B
:107C200051F524C04EB34423C9F1453099F1409138
:107C3000E80043FD31C04091E80042FFF3CFE82F58
:107C4000F92F07C08091F1008193CF0161507040FE
:107C500069F0CF015091F3004091F200352F20E000
:107C600050E0422B532B4115510561F74091E8003C
:107C70004B774093E80061157105A1F605C08EB3FE
:107C8000882361F0853061F08091E80080FFF7CFB4
:107C900080E0089583E0089581E0089582E00895EA
:107CA00083E008950F931F93DF93CF9300D0CDB758
:107CB000DEB7EEEBF1E08091F100819381E0E63CEC
:107CC000F807C9F7EDDA8091E80083FFE2C0809100
:107CD000BE019091BF01953009F46BC0963040F41D
:107CE000913061F1913070F0933009F0D2C026C02C
:107CF000983009F4A1C0993009F4B0C0963009F069
:107D0000C8C07AC0803809F4C4C0823809F0C1C044
:107D10008091C20187708093E9009091EB001092EE
:107D2000E9008091E800877F8093E80081E095FF7B
:107D300080E08093F1001092F10089C0882319F04F
:107D4000823009F0A6C08F71823009F0A2C0809104
:107D5000C001882341F52091C201277009F499C020
:107D60002093E9008091EB0080FF1DC08091BF014E
:107D7000833021F48091EB00806213C08091EB008E
:107D800080618093EB0081E090E002C0880F991F32
:107D90002A95E2F78093EA001092EA008091EB00C6
:107DA00088608093EB001092E9008091E800877F63
:107DB00051C0882309F06DC01091C0011F770FB723
:107DC000F8948091E800877F8093E800A3DD80919C
:107DD000E80080FFFCCF8091E3008078812B8093C6
:107DE000E30080688093E300112311F083E001C079
:107DF00082E08EBB0FBF4DC08058823008F049C072
:107E00008091C0019091C1016091C201AE014F5FAC
:107E10005F4F3EDDBC01009709F43BC08091E80054
:107E2000877F8093E80089819A8197DE8091E800BE
:107E30008B778093E8002DC0803859F58091E80059
:107E4000877F8093E8008091BC018093F10080914E
:107E5000E8008E778093E8005DDD1BC08823C9F4BD
:107E60009091C0019230A8F48091E800877F8093C0
:107E7000E8009093BC014EDD8091BC01882321F481
:107E80008091E30087FF02C084E001C081E08EBBE7
:107E9000FBD98091E80083FF0AC08091EB008062EB
:107EA0008093EB008091E800877F8093E8000F903B
:107EB0000F90CF91DF911F910F9108950895CF9367
:107EC0008EB3882361F0C091E900C7701092E90079
:107ED0008091E80083FF01C0E5DEC093E900CF9107
:107EE0000895F999FECF92BD81BDF89A992780B582
:107EF0000895262FF999FECF1FBA92BD81BD20BDEE
:107F00000FB6F894FA9AF99A0FBE01960895F8946C
:027F1000FFCFA1
:107F12004341544552494E41007777000800000022
:107F2200000000080112011001020000084F1B743A
:107F32002B01000201000109023E00020100803211
:107F420009040000010202010005240010010424BA
:107F520002040524060001070582030800FF090444
:107F62000100020A000000070504021000010705D3
:107F720083021000010403090418034D0061004B41
:107F8200006500790020004D0061004B006500791A
:107F92000000002A0353007000610072006B00466B
:107FA2000075006E00200045006C006500630074DF
:107FB2000072006F006E0069006300730000000031
:040000030000700089
:100000000C946E010C9496010C9496010C9496013C
:100010000C9496010C9496010C9496010C94960104
:100020000C9496010C9496010C94AC0F0C94371020
:100030000C9496010C9496010C9496010C949601E4
:100040000C9496010C9496010C9496010C949601D4
:100050000C9496010C9496010C9496010C94BD0995
:100060000C9496010C9496010C9496010C949601B4
:100070000C9496010C9496010C9496010C949601A4
:100080000C9496010C9496010C9496010C94960194
:100090000C9496010C9496010C9496010C94960184
:1000A0000C9496010C9496010C94960100000000AB
:1000B000240027002A002D00300000000000250049
:1000C00028002B002E003100000000002300260035
:1000D00029002C002F000404040404030405020278
:1000E00002020403020202020606060606060404D1
:1000F00002020204040802011040804010204080E7
:10010000408008020401804020100201108010206D
:1001100040400000000200080E0000030401000B34
:100120000000070605040100080A0B0C0D09050173
:100130000902A1010901A10085010509190129038D
:10014000150025019503750181029501750581034F
:1001500005010930093109381581257F7508950396
:100160008106C0C005010906A1018502050719E045
:1001700029E715002501750195088102950175088B
:100180008103950675081500256505071900296581
:100190008100C009040200010300000009210101DF
:1001A00000012265000705840340000100000000F3
:1001B000000000002A2B28000000000000000000C2
:1001C0000000000000000000000000002C9EB4A011
:1001D000A1A2A434A6A7A5AE362D3738271E1F200E
:1001E000212223242526B333B62EB7B89F848586D3
:1001F0008788898A8B8C8D8E8F9091929394959617
:100200009798999A9B9C9D2F3130A3AD3504050694
:100210000708090A0B0C0D0E0F10111213141516F6
:100220001718191A1B1C1DAFB1B0B500040309043F
:100230002203410072006400750069006E006F00C7
:1002400020004C0065006F006E00610072006400C9
:100250006F001803410072006400750069006E00B1
:100260006F0020004C004C0043001201000200000F
:10027000004041233680000101020001120100020A
:10028000020000404123368000010102000100C14C
:100290008081C1080B000202020100090400000174
:1002A00002020000052400100105240101010424BC
:1002B0000206052406000107058103100040090419
:1002C0000100020A000000070502024000000705C5
:1002D0008302400000002A0CE80E131311241FBEF5
:1002E000CFEFDAE0DEBFCDBF11E0A0E0B1E0E2E9A0
:1002F000F8E202C005900D92A83EB107D9F713E0CD
:10030000A8EEB1E001C01D92A13CB107E1F712E0F7
:10031000CCEDD2E004C02297FE010E940C14C63D31
:10032000D107C9F70E946A0D0C9447140C94000081
:10033000CF93DF93BC018230910510F462E070E04E
:10034000A091BF03B091C003ED01E0E0F0E040E018
:1003500050E021C0888199818617970769F48A81C6
:100360009B81309719F09383828304C09093C003DC
:100370008093BF03FE0134C06817790738F4411534
:10038000510519F08417950708F4AC01FE018A8124
:100390009B819C01E9012097E9F641155105A9F1DE
:1003A000CA01861B970B049708F4BA01E0E0F0E05D
:1003B0002AC08D919C91119784179507F9F46417C1
:1003C000750781F412968D919C911397309719F0CF
:1003D0009383828304C09093C0038093BF03FD0185
:1003E00032964CC0CA01861B970BFD01E80FF91F1E
:1003F0006193719302978D939C9340C0FD0182811C
:1004000093819C01D9011097A1F68091BD03909131
:10041000BE03892B41F480917101909172019093F8
:10042000BE038093BD034091730150917401411547
:10043000510541F44DB75EB780916F019091700105
:10044000481B590B2091BD033091BE03CA01821B8A
:10045000930B8617970780F0AB014E5F5F4F8417B1
:10046000950750F0420F531F5093BE034093BD03B6
:10047000F9016193719302C0E0E0F0E0CF01DF91F8
:10048000CF910895CF93DF93009709F450C0EC010A
:1004900022971B821A82A091BF03B091C0031097CC
:1004A00009F140E050E0AC17BD0708F1BB83AA8317
:1004B000FE0121913191E20FF31FAE17BF0779F4CE
:1004C0008D919C911197280F391F2E5F3F4F3983D3
:1004D000288312968D919C9113979B838A83411553
:1004E000510571F4D093C003C093BF0320C012968E
:1004F0008D919C911397AD01009711F0DC01D3CF42
:10050000FA01D383C28321913191E20FF31FCE17F9
:10051000DF0769F488819981280F391F2E5F3F4FCB
:10052000FA01318320838A819B8193838283DF91C7
:10053000CF910895A0E0B0E0E0EAF2E00C9412144C
:100540006C01009729F4CB010E9498016C01C1C095
:100550008EEF882E8FEF982E8C0C9D1C8601060F37
:10056000171F0815190508F4B2C0F401A081B18164
:10057000A617B707B8F0A530B10508F4AAC0CD0199
:1005800004978617970708F4A4C01297A61BB70B09
:10059000F801A193B193D4016D937C93CF010E9494
:1005A000420297C07B01EA1AFB0AEEEFFFEFEE0E64
:1005B000FF1E36016A0E7B1EC091BF03D091C0039F
:1005C00044245524AA24BB244AC0C615D705E1F506
:1005D000488159814E155F05B8F1CA0104978E15FF
:1005E0009F05B0F41296A40FB51FF401B183A08348
:1005F0002A813B814114510431F0D20113963C937E
:100600002E93129766C03093C0032093BF0361C03E
:100610008A819B81F80193838283425050404E1916
:100620005F09518340834114510431F0D201139684
:100630001C930E93129704C01093C0030093BF0342
:10064000F4017183608345C088819981A816B90639
:1006500008F45C012E018A819B819C01E9012097AD
:1006600009F0B3CF8091BD039091BE038615970525
:10067000E9F4A616B706D0F4209173013091740105
:100680002115310541F42DB73EB780916F0190914E
:100690007001281B390B02171307C8F41093BE030F
:1006A0000093BD03D4016D937C9313C0CB010E94D2
:1006B0009801EC01009759F0F40140815181B60195
:1006C0000E946F03C6010E9442026E0102C0CC2448
:1006D000DD24C601CDB7DEB7E0E10C942E14FB019A
:1006E000DC0102C001900D9241505040D8F70895AE
:1006F000FB01DC0101900D920020E1F70895FB0160
:100700009F01E8944230C4F04532B4F44A3029F4F1
:1007100097FB1EF4909581959F4F642F77270E9439
:10072000F613805D8A330CF0895D8193CB010097CD
:10073000A1F716F45DE251931082C9010C94A00355
:10074000DC01FC01672F71917723E1F7329704C038
:100750007C916D9370836291AE17BF07C8F30895C3
:100760008EE090E09093EF028093EE028CE090E0B8
:100770009093F1028093F002A8EEB1E020E030E027
:1007800091E0F901E756FE4F80818C93F901EB5817
:10079000FE4F0190F081E02D1296FC93EE9311979D
:1007A00013961C92139714961C92149715961C92EC
:1007B000159716961C92169717961C9217971896CF
:1007C0001C92189719961C9219971A961C921A97B0
:1007D0001B961C921B971C961C921C97F7FF04C03B
:1007E0001A969C931A970AC03197329720F41B9659
:1007F0009C931B9703C01C969C931C972E5F3F4FA6
:100800001D962432310509F0BCCF089521E030E077
:100810000090EB0202C0220F331F0A94E2F780918E
:10082000EA02A82FB0E0A551BE4FEEEEF1E08C91A8
:1008300090E082239323892B19F081818F5F81833C
:100840008081882319F08181815081831D963D9696
:1008500082E0E83DF80759F7089582E190E090932F
:100860001D0380931C0383E190E090931F0380930A
:100870001E0384E190E0909321038093200385E19F
:1008800090E0909323038093220386E190E090937D
:1008900025038093240387E190E0909327038093BE
:1008A0002603109241031092400381E090E0909360
:1008B00043038093420382E090E09093450380934A
:1008C000440383E090E0909347038093460384E0E1
:1008D00090E0909349038093480385E090E09093E3
:1008E0004B0380934A0388E090E090933503809314
:1008F00034038CE090E090932D0380932C038FE0E1
:1009000090E090933703809336038DE090E09093CE
:100910003B0380933A0386E090E090932B0380930F
:100920002A0387E090E09093290380932803089599
:100930001F93182F60E00E94EE0A812F60E00E9452
:100940008B0B1F9108951F93182F61E00E94EE0AF0
:10095000812F60E00E948B0B1F9108958AE08093A5
:10096000D20299E09093D4022BE02093D30290938B
:10097000D5022093D7028093D6028093D802209389
:10098000DA029093D9022093DB029093DD028093E8
:10099000DC022093DE028093E0029093DF029093CA
:1009A000E1028093E3022093E2021092E4021092AB
:1009B000E5021092E6021092E7021092E80210920D
:1009C000E90289E00E9498048AE00E9498048BE082
:1009D0000E9498048EE00E94A30480E10E94A30478
:1009E00008951F93182F61E00E94EE0A812F61E0A5
:1009F0000E948B0B1F910895FF920F931F93DF931B
:100A0000CF9300D00F92CDB7DEB769837A838B8303
:100A1000142FF72E062F0E949804112339F08F2DE2
:100A20000E94A304802F0E94F10403C0802F0E9423
:100A3000A3040F900F900F90CF91DF911F910F9112
:100A4000FF900895CF93DF9389E00E9498048AE095
:100A50000E9498048BE00E949804C0E0D0E060916E
:100A6000D2027091D3028091D40241E00E94FC0432
:100A700062E370E080E090E00E942B0A6091DB026C
:100A80007091DC028091DD0241E00E94FC0462E38F
:100A900070E080E090E00E942B0A6091D502709196
:100AA000D6028091D70241E00E94FC0462E370E02C
:100AB00080E090E00E942B0A6091D8027091D902E8
:100AC0008091DA0241E00E94FC0462E370E080E081
:100AD00090E00E942B0A2196C430D10509F0BFCFC7
:100AE000C0E0D0E06091DE027091DF028091E00210
:100AF00041E00E94FC0464E670E080E090E00E9427
:100B00002B0A6091E1027091E2028091E30241E0E0
:100B10000E94FC0464E670E080E090E00E942B0AF2
:100B20002196C430D105F1F689E00E9498048AE04C
:100B30000E9498048BE00E949804DF91CF91089561
:100B400089E00E9498048AE00E9498048BE00E9449
:100B50009804809117038F5F66E00E94D7139093EB
:100B60001703992369F48091F001882349F060917B
:100B7000D2027091D3028091D40241E00E94FC0421
:100B800080911703813069F48091FD01882349F039
:100B90006091D5027091D6028091D70241E00E9407
:100BA000FC0480911703823069F480910A02882343
:100BB00049F06091D8027091D9028091DA0241E047
:100BC0000E94FC0480911703833069F4809117021E
:100BD000882349F06091DB027091DC028091DD0294
:100BE00041E00E94FC0480911703843069F48091F5
:100BF0002402882349F06091DE027091DF02809127
:100C0000E00241E00E94FC0480911703853069F402
:100C100080913102882349F06091E1027091E202F3
:100C20008091E30241E00E94FC0408951F93E0EFED
:100C3000F1E090E010E08081882331F08481882306
:100C400011F411E001C091E03D9682E0EA3DF80721
:100C500091F7992331F08EE061E00E948B0B5D9853
:100C600005C08EE060E00E948B0B5D9A112331F08D
:100C700080E161E00E948B0B289805C080E160E074
:100C80000E948B0B289A1F910895BF92CF92DF92FA
:100C9000EF92FF920F931F93CF93DF937C018B0111
:100CA000B62E862F0E949804CE2C8E2D0E9498047A
:100CB000802F60E00E94EE0A802F60E00E948B0B84
:100CC00062E070E080E090E00E942B0A802F0E949A
:100CD000BE0B20E0019709F421E0DD24D394D22259
:100CE0008C2D0E94A30462E070E080E090E00E94FE
:100CF0002B0AC9E9D1E0888199818E159F0551F0B1
:100D00008017910739F00E94BE0B20E0019709F48B
:100D100021E0D222229681E0CD3BD80761F78B2DCE
:100D20000E94BE0B20E0892B09F421E0D2228B2DFA
:100D30000E9498048C2D0E94980462E070E080E08C
:100D400090E00E942B0A8D2DDF91CF911F910F9182
:100D5000FF90EF90DF90CF90BF9008954F925F92F9
:100D60006F927F928F929F92AF92BF92CF92DF92BB
:100D7000EF92FF920F931F93DF93CF93CDB7DEB720
:100D800065970FB6F894DEBF0FBECDBF79E9E72EA9
:100D900071E0F72E5524539468E0662E712C6C0E8A
:100DA0007D1E4E010894811C911C5FE0A52EB12C84
:100DB000AC0EBD1EF70100811181F801EE0FFF1F7F
:100DC000E45EFC4FC080D180C801B6010E94450698
:100DD000482E882371F5C30160E071E00E9459122A
:100DE000C401B8014AE00E948C12C301B4010E9400
:100DF00022126FE071E00E9406128C01C501B6015B
:100E00004AE00E948C12C801B5010E94221265E1DD
:100E100071E00E940612BC0186E593E00E94210E5B
:100E2000C5010E94BD12C4010E94BD12C3010E94EF
:100E3000C31269E170E080E090E00E942B0A542028
:100E400082E090E0E80EF91E9DEBE91691E0F906CC
:100E500009F0B0CF852D65960FB6F894DEBF0FBEB2
:100E6000CDBFCF91DF911F910F91FF90EF90DF9059
:100E7000CF90BF90AF909F908F907F906F905F903A
:100E80004F9008950F931F93CF93DF93C9E9D1E05B
:100E900001E028813981C90106970397D8F02C30E9
:100EA0003105C1F02D303105A9F02F30310591F019
:100EB000F901EE0FFF1FE45EFC4F60817181C901F3
:100EC0000E944506182F69E170E080E090E00E94E2
:100ED0002B0A0123229681E0CD3BD807D1F6802F43
:100EE000DF91CF911F910F9108950E942D0464EF1F
:100EF00071E080E090E00E942B0A0E944207882364
:100F000089F00E94AE06882339F086E593E060E21E
:100F100071E00E94DB0D089586E593E069E471E0DD
:100F20000E94DB0D0895AF92BF92CF92DF92FF92A5
:100F30000F931F93CF93DF9308EE11E0C0E0D0E052
:100F40008DE0A82EB12CB1E0CB2ED12C8091EA02FD
:100F5000CA9DF001CB9DF00DDA9DF00D1124E851F2
:100F6000FE4FE80FF11DF3808F2D90E00090EB0213
:100F700002C0959587950A94E2F78170F8018683FF
:100F800080810E94BE0B9091EB02882351F4960160
:100F900002C0220F331F9A95E2F7C9019F2D982BAB
:100FA00009C0F60102C0EE0FFF1F9A95E2F79E2FCF
:100FB00090959F218091EA02CA9DF001CB9DF00D92
:100FC000DA9DF00D1124E851FE4FE80FF11D9383D7
:100FD0002196035F1F4FC231D10509F0B7CFDF91D2
:100FE000CF911F910F91FF90DF90CF90BF90AF9066
:100FF00008950E94050A20911A0330911B03621B79
:10100000730B709319036093180382E0683E7807AE
:1010100034F488EE92E0861B970B0E94840A0E94AB
:10102000050A70931B0360931A030895FF920F93B0
:101030001F93CF93DF938091EC029091ED02019684
:1010400063E270E00E94E3139093ED028093EC0260
:10105000009709F0ADC0E3EFF2E0C9EED1E040E067
:1010600010E0FF2400E08985882309F465C08F81A2
:10107000882309F461C0288139815FEF2F3F35074C
:10108000A1F4808191815FEF8B36950714F401E024
:101090003CC055E08C3D95070CF083C066E970E0DC
:1010A0000E94E313062F0F5F47C08FEF2E3F3807D4
:1010B000A9F4808191812FEF8B3692071CF4FF24D5
:1010C000F3943AC055E08C3D95070CF06CC066E98E
:1010D00070E00E94E313F62EF3942EC08FEF2D3FA5
:1010E000380799F4808191812FEF8B3692070CF4A9
:1010F0005DC055E08C3D95070CF051C066E970E08D
:101100000E94E313162F1F5F17C02C5F3F4FA1F4FF
:10111000808191812FEF8B36920714F441E00CC04F
:1011200055E08C3D950714F04AE006C066E970E092
:101130000E94E313462F4F5F32962D9683E0E731EE
:10114000F80709F090CF112329F0442339F4612FD7
:10115000619505C0442311F0642F01C060E0FF20B9
:1011600021F0002339F44F2D06C0002319F0402F41
:10117000419501C040E0662311F44423C9F070E0BA
:10118000660F771F660F771F50E0440F551F440FFF
:10119000551F85E593E020E00E941F0D09C01AE06D
:1011A000CBCF0AE0B2CF9AE0F92EC6CF11E0C4CF80
:1011B000DF91CF911F910F91FF900895CF93DF930F
:1011C0008091F2028823A9F1C9EED1E08A858823B3
:1011D00059F18F81882399F088819981019729F4A9
:1011E00085E593E061E00E944E0D88819981029728
:1011F000D9F485E593E062E00E944E0D15C0888524
:10120000882391F088819981019729F485E593E0FD
:1012100061E00E94460D88819981029729F485E555
:1012200093E062E00E94460D2D9682E0C33DD80710
:1012300069F6DF91CF910895FF920F931F93CF939B
:10124000DF931092F20203EF12E0C9EED1E0FF2427
:10125000F3948F8188872E81882321F130E080915B
:10126000F0029091F1022817390794F4F092F202FB
:101270001F828B85882329F086E593E068810E9490
:101280006B0C8985882309F1F801118210821DC039
:1012900089858823D1F0F80180819181019691831D
:1012A000808313C030E08091EE029091EF028217AC
:1012B00093075CF4F092F202FF828B85882329F079
:1012C00086E593E068810E94AE0C0E5F1F4F2D965D
:1012D000F3E007311F0709F0BCCFDF91CF911F91D9
:1012E0000F91FF9008950E9493070E940604809139
:1012F000EB028F5F8093EB02883059F41092EB027F
:101300008091EA028F5F8093EA02833011F4109299
:10131000EA020E941C090E94DE080E9416080E9430
:10132000A0050E9416060E94F9070895CF93DF9347
:10133000C9E9D1E0888160E00E94EE0A888160E01E
:101340000E948B0B229681E0CD3BD80799F786E56A
:1013500093E00E940B0C85E593E00E940A0CDF915C
:10136000CF9108950E94AE040E9496090E94B00396
:101370000E9475070E94220508951F920F920FB6D2
:101380000F9211242F933F938F939F93AF93BF930B
:101390008091500390915103A0915203B091530357
:1013A000309154030196A11DB11D232F2D5F2D37C0
:1013B00020F02D570196A11DB11D20935403809359
:1013C000500390935103A0935203B0935303809121
:1013D0004C0390914D03A0914E03B0914F030196A1
:1013E000A11DB11D80934C0390934D03A0934E0318
:1013F000B0934F03BF91AF919F918F913F912F91E8
:101400000F900FBE0F901F9018959FB7F8942091E2
:101410004C0330914D0340914E0350914F0386B5DC
:10142000A89B06C08F3F21F02F5F3F4F4F4F5F4F6C
:101430009FBF542F432F322F2227280F311D411DCC
:10144000511D82E0220F331F441F551F8A95D1F78B
:10145000B901CA0108959B01AC017FB7F89480914E
:101460004C0390914D03A0914E03B0914F0366B58C
:10147000A89B05C06F3F19F00196A11DB11D7FBF4C
:10148000BA2FA92F982F8827860F911DA11DB11D56
:1014900062E0880F991FAA1FBB1F6A95D1F7BC0194
:1014A0002DC0FFB7F89480914C0390914D03A0910B
:1014B0004E03B0914F03E6B5A89B05C0EF3F19F06E
:1014C0000196A11DB11DFFBFBA2FA92F982F882704
:1014D0008E0F911DA11DB11DE2E0880F991FAA1F5B
:1014E000BB1FEA95D1F7861B970B885E9340C8F225
:1014F000215030404040504068517C4F211531050B
:101500004105510571F60895019739F0880F991F2B
:10151000880F991F02970197F1F70895789484B581
:10152000826084BD84B5816084BD85B5826085BDDF
:1015300085B5816085BDEEE6F0E0808181608083C5
:10154000E1E8F0E0108280818260808380818160A8
:101550008083E0E8F0E0808181608083E1EBF0E06F
:10156000808184608083E0EBF0E080818160808313
:10157000E1E9F0E080818260808380818160808306
:10158000E0E9F0E0808181608083E1ECF0E080813F
:101590008460808380818260808380818160808399
:1015A000E3ECF0E0808181608083E0ECF0E080811A
:1015B00082608083E2ECF0E0808181608083EAE7F2
:1015C000F0E080818460808380818260808380817C
:1015D000816080838081806880830895CF93DF93CA
:1015E000482F50E0CA018C509F4FFC0134914A5261
:1015F0005F4FFA018491882369F190E0880F991F69
:10160000FC01E455FF4FA591B491FC01E654FF4F56
:10161000C591D491662351F42FB7F8948C91932FF0
:10162000909589238C93888189230BC0623061F463
:101630002FB7F8948C91932F909589238C93888160
:10164000832B88832FBF06C09FB7F8948C91832B80
:101650008C939FBFDF91CF9108958730C1F188307F
:1016600080F48330F9F0843030F4813029F1823015
:1016700009F050C024C08430C9F0863009F04AC057
:1016800022C08A3091F18B3030F4883031F18930CA
:1016900009F040C026C08C3091F18C3060F18E3062
:1016A000C9F533C0809180008F7703C0809180009E
:1016B0008F7D80938000089584B58F7702C084B5B4
:1016C0008F7D84BD08958091B0008F7703C0809195
:1016D000B0008F7D8093B0000895809190008F7747
:1016E00007C0809190008F7D03C080919000877F1C
:1016F0008093900008958091C0008F7703C08091FF
:10170000C0008F7D8093C00008958091C200877FC4
:101710008093C2000895FF920F931F93F62E482FD7
:1017200050E0CA018E5E9E4FFC012491CA018C508C
:101730009F4FFC0114914A525F4FFA01049100231C
:10174000C9F0222319F0822F0E942D0BE02FF0E028
:10175000EE0FFF1FE654FF4FA591B4919FB7F89489
:10176000FF2021F48C911095812302C08C91812B54
:101770008C939FBF1F910F91FF9008950F931F931C
:10178000482F50E0CA018E5E9E4FFC012491CA0191
:101790008C509F4FFC0104914A525F4FFA01149103
:1017A000112319F420E030E015C0222319F0822F14
:1017B0000E942D0B812F90E0880F991F88539F4F17
:1017C000FC01A591B4918C9120E030E0802311F0D0
:1017D00021E030E0C9011F910F910895FC01918132
:1017E0008081813A31F4913089F080E0933089F43E
:1017F0000DC0813269F49B3021F482818093BD0158
:1018000005C09A3029F482818093BE0181E0089559
:1018100080E0089508950895EF92FF920F931F932B
:101820008C01E62EDC01ED91FC910480F581E02D28
:101830000995F82ED801ED91FC910680F781E02DF5
:10184000C8016E2D09958F2D90E01F910F91FF908B
:10185000EF90089510925503109259031092580377
:101860008BEC91E090935703809356030895EF9289
:10187000FF920F931F93DF93CF930F92CDB7DEB7F5
:1018800089838B017A0184E0BE016F5F7F4F41E065
:1018900050E00E94070F84E4B801A7010E94070FDF
:1018A0000F90CF91DF911F910F91FF90EF900895CE
:1018B00082E048E050E00E94370C0895FC01168257
:1018C0001782108611861286138614823496BF0101
:1018D0000E94580C0895DC01683810F0685829C03F
:1018E000E62FF0E067FF13C0E058F04081E090E0A1
:1018F00002C0880F991FEA95E2F7809514962C9103
:101900001497282314962C93149760E012C0E45582
:10191000FE4F6491662319F420E030E01DC067FF9C
:1019200008C014968C9114978D7F14968C931497FD
:101930006F77FD0190E0662321F08681861709F418
:1019400016829F5F31969630B1F7CD011496BD0196
:101950000E94580C21E030E0C9010895CF93DF9335
:10196000DC01683810F0685825C0E62FF0E067FF0A
:1019700012C0E058F04081E090E002C0880F991F4B
:10198000EA95E2F714962C911497282B14962C9331
:10199000149760E00FC0E455FE4F64916623D9F1BF
:1019A00067FF08C014968C911497826014968C93EC
:1019B00014976F7716968C9116978617A9F117963C
:1019C0008C911797861781F118968C911897861726
:1019D00059F119968C911997861731F11A968C91B5
:1019E0001A97861709F11B968C911B978617E1F0C1
:1019F000ED01E0E0F0E09E2F8E81882321F4EA0FD4
:101A0000FB1F668306C09F5F31962196E630F10585
:101A100091F7963049F481E090E013969C938E9371
:101A2000129720E030E007C0CD011496BD010E945E
:101A3000580C21E030E0C901DF91CF910895DF9388
:101A4000CF9300D000D0CDB7DEB7FC018081898371
:101A50006A834B832C8381E0BE016F5F7F4F44E03C
:101A600050E00E94370C0F900F900F900F90CF9185
:101A7000DF910895FC018081681739F06083CF0100
:101A800060E040E020E00E941F0D0895FC01609599
:101A900020812623622F0E943A0D0895FC01862F93
:101AA0006081682BCF010E943A0D089580E86EE2B4
:101AB00071E045E650E00E94820E0895FC018081AD
:101AC0008F5F808380E863E971E049E150E00E9424
:101AD000820E0895CF93DF930E948E0A8AE693E0E8
:101AE0000E94E90E0E94B209C0E0D0E00E94730992
:101AF0002097E1F30E940000F9CFCF92DF92EF929E
:101B0000FF920F931F93CF93DF937C016B018A01A8
:101B1000C0E0D0E00FC0D6016D916D01D701ED910D
:101B2000FC910190F081E02DC7010995C80FD91FE4
:101B3000015010400115110571F7CE01DF91CF91D1
:101B40001F910F91FF90EF90DF90CF900895EF924B
:101B5000FF920F931F938C01DC01ED91FC9101909A
:101B6000F081E02D6DE009957C01D801ED91FC91AB
:101B70000190F081E02DC8016AE009959C012E0DCD
:101B80003F1DC9011F910F91FF90EF900895CF93D2
:101B9000DF93DB010D900020E9F71197A61BB70B2F
:101BA000EC01E881F9810280F381E02DAD01099516
:101BB000DF91CF910895EF92FF920F931F937C01D5
:101BC0000E94C70D8C01C7010E94A70D080F191FA5
:101BD000C8011F910F91FF90EF900895AF92BF92AF
:101BE000CF92DF92EF92FF920F931F93CF93DF93E9
:101BF0005C016B01EE24FF24C0E0D0E010C0D501F1
:101C0000ED91FC9100811181C601BE010E948011FD
:101C1000682FC501F8010995E80EF91E2196F60115
:101C200084819581C817D90750F3C701DF91CF91FF
:101C30001F910F91FF90EF90DF90CF90BF90AF90EA
:101C40000895EF92FF920F931F937C010E94EE0D77
:101C50008C01C7010E94A70D9C01200F311FC901F3
:101C60001F910F91FF90EF900895282F80916403AA
:101C70008823C1F057FF1AC015C0289890936303BA
:101C80008091F1008193E217F307B9F741155105EF
:101C900039F08091F200882319F48BE68093E800F4
:101CA000AFBF02C04FEF5FEFCA010895AFB7F8941E
:101CB00027702093E9008091F200282F30E024174C
:101CC00035070CF4A901FB019B01240F311D94E69B
:101CD000DACFDF93CF930F92CDB7DEB7BE016F5F40
:101CE0007F4F41E050E00E94350E019719F02FEF31
:101CF0003FEF03C08981282F30E0C9010F90CF91B9
:101D0000DF910895FF920F931F93F82E142F052F44
:101D10004091670350916803212F302FC901DC01E6
:101D2000FB016EEF29C0F7FE02C0949101C09081C3
:101D3000209165033091660324173507ACF4809138
:101D4000E8008570E1F38091E80082FF03C02FEF87
:101D50003FEF17C09093F100C90101968F73907007
:101D6000892B11F46093E8002F5F3F4F3093660397
:101D700020936503119731961097A9F6812F902F24
:101D80009C01C9011F910F91FF9008959C018091C2
:101D9000E80082FFFCCFF901260F311D03C08091BE
:101DA000F1008193E217F307D1F7289884E6809336
:101DB00063038BEF8093E800CB0108958093E900E3
:101DC0008091F200882319F08AE38093E800089557
:101DD00008951092640381E08093D70080EA809395
:101DE000D80082E189BD09B400FEFDCF61E070E05A
:101DF00080E090E00E942B0A80E98093D8008CE07C
:101E00008093E2001092E000559A209A08955F9224
:101E10006F927F928F929F92AF92BF92CF92DF92FA
:101E2000EF92FF920F931F93CF93DF93E82E842EB0
:101E3000752E80916403882371F18B01242F352F37
:101E4000C901EC017AEFF72E67E0962E9E2050E450
:101E5000552E8E2D90E040E2A42EB12CA822B9225E
:101E60003AE3632E20E4C22ED12CC822D92258C0D6
:101E70009FB7F8949092E9008091E80085FD02C038
:101E800020E004C08091F200252D281B9FBF222353
:101E900061F4FA9419F42FEF3FEF4DC061E070E068
:101EA00080E090E00E942B0A3BC0822F90E0C81790
:101EB000D9070CF42C2FC21BD1094FB7F89490927C
:101EC000E900A114B10421F406C01092F1002150E0
:101ED0002223D9F719C0E7FC03C0F801922F10C0E4
:101EE000C801322F06C0FC010196E491E093F10095
:101EF00031503323C1F706C081918093F100915096
:101F00009923D1F7020F111D8091E80085FF05C0CC
:101F1000209729F4C114D10411F06092E8004FBF5A
:101F2000209709F0A5CF5D9884E680936203282D61
:101F3000372DC9019C01C901DF91CF911F910F91EC
:101F4000FF90EF90DF90CF90BF90AF909F908F90D9
:101F50007F906F905F9008951F920F920FB60F922F
:101F600011241F932F933F934F935F936F937F930E
:101F70008F939F93AF93BF93EF93FF938091E10073
:101F80001092E100982F83FF0FC01092E90081E0CA
:101F90008093EB001092EC0082E38093ED001092AE
:101FA000640388E08093F00092FF36C083E0809362
:101FB000E9008091F200882349F08AE38093E800E9
:101FC00005C08FEA93E00E94561301C012E09FB74C
:101FD000F8941093E9008091F2009FBF882389F75D
:101FE00080916203882351F0809162038150809335
:101FF000620380916203882309F45D9A80916303F0
:10200000882351F080916303815080936303809112
:102010006303882309F4289AFF91EF91BF91AF9150
:102020009F918F917F916F915F914F913F912F91F0
:102030001F910F900FBE0F901F9018950F931F9335
:10204000DF93CF930F92CDB7DEB719828E010F5F6A
:102050001F4FC8010E947513C8010E945E0D89813F
:1020600090E00F90CF91DF911F910F9108951F92F3
:102070000F920FB60F921124EF92FF921F932F939E
:102080003F934F935F936F937F938F939F93AF9300
:10209000BF93EF93FF93DF93CF93CDB7DEB76197F5
:1020A000DEBFCDBF1092E9008091E80083FF0FC131
:1020B000FE0131969E01275F3F4F03C08091F100E2
:1020C0008193E217F307D1F7289884E6809363039E
:1020D00082EF8093E800998197FF05C08091E80026
:1020E00080FFFCCF03C08EEF8093E800292F30E003
:1020F000C90180769070892B09F0C2C08A8188233B
:1021000029F41092F1001092F100D6C0813009F448
:10211000D3C0833009F4D0C0853049F48091E80001
:1021200080FFFCCF8B8180688093E300C5C0863040
:1021300009F07CC01C81EF80F8841230C1F5109248
:10214000E9001092660310926503109268031092E2
:1021500067030E941E1099E0FE013996DF01292FC6
:102160001D922A95E9F799871A8791E09E8790E852
:10217000988B9AEF998B2091650330916603275FC6
:102180003F4F3C872B878D871092E90010926603A2
:1021900010926503F0926803E092670380E0BF014C
:1021A00049E050E00E94820E0E941E1085C01092ED
:1021B000E9001092660310926503F0926803E092C2
:1021C0006703123241F482E290E00E94560D892B9F
:1021D00009F476C071C0113079F488E0E816F10492
:1021E00019F481E08093690380916903882309F0E1
:1021F0006BC0EAE6F2E013C0133009F061C08B81D6
:10220000882319F4ECE2F2E00AC0823019F4E0E32A
:10221000F2E005C0813009F053C0E2E5F2E04491FC
:1022200080E8BF0150E00E94820E46C0873009F46A
:1022300047C0883021F481E08093F1003DC08930AF
:10224000D9F523703070232BD9F5EFE8F2E091E057
:1022500031E026E39093E9003093EB008491809382
:10226000EC002093ED009F5F3196953099F78EE753
:102270008093EA001092EA008B81809364031CC073
:102280008F8198851092E900109266031092650381
:1022900090936803809367038D81882329F4CE018E
:1022A00001960E94811306C0823051F4CE0101963E
:1022B0000E94EE0B882321F08EEF8093E80007C088
:1022C00081E28093EB0003C0ECE7F2E0A8CF6196D7
:1022D000DEBFCDBFCF91DF91FF91EF91BF91AF9165
:1022E0009F918F917F916F915F914F913F912F912E
:1022F0001F91FF90EF900F900FBE0F901F901895B9
:10230000FC01848195816817790748F40190F08178
:10231000E02D309721F0E60FF71F8081089580E0CF
:1023200008950F931F93CF93DF93EC018B016F5FA1
:102330007F4F888199810E949A02009711F480E072
:1023400005C0998388831B830A8381E0DF91CF9145
:102350001F910F910895CF93DF93EC0188819981AC
:10236000892B29F08A819B818617970760F4CE011B
:102370000E949111882341F08C819D81892B19F451
:10238000E881F981108281E0DF91CF910895EF9289
:10239000FF920F931F93CF93DF93EC017B016C812E
:1023A0007D81E114F104C1F04115510599F08A01D4
:1023B000060F171FB8010E94AB11882369F08881AE
:1023C00099812C813D81820F931FB7010E94780370
:1023D0001D830C8381E001C080E0DF91CF911F91CC
:1023E0000F91FF90EF900895CF93DF93EC018881D8
:1023F0009981009711F00E944202198218821D8271
:102400001C821B821A82DF91CF9108950F931F9334
:10241000182F092F6115710561F0DB010D90002067
:10242000E9F71197A61BB70BAD010E94C7118823CE
:1024300021F4812F902F0E94F411812F902F1F9152
:102440000F9108950F931F93182F092FFB0160819F
:102450007181448155810E94C711882321F4812F05
:10246000902F0E94F411812F902F1F910F910895AA
:10247000EF92FF920F931F93CF93DF93EC017B01B9
:102480008A01BA010E94AB11882321F4CE010E9477
:10249000F41107C01D830C8388819981B7010E94C4
:1024A0007803CE01DF91CF911F910F91FF90EF90B4
:1024B0000895CF93DF93EC01198218821B821A8250
:1024C0001D821C821E826115710551F0DB010D9089
:1024D0000020E9F71197A61BB70BAD010E94381237
:1024E000DF91CF9108950F931F93182F092F611536
:1024F000710559F0DB010D900020E9F71197A61B3B
:10250000B70BAD010E94381202C00E94F411812F56
:10251000902F1F910F910895EF92FF920F931F93A9
:10252000DF93CF93CDB7DEB762970FB6F894DEBFD7
:102530000FBECDBF8C01CB01F80111821082138236
:1025400012821582148216827E010894E11CF11C0D
:10255000B70150E00E947F03C801B7010E947312C7
:1025600062960FB6F894DEBF0FBECDBFCF91DF915C
:102570001F910F91FF90EF900895FC018081918150
:102580000E9442020895FC01808191810E944202D2
:1025900008952091AB033091AC038091AD039091ED
:1025A000AE03281B390B2F733070C9010895209199
:1025B000AB033091AC038091AD039091AE0328172B
:1025C000390719F42FEF3FEF09C0E091AD03F09107
:1025D000AE03E559FC4F8081282F30E0C9010895F2
:1025E0002091AB033091AC038091AD039091AE0389
:1025F0002817390719F42FEF3FEF13C0E091AD030F
:10260000F091AE03E559FC4F20818091AD0390918C
:10261000AE0301968F7390709093AE038093AD03D9
:1026200030E0C90108951092B2031092B10388EE10
:1026300093E0A0E0B0E08093B3039093B403A09341
:10264000B503B093B60389ED91E09093B003809306
:10265000AF0308950F931F93DF93CF930F92CDB7DE
:10266000DEB78C0169838091C601882369F083E01D
:10267000BE016F5F7F4F41E050E00E94070F1816C8
:10268000190614F49C0107C081E090E0F8019383DF
:10269000828320E030E0C9010F90CF91DF911F913C
:1026A0000F91089583E00E94DE0E089582E00E945B
:1026B000690E482F2091AB033091AC032F5F3F4F41
:1026C0002F7330708091AD039091AE0328173907B6
:1026D00059F0E091AB03F091AC03E559FC4F408316
:1026E0003093AC032093AB030895FC0180818E5F8F
:1026F000808380E863E972E042E450E00E94820E49
:102700000895FC0181819081913A59F4813209F058
:102710004CC080E06FEB71E047E050E00E94820E19
:1027200042C0913209F041C0803239F48FEB91E020
:1027300067E070E00E94C60E36C0823209F035C0F4
:1027400082818093C6018091BF019091C001A091C8
:10275000C101B091C201805B9440A040B04019F526
:102760008091C60180FD12C087E797E7909301082A
:10277000809300082BE088E190E00FB6F894A895CC
:10278000809360000FBE209360000DC088E10FB6FB
:10279000F89480936000109260000FBEA89510928C
:1027A00001081092000881E0089580E00895991BC7
:1027B00079E004C0991F961708F0961B881F7A9538
:1027C000C9F78095089597FB092E07260AD077FD53
:1027D00004D00CD006D000201AF4709561957F4F7C
:1027E0000895F6F7909581959F4F0895AA1BBB1BFE
:1027F00051E107C0AA1FBB1FA617B70710F0A61B01
:10280000B70B881F991F5A95A9F780959095BC0121
:10281000CD010895EE0FFF1F0590F491E02D09946E
:102820002F923F924F925F926F927F928F929F92E0
:10283000AF92BF92CF92DF92EF92FF920F931F93CE
:10284000CF93DF93CDB7DEB7CA1BDB0B0FB6F8947F
:10285000DEBF0FBECDBF09942A88398848885F84BF
:102860006E847D848C849B84AA84B984C884DF8030
:10287000EE80FD800C811B81AA81B981CE0FD11D14
:102880000FB6F894DEBF0FBECDBFED010895F894EA
:02289000FFCF78
:1028920074657374696E6720696E707574200020A8
:1028A2003D3D3E20002E2E2E204641494C454400FF
:1028B2004D614B6579204D614B65792073656C667E
:1028C2002D7465737420726573756C743A2050416F
:1028D20053534544203A2D29004D614B6579204DD3
:1028E200614B65792073656C662D74657374207213
:1028F2006573756C743A204641494C454421002069
:1029020000C1030000DA00D900D800D7002000017E
:1029120000770061007300640066006700FFFFFE3D
:10292200FFFDFFFCFF010002000C0008000D000F7C
:102932000007000600050004000300020001000079
:102942000017001600150014001300120001010008
:10295200E1000000000000000000000C0C7D0DAE44
:102962000C6B0C5E0C000000002A137D0DC912F0E6
:0829720012D712521356130094
:00000001FF

