:1070000055C000006EC000006CC000006AC00000E7
:1070100068C0000066C0000064C0000062C00000DC
:1070200060C000005EC00000E7C400005AC000005D
:1070300058C0000056C0000054C0000052C00000FC
:1070400050C00000DCC000004CC000004AC000007E
:1070500048C0000046C0000044C0000042C000001C
:1070600040C000003EC000003CC000003AC000002C
:1070700038C0000036C0000034C0000032C000003C
:1070800030C000002EC000002CC000002AC000004C
:1070900028C0000026C0000024C0000022C000005C
:1070A00020C000001EC000001CC0000011241FBE34
:1070B000CFEFDAE0DEBFCDBF11E0A0E0B1E0E2E16A
:1070C000FFE702C005900D92A03BB107D9F711E090
:1070D000A0EBB1E001C01D92A63CB107E1F785D35A
:1070E00016C78ECF84E08093E9000DC08091E80040
:1070F0008B778093E80003C08EB3882359F080918A
:10710000E80082FFF9CF8091E80085FFEFCF809102
:10711000F100089580E0089593E09093E900909144
:10712000E80095FD0DC09091E8009E779093E800EF
:1071300003C09EB3992369F09091E80090FFF9CFC6
:107140008093F1005D9884E690E09093B101809384
:10715000B0010895F89410926F001092810010927F
:1071600085001092840081E085BF15BE47985D9A26
:10717000289A0C94000008958091BA019091BB0167
:1071800001969093BB018093BA01292F97FF03C00A
:107190003EEF391B232F220F281710F4479808952C
:1071A000479A089584B7877F84BF88E10FB6F89423
:1071B00080936000109260000FBE90E880E00FB6F0
:1071C000F89490936100809361000FBE81E085BFC9
:1071D00082E085BF3F9A209A559AE1E6F0E09083DD
:1071E000108247985D9A289A109289009AEF90939E
:1071F000880080936F0083E080938100E5C31F9235
:107200000F920FB60F9211242F938F939F93EF93AA
:10721000FF9310928500109284008091B0019091AC
:10722000B101009741F001979093B1018093B001B3
:10723000009709F45D9A8091B2019091B301009793
:1072400041F001979093B3018093B201009709F444
:10725000289AE0E0F0E0859194912FEF8F3F92071C
:1072600049F08091B4019091B50101969093B501D8
:107270008093B401FF91EF919F918F912F910F9087
:107280000FBE0F901F90189582E061EC42E02FD363
:1072900083E061E842E12BD384E060E842E127C368
:1072A0008091BE01982F9F77913249F59091BF014F
:1072B0009032A1F0913219F5813A09F58091E800F8
:1072C000877F8093E8008DE091E067E070E045D42F
:1072D0008091E8008B778093E8000895813279F4FB
:1072E0008091E800877F8093E8008DE091E067E07F
:1072F00070E094D48091E8008E778093E800089540
:107300004F925F926F927F928F929F92AF92BF92B5
:10731000CF92DF92EF92FF920F931F93CF93DF9361
:1073200084E08093E9008091E80082FF4DC22898B4
:1073300084E690E09093B3018093B201D3DE182FDE
:10734000853481F484E699E19093B5018093B4018A
:1073500007B600FCFDCFF999FECF81E1809357007D
:10736000E89503C0843519F4BDDE8DE003C28C348A
:10737000E1F38035D1F3843721F484E4CDDE80E07D
:10738000F9C1813611F489E5F5C1813401F5AADE30
:10739000C82FA8DE282F30E0220F331F442737FDE7
:1073A0004095542F7C2F770F60E0CB01AA2797FDE3
:1073B000A095BA2F282B392B4A2B5B2B2093B60193
:1073C0003093B7014093B8015093B901CECF8037C5
:1073D00011F483E5CFC1833549F4C0E0D1E0899150
:1073E0009BDE41E0C730D407D1F7C5C1863521F413
:1073F00081E392DE80E3BEC1833731F487E88CDE1F
:1074000085E98ADE8EE1B6C18536F9F480E090E048
:10741000DC0133E025E0FC0130935700E89507B626
:1074200000FCFDCF20935700E89507B600FCFDCF88
:1074300080589F4FAF4FBF4F8030E0E79E07E0E09E
:10744000AE07E0E0BE0739F790CF823739F4E1E0CC
:10745000F0E089E08093570084918CC1863439F440
:10746000E0E0F0E089E080935700849183C18E349E
:1074700039F4E3E0F0E089E08093570084917AC129
:10748000813539F4E2E0F0E089E08093570084919F
:1074900071C1823631F489E53FDE80E03DDE80E86F
:1074A00069C1823419F0873609F0DAC01092B5014B
:1074B0001092B40117DEE82E15DEC82F13DED82E89
:1074C0008554823008F055C13E2D20E0D0E0C22B1B
:1074D000D32B10926F00173609F044C081E18093DE
:1074E0005700E895CC24BB24B39438C0E090B60193
:1074F000F090B7010091B8011091B901FD2DF6345B
:10750000B9F4EC2DF0E0EE29FF29849105DECC20C2
:1075100069F0D801C7010296A11DB11D8093B60183
:107520009093B701A093B801B093B901CB2415C0D3
:10753000D801C701B695A79597958795D2D4ECDD6C
:10754000D801C7010296A11DB11D8093B601909389
:10755000B701A093B801B093B9012197209709F022
:10756000C5CF7AC04090B6015090B7016090B80185
:107570007090B9014D2D463409F05AC083E0F201F4
:1075800080935700E89507B600FCFDCF51C0FD2D54
:10759000F63449F5CC2019F1E090B601F090B7012E
:1075A0000091B8011091B9019DDD982E88242B2DF2
:1075B00030E028293929F7010901A0925700E89500
:1075C0001124D801C7010296A11DB11D8093B601F7
:1075D0009093B701A093B801B093B90102C082DDC6
:1075E000B82ECA2423C0E090B601F090B7010091F4
:1075F000B8011091B90116950795F794E79472DDDB
:10760000682FC70176D48091B6019091B701A091FF
:10761000B801B091B9010296A11DB11D8093B601C8
:107620009093B701A093B801B093B901219704C01A
:10763000BB24CC24AA24A394209709F0A8CFFD2D25
:10764000F63441F485E0F20180935700E89507B6DF
:1076500000FCFDCF8DE060DD82E080936F008BC089
:10766000833471F4C091B601D091B7013BDD90E055
:1076700021E0FE010C0120935700E895112475CEFE
:107680008336A9F4E090B601F090B7010091B801FB
:107690001091B90127DDF701E16090E021E00C01D4
:1076A00020935700E8951124D801C70134C08D36C6
:1076B00061F4E091B601F091B70185E08093570045
:1076C000E89507B600FCFDCF50CE823551F4E0912D
:1076D000B601F091B701C591D4918D2F1DDD8C2F8E
:1076E00049C0843421F5E090B601F090B7010091D3
:1076F000B8011091B90116950795F794E794F2DC5B
:10770000682FC701F6D38091B6019091B701A0917F
:10771000B801B091B9010296A11DB11D8093B601C7
:107720009093B701A093B801B093B9011ECE8436EF
:10773000F1F4E090B601F090B7010091B80110911A
:10774000B901D801C701B695A79597958795C9D373
:10775000E3DCD801C7010296A11DB11D8093B601DB
:107760009093B701A093B801B093B90104C08B31D5
:1077700011F08FE3D1DC83E08093E9009091E80081
:107780008091E8008E778093E80095FF04C010C0D8
:107790008EB38823C9F08091E80080FFF9CF8091F3
:1077A000E8008E778093E80003C08EB3882361F0F1
:1077B0008091E80080FFF9CF84E08093E900809118
:1077C000E8008B778093E800DF91CF911F910F91B4
:1077D000FF90EF90DF90CF90BF90AF909F908F90F1
:1077E0007F906F905F904F900895209100083091A6
:1077F0000108109201081092000884B714BE98E1A5
:107800000FB6F89490936000109260000FBE90E065
:10781000FC01E270F07081FD1AC080FF06C0459146
:1078200054916FEF4F3F560789F483FF10C080914A
:10783000090190910A012817390749F0E0E0F0E0CA
:10784000859194912FEF8F3F920709F083DCAADC9A
:1078500078941092B5011092B4010DC051DD2FD370
:107860008091B4019091B5016BE18935960710F0D4
:107870001092140181DC80911401882379F78091A2
:10788000E00081608093E00065DC80E090E0089596
:10789000923029F0933041F0913061F410C02EE322
:1078A00030E087E291E01EC0882371F0813089F0DA
:1078B0008230A1F020E030E080E090E013C022E1CF
:1078C00030E085E191E00EC024E030E085E691E013
:1078D00009C028E130E089E691E004C02AE230E006
:1078E00083E891E0FA0191838083C9010895809330
:1078F000E900EBEEF0E0808181608083EDEEF0E066
:1079000010826093EC0040838091EE00881F8827EE
:10791000881F08958091BE0187FF11C003C08EB3F8
:107920008823B1F08091E80082FFF9CF8091E800D0
:107930008B778093E80008958EB3882349F0809177
:10794000E80080FFF9CF8091E8008E778093E8000F
:1079500008950F931F93CF93DF9341D048D0C8ED84
:10796000D0E088818F778883888180688883888148
:107970008F7D888319BC1EBA1092BC0100EE10E006
:10798000F80180818B7F808388818160888380E09B
:1079900060E042E0ACDFE1EEF0E080818E7F80834A
:1079A000E2EEF0E080818160808380818860808366
:1079B000F80180818E7F8083888180618883DF9158
:1079C000CF911F910F910895E7EDF0E080818160E4
:1079D00080838AE482BF81E08093BD01BACFE8ED65
:1079E000F0E080818E7F80831092E20008951092F3
:1079F000DA001092E10008951F920F920FB60F92D5
:107A000011242F933F934F935F936F937F938F93A3
:107A10009F93AF93BF93EF93FF938091DA0080FF22
:107A20001BC08091D80080FF17C08091DA008E7F44
:107A30008093DA008091D90080FF0BC080E189BD7E
:107A400082E189BD09B400FEFDCF81E08EBB36D254
:107A500003C019BC1EBA32D28091E10080FF17C06A
:107A60008091E20080FF13C08091E2008E7F8093BE
:107A7000E2008091E20080618093E2008091D80072
:107A800080628093D80019BC85E08EBB17D28091AC
:107A9000E10084FF2CC08091E20084FF28C080E1D7
:107AA00089BD82E189BD09B400FEFDCF8091D80077
:107AB0008F7D8093D8008091E1008F7E8093E100DC
:107AC0008091E2008F7E8093E2008091E2008160ED
:107AD0008093E2008091BC01882321F48091E3002F
:107AE00087FF02C084E001C081E08EBBE7D18091B6
:107AF000E10083FF21C08091E20083FF1DC08091DF
:107B0000E100877F8093E10082E08EBB1092BC0190
:107B10008091E1008E7F8093E1008091E2008E7F72
:107B20008093E2008091E20080618093E20080E037
:107B300060E042E0DCDEC2D1FF91EF91BF91AF91F6
:107B40009F918F917F916F915F914F913F912F9175
:107B50000F900FBE0F901F901895482F592FFA01C4
:107B60008091C4019091C5018617970718F4BC0154
:107B700040E03BC061157105D9F78091E8008E7730
:107B80008093E800F5CF8EB3882309F443C0853095
:107B9000E9F18091E80083FD3BC08091E80082FD1F
:107BA0002FC08091E80080FF20C09091F300809169
:107BB000F200392F20E090E0822B932B06C04191F8
:107BC0004093F1006150704001966115710519F004
:107BD00088309105A0F341E08830910509F040E03C
:107BE0008091E8008E778093E8006115710559F661
:107BF000442349F605C08EB3882361F0853061F0D7
:107C00008091E80082FFF7CF80E0089583E0089537
:107C100081E0089582E0089583E00895611571057B
:107C200051F524C04EB34423C9F1453099F1409138
:107C3000E80043FD31C04091E80042FFF3CFE82F58
:107C4000F92F07C08091F1008193CF0161507040FE
:107C500069F0CF015091F3004091F200352F20E000
:107C600050E0422B532B4115510561F74091E8003C
:107C70004B774093E80061157105A1F605C08EB3FE
:107C8000882361F0853061F08091E80080FFF7CFB4
:107C900080E0089583E0089581E0089582E00895EA
:107CA00083E008950F931F93DF93CF9300D0CDB758
:107CB000DEB7EEEBF1E08091F100819381E0E63CEC
:107CC000F807C9F7EDDA8091E80083FFE2C0809100
:107CD000BE019091BF01953009F46BC0963040F41D
:107CE000913061F1913070F0933009F0D2C026C02C
:107CF000983009F4A1C0993009F4B0C0963009F069
:107D0000C8C07AC0803809F4C4C0823809F0C1C044
:107D10008091C20187708093E9009091EB001092EE
:107D2000E9008091E800877F8093E80081E095FF7B
:107D300080E08093F1001092F10089C0882319F04F
:107D4000823009F0A6C08F71823009F0A2C0809104
:107D5000C001882341F52091C201277009F499C020
:107D60002093E9008091EB0080FF1DC08091BF014E
:107D7000833021F48091EB00806213C08091EB008E
:107D800080618093EB0081E090E002C0880F991F32
:107D90002A95E2F78093EA001092EA008091EB00C6
:107DA00088608093EB001092E9008091E800877F63
:107DB00051C0882309F06DC01091C0011F770FB723
:107DC000F8948091E800877F8093E800A3DD80919C
:107DD000E80080FFFCCF8091E3008078812B8093C6
:107DE000E30080688093E300112311F083E001C079
:107DF00082E08EBB0FBF4DC08058823008F049C072
:107E00008091C0019091C1016091C201AE014F5FAC
:107E10005F4F3EDDBC01009709F43BC08091E80054
:107E2000877F8093E80089819A8197DE8091E800BE
:107E30008B778093E8002DC0803859F58091E80059
:107E4000877F8093E8008091BC018093F10080914E
:107E5000E8008E778093E8005DDD1BC08823C9F4BD
:107E60009091C0019230A8F48091E800877F8093C0
:107E7000E8009093BC014EDD8091BC01882321F481
:107E80008091E30087FF02C084E001C081E08EBBE7
:107E9000FBD98091E80083FF0AC08091EB008062EB
:107EA0008093EB008091E800877F8093E8000F903B
:107EB0000F90CF91DF911F910F9108950895CF9367
:107EC0008EB3882361F0C091E900C7701092E90079
:107ED0008091E80083FF01C0E5DEC093E900CF9107
:107EE0000895F999FECF92BD81BDF89A992780B582
:107EF0000895262FF999FECF1FBA92BD81BD20BDEE
:107F00000FB6F894FA9AF99A0FBE01960895F8946C
:027F1000FFCFA1
:107F12004341544552494E41007777000800000022
:107F2200000000080112011001020000084F1B743A
:107F32002B01000201000109023E00020100803211
:107F420009040000010202010005240010010424BA
:107F520002040524060001070582030800FF090444
:107F62000100020A000000070504021000010705D3
:107F720083021000010403090418034D0061004B41
:107F8200006500790020004D0061004B006500791A
:107F92000000002A0353007000610072006B00466B
:107FA2000075006E00200045006C006500630074DF
:107FB2000072006F006E0069006300730000000031
:040000030000700089
:100000000C946E010C9496010C9496010C9496013C
:100010000C9496010C9496010C9496010C94960104
:100020000C9496010C9496010C94A1120C942C1330
:100030000C9496010C9496010C9496010C949601E4
:100040000C9496010C9496010C9496010C949601D4
:100050000C9496010C9496010C9496010C942D0B23
:100060000C9496010C9496010C9496010C949601B4
:100070000C9496010C9496010C9496010C949601A4
:100080000C9496010C9496010C9496010C94960194
:100090000C9496010C9496010C9496010C94960184
:1000A0000C9496010C9496010C94960100000000AB
:1000B000240027002A002D00300000000000250049
:1000C00028002B002E003100000000002300260035
:1000D00029002C002F000404040404030405020278
:1000E00002020403020202020606060606060404D1
:1000F00002020204040802011040804010204080E7
:10010000408008020401804020100201108010206D
:1001100040400000000200080E0000030401000B34
:100120000000070605040100080A0B0C0D09080B66
:1001300000020202010009040000010202000005A1
:1001400024001001052401010104240206052406EF
:1001500000010705810310004009040100020A00A4
:10016000000007050202400000070583024000006E
:1001700005010902A1010901A10085010509190173
:100180002903150025019503750181029501750567
:10019000810305010930093109381581257F75086A
:1001A00095038106C0C005010906A1018502050766
:1001B00019E029E7150025017501950881029501CF
:1001C0007508810395067508150025650507190052
:1001D00029658100C0090402000103000000092113
:1001E00001010001226500070584034000010000B1
:1001F0000000000000002A2B280000000000000082
:1002000000000000000000000000000000002C9E24
:10021000B4A0A1A2A434A6A7A5AE362D3738271EB8
:100220001F20212223242526B333B62EB7B89F845E
:1002300085868788898A8B8C8D8E8F9091929394F6
:1002400095969798999A9B9C9D2F3130A3AD350434
:1002500005060708090A0B0C0D0E0F1011121314D6
:1002600015161718191A1B1C1DAFB1B0B5000403E1
:1002700009042203410072006400750069006E00E9
:100280006F0020004C0065006F006E00610072007E
:1002900064006F001803410072006400750069007B
:1002A0006E006F0020004C004C0043001201000261
:1002B00000000040412336800001010200011201CC
:1002C00000020200004041233680000101020001CB
:1002D00000C18081C100B80DB80EDD1111241FBE10
:1002E000CFEFDAE0DEBFCDBF11E0A0E0B1E0E4E2A5
:1002F000FEE202C005900D92A83CB107D9F713E0C9
:10030000A8ECB1E001C01D92A038B107E1F712E0FE
:10031000CCEDD2E004C02297FE010E94D516C63D66
:10032000D107C9F70E94F80F0C9410170C94000025
:10033000CF93DF93BC018230910510F462E070E04E
:10034000A0917E03B0917F03ED01E0E0F0E040E09A
:1003500050E021C0888199818617970769F48A81C6
:100360009B81309719F09383828304C090937F031D
:1003700080937E03FE0134C06817790738F4411575
:10038000510519F08417950708F4AC01FE018A8124
:100390009B819C01E9012097E9F641155105A9F1DE
:1003A000CA01861B970B049708F4BA01E0E0F0E05D
:1003B0002AC08D919C91119784179507F9F46417C1
:1003C000750781F412968D919C911397309719F0CF
:1003D0009383828304C090937F0380937E03FD0107
:1003E00032964CC0CA01861B970BFD01E80FF91F1E
:1003F0006193719302978D939C9340C0FD0182811C
:1004000093819C01D9011097A1F680917C03909172
:100410007D03892B41F48091520190915301909377
:100420007D0380937C034091540150915501411507
:10043000510541F44DB75EB7809150019091510143
:10044000481B590B20917C0330917D03CA01821B0C
:10045000930B8617970780F0AB014E5F5F4F8417B1
:10046000950750F0420F531F50937D0340937C0338
:10047000F9016193719302C0E0E0F0E0CF01DF91F8
:10048000CF910895CF93DF93009709F450C0EC010A
:1004900022971B821A82A0917E03B0917F0310974E
:1004A00009F140E050E0AC17BD0708F1BB83AA8317
:1004B000FE0121913191E20FF31FAE17BF0779F4CE
:1004C0008D919C911197280F391F2E5F3F4F3983D3
:1004D000288312968D919C9113979B838A83411553
:1004E000510571F4D0937F03C0937E0320C0129610
:1004F0008D919C911397AD01009711F0DC01D3CF42
:10050000FA01D383C28321913191E20FF31FCE17F9
:10051000DF0769F488819981280F391F2E5F3F4FCB
:10052000FA01318320838A819B8193838283DF91C7
:10053000CF910895A0E0B0E0E0EAF2E00C94DB1681
:100540006C01009729F4CB010E9498016C01C1C095
:100550008EEF882E8FEF982E8C0C9D1C8601060F37
:10056000171F0815190508F4B2C0F401A081B18164
:10057000A617B707B8F0A530B10508F4AAC0CD0199
:1005800004978617970708F4A4C01297A61BB70B09
:10059000F801A193B193D4016D937C93CF010E9494
:1005A000420297C07B01EA1AFB0AEEEFFFEFEE0E64
:1005B000FF1E36016A0E7B1EC0917E03D0917F0321
:1005C00044245524AA24BB244AC0C615D705E1F506
:1005D000488159814E155F05B8F1CA0104978E15FF
:1005E0009F05B0F41296A40FB51FF401B183A08348
:1005F0002A813B814114510431F0D20113963C937E
:100600002E93129766C030937F0320937E0361C0C0
:100610008A819B81F80193838283425050404E1916
:100620005F09518340834114510431F0D201139684
:100630001C930E93129704C010937F0300937E03C4
:10064000F4017183608345C088819981A816B90639
:1006500008F45C012E018A819B819C01E9012097AD
:1006600009F0B3CF80917C0390917D0386159705A7
:10067000E9F4A616B706D0F4209154013091550143
:100680002115310541F42DB73EB78091500190916D
:100690005101281B390B02171307C8F410937D036F
:1006A00000937C03D4016D937C9313C0CB010E9413
:1006B0009801EC01009759F0F40140815181B60195
:1006C0000E948D03C6010E9442026E0102C0CC242A
:1006D000DD24C601CDB7DEB7E0E10C94F716FC01CE
:1006E00088279927E89421912032E9F3293010F0E6
:1006F0002E30C8F32B3241F02D3239F4689404C007
:100700000E94DD03820F911D219120532A30C0F3F6
:100710001EF4909581959F4F0895FB01DC0102C066
:1007200001900D9241505040D8F70895FB01DC0133
:100730008D91019080190110D9F3990B0895FB0157
:10074000DC0101900D920020E1F70895FB01DC012E
:100750004150504030F08D910190801919F40020E3
:10076000B9F7881B990B0895FB01DC0141505040FB
:1007700048F001900D920020C9F701C01D92415030
:100780005040E0F70895FB0151915523A9F0BF01B6
:10079000DC014D9145174111E1F759F4CD0101906C
:1007A000002049F04D9140154111C9F3FB01411161
:1007B000EFCF81E090E0019708957AE0979F902D28
:1007C000879F802D910D112408958EE090E09093E5
:1007D000CF028093CE028CE090E09093D102809380
:1007E000D002A8ECB1E020E030E091E0F901E65859
:1007F000FE4F80818C93F901EA5AFE4F0190F081FF
:10080000E02D1296FC93EE93119713961C9213977A
:1008100014961C92149715961C92159716961C9276
:10082000169717961C92179718961C921897199658
:100830001C9219971A961C921A971B961C921B973A
:100840001C961C921C97F7FF04C01A969C931A974B
:100850000AC03197329720F41B969C931B9703C0D4
:100860001C969C931C972E5F3F4F1D96243231059A
:1008700009F0BCCF089521E030E00090CB0202C027
:10088000220F331F0A94E2F78091CA02A82FB0E02A
:10089000A553BE4FEEECF1E08C9190E082239323C0
:1008A000892B19F081818F5F81838081882319F0E2
:1008B0008181815081831D963D9682E0E83BF80757
:1008C00059F70895EF92FF920F931F937C010CEF5D
:1008D00012E08FE0F80111928A95E9F788E593E03C
:1008E0006AE0A8012FE030E00E94F510C701B801CE
:1008F0000E94E115C7011F910F91FF90EF9008959D
:10090000EF92FF920F931F93DF93CF93CDB7DEB794
:10091000FC01EDB6FEB6448155814F5F5F4F8DB748
:100920009EB7841B950B0FB6F8949EBF0FBE8DBF6C
:100930000DB71EB70F5F1F4FCF01B80120E030E0A9
:100940000E94A914C8010E946F030FB6F894FEBE5E
:100950000FBEEDBECF91DF911F910F91FF90EF90F1
:1009600008951F93182F60E00E946C0C812F60E0A7
:100970000E94090D1F9108951F93182F61E00E9496
:100980006C0C812F60E00E94090D1F9108958AE090
:100990008093B20299E09093B4022BE02093B302CB
:1009A0009093B5022093B7028093B6028093B80269
:1009B0002093BA029093B9022093BB029093BD0298
:1009C0008093BC022093BE028093C0029093BF022A
:1009D0009093C1028093C3022093C2021092C4027A
:1009E0001092C5021092C6021092C7021092C8025D
:1009F0001092C90289E00E94B1048AE00E94B10409
:100A00008BE00E94B1048EE00E94BC0480E10E9451
:100A1000BC0408951F93182F61E00E946C0C812F75
:100A200061E00E94090D1F910895FF920F931F939B
:100A3000DF93CF9300D00F92CDB7DEB769837A836F
:100A40008B83142FF72E062F0E94B104112339F047
:100A50008F2D0E94BC04802F0E940A0503C0802FA6
:100A60000E94BC040F900F900F90CF91DF911F91C7
:100A70000F91FF9008958630910510F080E0089561
:100A8000FC01EE0FFF1FE80FF91FEE54FD4F6081D0
:100A90007181828140E00E94150581E008958630D1
:100AA000910510F080E00895FC01EE0FFF1FE80FA4
:100AB000F91FEE54FD4F60817181828141E00E94F7
:100AC000150581E00895CF93DF9389E00E94B1047A
:100AD0008AE00E94B1048BE00E94B104C0E0D0E043
:100AE0006091B2027091B3028091B40241E00E9421
:100AF000150562E370E080E090E00E94A90B609130
:100B0000BB027091BC028091BD0241E00E941505BC
:100B100062E370E080E090E00E94A90B6091B50272
:100B20007091B6028091B70241E00E94150562E320
:100B300070E080E090E00E94A90B6091B802709193
:100B4000B9028091BA0241E00E94150562E370E0AB
:100B500080E090E00E94A90B2196C430D10509F0F5
:100B6000BFCFC0E0D0E06091BE027091BF02809123
:100B7000C00241E00E94150564E670E080E090E06C
:100B80000E94A90B6091C1027091C2028091C302C0
:100B900041E00E94150564E670E080E090E00E946C
:100BA000A90B2196C430D105F1F689E00E94B10469
:100BB0008AE00E94B1048BE00E94B104DF91CF91E2
:100BC000089589E00E94B1048AE00E94B1048BE09C
:100BD0000E94B1048091F7028F5F66E00E94A01628
:100BE0009093F702992369F48091D001882349F00A
:100BF0006091B2027091B3028091B40241E00E9410
:100C000015058091F702813069F48091DD01882318
:100C100049F06091B5027091B6028091B70241E04F
:100C20000E9415058091F702823069F48091EA01F3
:100C3000882349F06091B8027091B9028091BA029C
:100C400041E00E9415058091F702833069F480919C
:100C5000F701882349F06091BB027091BC0280913A
:100C6000BD0241E00E9415058091F702843069F4CD
:100C700080910402882349F06091BE027091BF0206
:100C80008091C00241E00E9415058091F7028530F5
:100C900069F480911102882349F06091C10270913A
:100CA000C2028091C30241E00E94150508951F937E
:100CB000E0EDF1E090E010E08081882331F0848164
:100CC000882311F411E001C091E03D9682E0EA3BF7
:100CD000F80791F7992331F08EE061E00E94090D49
:100CE0005D9805C08EE060E00E94090D5D9A1123B9
:100CF00031F080E161E00E94090D289805C080E193
:100D000060E00E94090D289A1F910895BF92CF922A
:100D1000DF92EF92FF920F931F93CF93DF937C01AB
:100D20008B01B62E862F0E94B104CE2C8E2D0E94F0
:100D3000B104802F60E00E946C0C802F60E00E9464
:100D4000090D802F0E943C0D20E0019709F421E05D
:100D5000DD24D394D2228C2D0E94BC0462E070E08A
:100D600080E090E00E94A90BCAE7D1E088819981D8
:100D70008E159F0551F08017910739F00E943C0DA8
:100D800020E0019709F421E0D222229681E0CE39B9
:100D9000D80761F78B2D0E943C0D20E0892B09F4C8
:100DA00021E0D2228B2D0E94B1048C2D0E94B1042F
:100DB0008D2DDF91CF911F910F91FF90EF90DF90DC
:100DC000CF90BF9008958F929F92AF92BF92CF9293
:100DD000DF92EF92FF920F931F93DF93CF93CDB7E4
:100DE000DEB7CA59D0400FB6F894DEBF0FBECDBFF4
:100DF0004C018E010F5F1F4FC80160E071E00E943F
:100E0000E115C401B8010E941C15F82EC8010E940A
:100E10009416FF20B1F18E01085F1F4FC80167E0F3
:100E200071E00E94E115C401B8010E94A414EEE42F
:100E3000EE2EF12CEC0EFD1EAC014F5F5F4FC70193
:100E4000B4010E945B16C8010E9494168E01015FD6
:100E50001F4FC801B7010E947E16C8010E9480047E
:100E60007C01C8010E949416C7010E944F05882387
:100E700021F08E010A5E1F4F47C08E01035E1F4F97
:100E8000CEC08E010C5D1F4FC80163E271E00E946D
:100E9000E115C401B8010E941C15F82EC8010E947A
:100EA0009416FF20E9F18E01055D1F4FC80167E030
:100EB00071E00E94E115C401B8010E94A4147EE40F
:100EC000E72EF12CEC0EFD1EAC014F5F5F4FC7010A
:100ED000B4010E945B16C8010E9494168E010E5C3C
:100EE0001F4FC801B7010E947E16C8010E948004EE
:100EF0007C01C8010E949416C7010E943B0588230B
:100F000059F08E01075C1F4FC801B4010E94891679
:100F1000C80169E071E08AC08E01005C1F4F7FC08C
:100F20008E01095B1F4FC8016BE271E00E94E11561
:100F3000C401B8010E941C15F82EC8010E94941625
:100F4000FF2009F483C08E010B5A1F4FC80167E0D0
:100F500071E00E94E115C401B8010E94A4146EE47E
:100F6000C62ED12CCC0EDD1EAC014F5F5F4FC601EB
:100F7000B4010E945B16C8010E9494165CE5E52E40
:100F8000F12CEC0EFD1EC70164E371E00E94E11537
:100F9000C601B7010E94A4149C018E010D591F4F78
:100FA000C801B60140E050E00E941416C8010E943A
:100FB00080045C01C8010E949416C7010E94941627
:100FC0004AE6E42EF12CEC0EFD1EC70164E371E04D
:100FD0000E94E115C601B7010E94A4148E010F58AA
:100FE0001F4FAC014F5F5F4FC801B6010E945B16F7
:100FF000C8010E9480046C01C8010E949416C701B8
:101000000E949416C501B6010E948606882321F02D
:101010008E0108581F4F78CF8E0101581F4FC8010D
:10102000B4010E948916C80166E171E00E94A4150E
:10103000BC0188E593E00E94AF10C8010E949A1697
:10104000CE01825B9F4F0E94941630C08E010A57DA
:101050001F4FC80166E371E00E94E115C401B801A9
:101060000E941C15F82EC8010E949416FF20B9F0AA
:101070000E9463058E0103571F4FC801B4010E94EF
:101080008916C80169E071E00E94A415BC0188E5D9
:1010900093E00E94AF10C8010E949A1607C0C401D5
:1010A0006CE371E00E94D614882311F481E015C02E
:1010B0008E010C561F4FC801B4010E948916C80149
:1010C00069E071E00E94A415BC0188E593E00E94EC
:1010D000AF10C8010E949A1680E0C656DF4F0FB6C7
:1010E000F894DEBF0FBECDBFCF91DF911F910F915E
:1010F000FF90EF90DF90CF90BF90AF909F908F9038
:101100000895AF92BF92CF92DF92FF920F931F93F9
:10111000DF93CF93CDB7DEB72E970FB6F894DEBF2F
:101120000FBECDBF00E010E0FF246E010894C11C8B
:10113000D11CF8E0AF2EB12CAC0EBD1E32C088E53C
:1011400093E00E946E0D181619061CF5C6010E9448
:101150006204C60161E471E00E94D614882359F04C
:1011600088E593E067E471E00E94691009EE13E0FE
:10117000FF24F3940BC0C501B6010E947E16C50181
:101180000E94E306F82EC5010E949416C6010E9433
:10119000941661E070E080E090E00E94A90B0F5F80
:1011A0001F4FFF2061F683E0083E180744F22E9699
:1011B0000FB6F894DEBF0FBECDBFCF91DF911F9168
:1011C0000F91FF90DF90CF90BF90AF900895AF92B6
:1011D000BF92CF92DF92FF920F931F93CF93DF9333
:1011E00008EC11E0C0E0D0E0BDE0AB2EB12CA1E0F6
:1011F000CA2ED12C8091CA02CA9DF001CB9DF00D60
:10120000DA9DF00D1124E853FE4FE80FF11DF38035
:101210008F2D90E00090CB0202C0959587950A949F
:10122000E2F78170F801868380810E943C0D9091E5
:10123000CB02882351F4960102C0220F331F9A95E6
:10124000E2F7C9019F2D982B09C0F60102C0EE0FED
:10125000FF1F9A95E2F79E2F90959F218091CA02D9
:10126000CA9DF001CB9DF00DDA9DF00D1124E853DD
:10127000FE4FE80FF11D93832196035F1F4FC2318C
:10128000D10509F0B7CFDF91CF911F910F91FF905A
:10129000DF90CF90BF90AF90089588E593E00E94D3
:1012A0006D0D08950F931F9308E513E0C80160E8E2
:1012B00075E20E946C0DC80144E650E060E070E009
:1012C0000E94C3101F910F9108950E94830B2091DB
:1012D000FA023091FB02621B730B7093F902609368
:1012E000F80282E0683E780734F488EE92E0861BCC
:1012F000970B0E94020C0E94830B7093FB02609379
:10130000FA020895FF920F931F93CF93DF9380917A
:10131000CC029091CD02019663E270E00E94AC167F
:101320009093CD028093CC02009709F0ADC0E3ED1D
:10133000F2E0C9ECD1E040E010E0FF2400E0898554
:10134000882309F465C08F81882309F461C028814E
:1013500039815FEF2F3F3507A1F4808191815FEFE5
:101360008B36950714F401E03CC055E08C3D9507A1
:101370000CF083C066E970E00E94AC16062F0F5F88
:1013800047C08FEF2E3F3807A9F4808191812FEF5E
:101390008B3692071CF4FF24F3943AC055E08C3D41
:1013A00095070CF06CC066E970E00E94AC16F62E52
:1013B000F3942EC08FEF2D3F380799F480819181EF
:1013C0002FEF8B3692070CF45DC055E08C3D9507EE
:1013D0000CF051C066E970E00E94AC16162F1F5F3A
:1013E00017C02C5F3F4FA1F4808191812FEF8B3686
:1013F000920714F441E00CC055E08C3D950714F0C1
:101400004AE006C066E970E00E94AC16462F4F5FC6
:1014100032962D9682E0E73FF80709F090CF11232E
:1014200029F0442339F4612F619505C0442311F05C
:10143000642F01C060E0FF2021F0002339F44F2D1C
:1014400006C0002319F0402F419501C040E06623FB
:1014500011F44423C9F070E0660F771F660F771F01
:1014600050E0440F551F440F551F86E693E020E0DF
:101470000E94AD0F09C01AE0CBCF0AE0B2CF8AE0DC
:10148000F82EC6CF11E0C4CFDF91CF911F910F91FD
:10149000FF900895CF93DF938091D2028823A9F122
:1014A000C9ECD1E08A85882359F18F81882399F08E
:1014B00088819981019729F486E693E061E00E9492
:1014C000DC0F888199810297D9F486E693E062E087
:1014D0000E94DC0F15C08885882391F0888199814E
:1014E000019729F486E693E061E00E94D40F888199
:1014F0009981029729F486E693E062E00E94D40F76
:101500002D9682E0C33BD80769F6DF91CF9108950D
:10151000FF920F931F93CF93DF931092D20203EDAC
:1015200012E0C9ECD1E0FF24F3948F8188872E81EB
:10153000882321F130E08091D0029091D1022817C8
:10154000390794F4F092D2021F828B85882329F008
:1015500087E693E068810E94F90E8985882309F166
:10156000F801118210821DC089858823D1F0F8010D
:101570008081918101969183808313C030E08091B6
:10158000CE029091CF02821793075CF4F092D202C0
:10159000FF828B85882329F087E693E068810E948B
:1015A0003C0F0E5F1F4F2D96F2E0073F1F0709F01B
:1015B000BCCFDF91CF911F910F91FF9008950E94B2
:1015C000E7080E943B048091CB028F5F8093CB029F
:1015D000883059F41092CB028091CA028F5F8093B9
:1015E000CA02833011F41092CA020E94880A0E9433
:1015F0004A0A0E9482090E94E1050E9457060E9441
:1016000065090895CF93DF93CAE7D1E0888160E050
:101610000E946C0C888160E00E94090D229681E096
:10162000CE39D80799F787E693E00E94990E86E6AF
:1016300093E00E94980EDF91CF9108950E94C70415
:101640000E9452090E9481080E944D090E94630570
:101650000E94020B0E94E50308951F920F920FB69D
:101660000F9211242F933F938F939F93AF93BF9328
:1016700080910F0390911003A0911103B091120378
:10168000309113030196A11DB11D232F2D5F2D371E
:1016900020F02D570196A11DB11D209313038093B7
:1016A0000F0390931003A0931103B0931203809142
:1016B0000B0390910C03A0910D03B0910E030196C2
:1016C000A11DB11D80930B0390930C03A0930D03F8
:1016D000B0930E03BF91AF919F918F913F912F9146
:1016E0000F900FBE0F901F9018958FB7F894209110
:1016F0000F033091100340911103509112038FBFDB
:10170000B901CA0108959FB7F89420910B03309155
:101710000C0340910D0350910E0386B5A89B06C0A3
:101720008F3F21F02F5F3F4F4F4F5F4F9FBF542F91
:10173000432F322F2227280F311D411D511D82E0DA
:10174000220F331F441F551F8A95D1F7B901CA01D3
:1017500008959B01AC017FB7F89480910B039091A1
:101760000C03A0910D03B0910E0366B5A89B05C0B4
:101770006F3F19F00196A11DB11D7FBFBA2FA92F90
:10178000982F8827860F911DA11DB11D62E0880F3B
:10179000991FAA1FBB1F6A95D1F7BC012DC0FFB7C7
:1017A000F89480910B0390910C03A0910D03B091DC
:1017B0000E03E6B5A89B05C0EF3F19F00196A11DE9
:1017C000B11DFFBFBA2FA92F982F88278E0F911D0B
:1017D000A11DB11DE2E0880F991FAA1FBB1FEA954A
:1017E000D1F7861B970B885E9340C8F2215030409A
:1017F0004040504068517C4F21153105410551054D
:1018000071F60895019739F0880F991F880F991F75
:1018100002970197F1F70895789484B5826084BDAA
:1018200084B5816084BD85B5826085BD85B58160E4
:1018300085BDEEE6F0E0808181608083E1E8F0E044
:101840001082808182608083808181608083E0E873
:10185000F0E0808181608083E1EBF0E08081846052
:101860008083E0EBF0E0808181608083E1E9F0E05B
:10187000808182608083808181608083E0E9F0E004
:10188000808181608083E1ECF0E0808184608083EE
:10189000808182608083808181608083E3ECF0E0DE
:1018A000808181608083E0ECF0E0808182608083D1
:1018B000E2ECF0E0808181608083EAE7F0E0808103
:1018C0008460808380818260808380818160808366
:1018D0008081806880830895CF93DF93482F50E004
:1018E000CA018C509F4FFC0134914A525F4FFA015C
:1018F0008491882369F190E0880F991FFC01E455D9
:10190000FF4FA591B491FC01E654FF4FC591D491CE
:10191000662351F42FB7F8948C91932F90958923D7
:101920008C93888189230BC0623061F42FB7F894BF
:101930008C91932F909589238C938881832B888316
:101940002FBF06C09FB7F8948C91832B8C939FBFB9
:10195000DF91CF9108958730C1F1883080F48330D2
:10196000F9F0843030F4813029F1823009F050C030
:1019700024C08430C9F0863009F04AC022C08A30C1
:1019800091F18B3030F4883031F1893009F040C06A
:1019900026C08C3091F18C3060F18E30C9F533C0A7
:1019A000809180008F7703C0809180008F7D80932D
:1019B0008000089584B58F7702C084B58F7D84BD83
:1019C00008958091B0008F7703C08091B0008F7D23
:1019D0008093B0000895809190008F7707C0809128
:1019E00090008F7D03C080919000877F809390004E
:1019F00008958091C0008F7703C08091C0008F7DD3
:101A00008093C00008958091C200877F8093C200B8
:101A10000895FF920F931F93F62E482F50E0CA01AE
:101A20008E5E9E4FFC012491CA018C509F4FFC0199
:101A300014914A525F4FFA0104910023C9F0222306
:101A400019F0822F0E94AB0CE02FF0E0EE0FFF1F89
:101A5000E654FF4FA591B4919FB7F894FF2021F46D
:101A60008C911095812302C08C91812B8C939FBF08
:101A70001F910F91FF9008950F931F93482F50E0EF
:101A8000CA018E5E9E4FFC012491CA018C509F4F6B
:101A9000FC0104914A525F4FFA011491112319F489
:101AA00020E030E015C0222319F0822F0E94AB0CF9
:101AB000812F90E0880F991F88539F4FFC01A591BB
:101AC000B4918C9120E030E0802311F021E030E0EF
:101AD000C9011F910F91089508950895209154030D
:101AE000309155038091560390915703281B390B71
:101AF0002F733070C901089520915403309155031C
:101B000080915603909157032817390719F42FEF46
:101B10003FEF09C0E0915603F0915703EC5EFC4F94
:101B20008081282F30E0C90108952091540330911D
:101B3000550380915603909157032817390719F4DC
:101B40002FEF3FEF13C0E0915603F0915703EC5E87
:101B5000FC4F2081809156039091570301968F731B
:101B60009070909357038093560330E0C901089515
:101B700010925B0310925A0388EE93E0A0E0B0E06D
:101B800080935C0390935D03A0935E03B0935F0327
:101B90008CEA91E0909359038093580308950F9332
:101BA0001F93DF93CF930F92CDB7DEB78C0169837C
:101BB0008091A501882369F083E0BE016F5F7F4FAC
:101BC00041E050E00E94FC111816190614F49C0123
:101BD00007C081E090E0F8019383828320E030E049
:101BE000C9010F90CF91DF911F910F91089583E06C
:101BF0000E94D311089582E00E945E11482F209127
:101C00005403309155032F5F3F4F2F7330708091F5
:101C10005603909157032817390759F0E091540360
:101C2000F0915503EC5EFC4F4083309355032093B5
:101C300054030895FC0180818E5F808380E86EE20A
:101C400071E042E450E00E9477110895FC01818127
:101C50009081913A59F4813209F04CC080E06EE9EC
:101C600071E047E050E00E94771142C0913209F0E4
:101C700041C0803239F48EE991E067E070E00E9463
:101C8000BB1136C0823209F035C082818093A50134
:101C900080919E0190919F01A091A001B091A1011E
:101CA000805B9440A040B04019F58091A50180FD73
:101CB00012C087E797E790930108809300082BE014
:101CC00088E190E00FB6F894A895809360000FBE6D
:101CD000209360000DC088E10FB6F89480936000F7
:101CE000109260000FBEA895109201081092000893
:101CF00081E0089580E00895FC0191818081813A1E
:101D000031F4913089F080E0933089F40DC0813254
:101D100069F49B3021F482818093A60105C09A303A
:101D200029F482818093A70181E0089580E00895DD
:101D300008950895EF92FF920F931F938C01E62E62
:101D4000DC01ED91FC910480F581E02D0995F82EE0
:101D5000D801ED91FC910680F781E02DC8016E2D30
:101D600009958F2D90E01F910F91FF90EF900895AE
:101D70001092660310926A03109269038EEB91E051
:101D800090936803809367030895EF92FF920F93F7
:101D90001F93DF93CF930F92CDB7DEB789838B016B
:101DA0007A0184E0BE016F5F7F4F41E050E00E9406
:101DB000FC1184E4B801A7010E94FC110F90CF919F
:101DC000DF911F910F91FF90EF90089582E048E01E
:101DD00050E00E94C50E0895FC01168217821086FD
:101DE00011861286138614823496BF010E94E60E75
:101DF0000895DC01683810F0685829C0E62FF0E03B
:101E000067FF13C0E058F04081E090E002C0880F07
:101E1000991FEA95E2F7809514962C911497282340
:101E200014962C93149760E012C0E251FE4F649117
:101E3000662319F420E030E01DC067FF08C0149647
:101E40008C9114978D7F14968C9314976F77FD0166
:101E500090E0662321F08681861709F416829F5F41
:101E600031969630B1F7CD011496BD010E94E60E71
:101E700021E030E0C9010895CF93DF93DC01683899
:101E800010F0685825C0E62FF0E067FF12C0E05858
:101E9000F04081E090E002C0880F991FEA95E2F7D8
:101EA00014962C911497282B14962C93149760E079
:101EB0000FC0E251FE4F64916623D9F167FF08C05D
:101EC00014968C911497826014968C9314976F7764
:101ED00016968C9116978617A9F117968C911797DD
:101EE000861781F118968C911897861759F11996D3
:101EF0008C911997861731F11A968C911A9786173B
:101F000009F11B968C911B978617E1F0ED01E0E03B
:101F1000F0E09E2F8E81882321F4EA0FFB1F668359
:101F200006C09F5F31962196E630F10591F7963015
:101F300049F481E090E013969C938E93129720E0F1
:101F400030E007C0CD011496BD010E94E60E21E0ED
:101F500030E0C901DF91CF910895DF93CF9300D096
:101F600000D0CDB7DEB7FC01808189836A834B83C3
:101F70002C8381E0BE016F5F7F4F44E050E00E9400
:101F8000C50E0F900F900F900F90CF91DF91089595
:101F9000FC018081681739F06083CF0160E040E088
:101FA00020E00E94AD0F0895FC016095208126235A
:101FB000622F0E94C80F0895FC01862F6081682B54
:101FC000CF010E94C80F089580E860E771E045E600
:101FD00050E00E9477110895FC0180818F5F80831B
:101FE00080E865ED71E049E150E00E9477110895C5
:101FF000CF93DF930E940C0C8BE793E00E94DE11DD
:102000000E941E0BC0E0D0E00E94DF0A2097E1F39F
:102010000E940000F9CFCF92DF92EF92FF920F93D0
:102020001F93CF93DF937C016B018A01C0E0D0E066
:102030000FC0D6016D916D01D701ED91FC9101901A
:10204000F081E02DC7010995C80FD91F015010403C
:102050000115110571F7CE01DF91CF911F910F91FD
:10206000FF90EF90DF90CF900895EF92FF920F9343
:102070001F938C01DC01ED91FC910190F081E02D2A
:102080006DE009957C01D801ED91FC910190F08102
:10209000E02DC8016AE009959C012E0D3F1DC90184
:1020A0001F910F91FF90EF900895CF93DF93DB0185
:1020B0000D900020E9F71197A61BB70BEC01E88102
:1020C000F9810280F381E02DAD010995DF91CF9177
:1020D0000895EF92FF920F931F937C010E94551079
:1020E0008C01C7010E943510080F191FC8011F91EC
:1020F0000F91FF90EF900895AF92BF92CF92DF9231
:10210000EF92FF920F931F93CF93DF935C016B01CC
:10211000EE24FF24C0E0D0E010C0D501ED91FC9189
:1021200000811181C601BE010E947514682FC5018E
:10213000F8010995E80EF91E2196F6018481958132
:10214000C817D90750F3C701DF91CF911F910F91A5
:10215000FF90EF90DF90CF90BF90AF900895EF92F7
:10216000FF920F931F937C010E947C108C01C7018A
:102170000E9435109C01200F311FC9011F910F9142
:10218000FF90EF900895FC01448355836683778325
:102190000895CF93DF93EC010E94750B68877987D0
:1021A0008A879B87E881F9810680F781E02DCE013F
:1021B00009959C0197FF15C00E94750B28853985EC
:1021C0004A855B85621B730B840B950B2C813D81CB
:1021D0004E815F81621773078407950718F32FEF0D
:1021E0003FEFC901DF91CF910895AF92BF92CF9297
:1021F000DF92EF92FF920F931F93CF93DF935C01D7
:102200007A0189012115310519F4C0E0D0E016C02A
:10221000C0E0D0E0C62EDD24C7FCD0940CC0C501C0
:102220000E94C91097FD0AC08C159D0539F0F70171
:1022300081937F012196C017D10788F3CE01DF91EA
:10224000CF911F910F91FF90EF90DF90CF90BF90B3
:10225000AF900895282F809175038823C1F057FF10
:102260001AC015C02898909374038091F10081934F
:10227000E217F307B9F74115510539F08091F200E3
:10228000882319F48BE68093E800AFBF02C04FEFBC
:102290005FEFCA010895AFB7F89427702093E90063
:1022A0008091F200282F30E0241735070CF4A901A3
:1022B000FB019B01240F311D94E6DACFDF93CF930E
:1022C0000F92CDB7DEB7BE016F5F7F4F41E050E0A8
:1022D0000E942A11019719F02FEF3FEF03C0898167
:1022E000282F30E0C9010F90CF91DF910895FF9220
:1022F0000F931F93F82E142F052F409178035091C0
:102300007903212F302FC901DC01FB016EEF29C0B9
:10231000F7FE02C0949101C0908120917603309124
:10232000770324173507ACF48091E8008570E1F35A
:102330008091E80082FF03C02FEF3FEF17C090931A
:10234000F100C90101968F739070892B11F460938D
:10235000E8002F5F3F4F3093770320937603119768
:1023600031961097A9F6812F902F9C01C9011F91DA
:102370000F91FF9008959C018091E80082FFFCCFAF
:10238000F901260F311D03C08091F1008193E217FE
:10239000F307D1F7289884E6809374038BEF80933A
:1023A000E800CB0108958093E9008091F200882332
:1023B00019F08AE38093E800089508951092750358
:1023C00081E08093D70080EA8093D80082E189BDC4
:1023D00009B400FEFDCF61E070E080E090E00E9473
:1023E000A90B80E98093D8008CE08093E2001092E2
:1023F000E000559A209A08955F926F927F928F9293
:102400009F92AF92BF92CF92DF92EF92FF920F9383
:102410001F93CF93DF93E82E842E752E8091750342
:10242000882371F18B01242F352FC901EC017AEF3C
:10243000F72E67E0962E9E2050E4552E8E2D90E0CC
:1024400040E2A42EB12CA822B9223AE3632E20E464
:10245000C22ED12CC822D92258C09FB7F89490928E
:10246000E9008091E80085FD02C020E004C0809171
:10247000F200252D281B9FBF222361F4FA9419F442
:102480002FEF3FEF4DC061E070E080E090E00E94F0
:10249000A90B3BC0822F90E0C817D9070CF42C2F52
:1024A000C21BD1094FB7F8949092E900A114B1046E
:1024B00021F406C01092F10021502223D9F719C04F
:1024C000E7FC03C0F801922F10C0C801322F06C0EC
:1024D000FC010196E491E093F10031503323C1F700
:1024E00006C081918093F10091509923D1F7020F9A
:1024F000111D8091E80085FF05C0209729F4C114C3
:10250000D10411F06092E8004FBF209709F0A5CFE9
:102510005D9884E680937303282D372DC9019C01B3
:10252000C901DF91CF911F910F91FF90EF90DF9044
:10253000CF90BF90AF909F908F907F906F905F9063
:1025400008951F920F920FB60F9211241F932F938D
:102550003F934F935F936F937F938F939F93AF932B
:10256000BF93EF93FF938091E1001092E100982FC9
:1025700083FF0FC01092E90081E08093EB0010927E
:10258000EC0082E38093ED001092750388E0809365
:10259000F00092FF36C083E08093E9008091F20062
:1025A000882349F08AE38093E80005C088E593E03A
:1025B0000E94FB0D01C012E09FB7F8941093E90050
:1025C0008091F2009FBF882389F78091730388234D
:1025D00051F0809173038150809373038091730352
:1025E000882309F45D9A80917403882351F08091C7
:1025F000740381508093740380917403882309F4D9
:10260000289AFF91EF91BF91AF919F918F917F9108
:102610006F915F914F913F912F911F910F900FBE3E
:102620000F901F9018950F931F93DF93CF930F92E6
:10263000CDB7DEB719828E010F5F1F4FC8010E9410
:102640001A0EC8010E94EC0F898190E00F90CF9183
:10265000DF911F910F9108951F920F920FB60F9265
:102660001124EF92FF921F932F933F934F935F9309
:102670006F937F938F939F93AF93BF93EF93FF934A
:10268000DF93CF93CDB7DEB76197DEBFCDBF10929A
:10269000E9008091E80083FF0FC1FE0131969E01A1
:1026A000275F3F4F03C08091F1008193E217F3074A
:1026B000D1F7289884E68093740382EF8093E80032
:1026C000998197FF05C08091E80080FFFCCF03C08F
:1026D0008EEF8093E800292F30E0C901807690705A
:1026E000892B09F0C2C08A81882329F41092F10055
:1026F0001092F100D6C0813009F4D3C0833009F4C0
:10270000D0C0853049F48091E80080FFFCCF8B81F8
:1027100080688093E300C5C0863009F07CC01C81CE
:10272000EF80F8841230C1F51092E900109277031F
:102730001092760310927903109278030E9413137B
:1027400099E0FE013996DF01292F1D922A95E9F7BC
:1027500099871A8791E09E8790E8988B9AEF998BDA
:102760002091760330917703275F3F4F3C872B877B
:102770008D871092E9001092770310927603F09201
:102780007903E092780380E0BF0149E050E00E94C5
:1027900077110E94131385C01092E90010927703FD
:1027A00010927603F0927903E0927803123241F4AA
:1027B00082E290E00E94E40F892B09F476C071C098
:1027C000113079F488E0E816F10419F481E080937F
:1027D0007A0380917A03882309F06BC0ECEAF2E077
:1027E00013C0133009F061C08B81882319F4EEE621
:1027F000F2E00AC0823019F4E2E7F2E005C081306D
:1028000009F053C0E4E9F2E0449180E8BF0150E0F0
:102810000E94771146C0873009F447C0883021F400
:1028200081E08093F1003DC08930D9F5237030708C
:10283000232BD9F5E1EDF2E091E031E026E390932E
:10284000E9003093EB0084918093EC002093ED003D
:102850009F5F3196953099F78EE78093EA0010924A
:10286000EA008B81809375031CC08F81988510923C
:10287000E900109277031092760390937903809386
:1028800078038D81882329F4CE0101960E94260EBB
:1028900006C0823051F4CE0101960E947C0E88233E
:1028A00021F08EEF8093E80007C081E28093EB0077
:1028B00003C0EEEBF2E0A8CF6196DEBFCDBFCF91B3
:1028C000DF91FF91EF91BF91AF919F918F917F9198
:1028D0006F915F914F913F912F911F91FF90EF90DA
:1028E0000F900FBE0F901F901895FC018481958169
:1028F0006817790748F40190F081E02D309721F0B6
:10290000E60FF71F8081089580E00895CF93DF934D
:10291000FC01DB01848195814817590760F4C0816F
:10292000D1816D917C91CE01840F951F0E94C303CC
:102930009C01009719F42FEF3FEF02C02C1B3D0BB9
:10294000C901DF91CF91089540E050E00E948614C4
:1029500008950F931F93CF93DF93FC018B014115D3
:102960005105F9F061157105E1F084819581281711
:10297000390718F0FB01108214C041505040EC019F
:10298000C21BD30B4C175D0708F4EA01608171810B
:10299000620F731FC801AE010E94B403C00FD11FA4
:1029A0001882DF91CF911F910F910895DC01FB01F7
:1029B00014968D919C911597892B31F461157105B1
:1029C000A9F090E0808108C00D90BC91A02D611508
:1029D000710529F490E08C91882349F407C0CD015A
:1029E0000E9496039C0190E0232B09F491E0892F2B
:1029F0000895FC01DB0114962D913C91159784817B
:102A00009581821B930B84179507A0F0808191819B
:102A1000009781F06D917C916115710559F0840FDB
:102A2000951FA9010E94A6039C0180E0232B19F4A5
:102A300081E0089580E00895FC01DB012481358167
:102A400014968D919C9115972817390710F480E002
:102A50000895CF0140E050E00E94F91408950F93CB
:102A60001F93CF93DF93EC018B016F5F7F4F8881C2
:102A700099810E949A02009711F480E005C0998321
:102A800088831B830A8381E0DF91CF911F910F918F
:102A90000895CF93DF93EC0188819981892B29F0E8
:102AA0008A819B818617970760F4CE010E942F15BB
:102AB000882341F08C819D81892B19F4E881F9816B
:102AC000108281E0DF91CF910895EF92FF920F93F2
:102AD0001F93CF93DF93EC017B016C817D81E11427
:102AE000F104C1F04115510599F08A01060F171F35
:102AF000B8010E944915882369F0888199812C8149
:102B00003D81820F931FB7010E949F031D830C8399
:102B100081E001C080E0DF91CF911F910F91FF9084
:102B2000EF900895CF93DF93EC018881998100970E
:102B300011F00E944202198218821D821C821B829F
:102B40001A82DF91CF9108950F931F93182F092FA9
:102B50006115710561F0DB010D900020E9F7119717
:102B6000A61BB70BAD010E946515882321F4812FA8
:102B7000902F0E949215812F902F1F910F910895F1
:102B8000EF92FF920F931F93CF93DF93EC017B01A2
:102B90008A01BA010E944915882321F4CE010E94BE
:102BA000921507C01D830C8388819981B7010E940B
:102BB0009F03CE01DF91CF911F910F91FF90EF9076
:102BC0000895CF93DF93EC01198218821B821A8239
:102BD0001D821C821E826115710551F0DB010D9072
:102BE0000020E9F71197A61BB70BAD010E94C01595
:102BF000DF91CF9108950F931F93182F092F61151F
:102C0000710559F0DB010D900020E9F71197A61B23
:102C1000B70BAD010E94C01502C00E949215812F12
:102C2000902F1F910F910895BF92CF92DF92EF9254
:102C3000FF920F931F93CF93DF93082FB92E6B0151
:102C40007A01E9012417350710F4EA017901802F90
:102C50009B2D6FE471E00E94E115D60114968D91D1
:102C60009C9115978E159F05D0F08C179D0708F441
:102C7000EC01D601ED91FC911197EC0FFD1F108135
:102C800010826D917C916E0D7F1D802F9B2D0E9477
:102C9000FB15D601ED91FC91EC0FFD1F1083802FE9
:102CA0009B2DDF91CF911F910F91FF90EF90DF90BF
:102CB000CF90BF9008950F931F938C01FB01248147
:102CC00035810E941416C8011F910F910895CF936A
:102CD000DF93EC01FB018617970761F0608171813A
:102CE0006115710529F0448155810E94C01502C00B
:102CF0000E949215CE01DF91CF910895FC011182BF
:102D00001082138212821582148216820E94671624
:102D10000895FC011182108213821282158214829E
:102D200016820E9467160895FC01808191810E949D
:102D300042020895FC01808191810E94420208951F
:102D4000991B79E004C0991F961708F0961B881FFD
:102D50007A95C9F78095089597FB092E07260AD022
:102D600077FD04D00CD006D000201AF47095619540
:102D70007F4F0895F6F7909581959F4F0895AA1B70
:102D8000BB1B51E107C0AA1FBB1FA617B70710F056
:102D9000A61BB70B881F991F5A95A9F78095909588
:102DA000BC01CD010895EE0FFF1F0590F491E02DB9
:102DB00009942F923F924F925F926F927F928F92DF
:102DC0009F92AF92BF92CF92DF92EF92FF920F93BA
:102DD0001F93CF93DF93CDB7DEB7CA1BDB0B0FB6C4
:102DE000F894DEBF0FBECDBF09942A883988488881
:102DF0005F846E847D848C849B84AA84B984C88417
:102E0000DF80EE80FD800C811B81AA81B981CE0F0D
:102E1000D11D0FB6F894DEBF0FBECDBFED010895F2
:042E2000F894FFCF54
:102E24004C45444F4E3A003A00203D3D3E207375D8
:102E3400636365737300203D3D3E206661696C7574
:102E44007265004C45444F46463A0054455354502D
:102E5400494E3A002C0044414E43450045584954DC
:102E64000044454255470044454255474F4B0000F6
:102E7400200080030000DA00D900D800D700200029
:102E84000100770061007300640066006700FFFFC3
:102E9400FEFFFDFFFCFF010002000C0008000D0016
:102EA4000F000700060005000400030002000100F3
:102EB400000017001600150014001300120000E1B2
:102EC400000000000000010100000000CF0D0B1005
:102ED4006E0D950D7C0DF70DFB0D000000009A0E94
:082EE4000B103C0FF90EEC0E7F
:00000001FF
