:1070000055C000006EC000006CC000006AC00000E7
:1070100068C0000066C0000064C0000062C00000DC
:1070200060C000005EC00000E7C400005AC000005D
:1070300058C0000056C0000054C0000052C00000FC
:1070400050C00000DCC000004CC000004AC000007E
:1070500048C0000046C0000044C0000042C000001C
:1070600040C000003EC000003CC000003AC000002C
:1070700038C0000036C0000034C0000032C000003C
:1070800030C000002EC000002CC000002AC000004C
:1070900028C0000026C0000024C0000022C000005C
:1070A00020C000001EC000001CC0000011241FBE34
:1070B000CFEFDAE0DEBFCDBF11E0A0E0B1E0E2E16A
:1070C000FFE702C005900D92A03BB107D9F711E090
:1070D000A0EBB1E001C01D92A63CB107E1F785D35A
:1070E00016C78ECF84E08093E9000DC08091E80040
:1070F0008B778093E80003C08EB3882359F080918A
:10710000E80082FFF9CF8091E80085FFEFCF809102
:10711000F100089580E0089593E09093E900909144
:10712000E80095FD0DC09091E8009E779093E800EF
:1071300003C09EB3992369F09091E80090FFF9CFC6
:107140008093F1005D9884E690E09093B101809384
:10715000B0010895F89410926F001092810010927F
:1071600085001092840081E085BF15BE47985D9A26
:10717000289A0C94000008958091BA019091BB0167
:1071800001969093BB018093BA01292F97FF03C00A
:107190003EEF391B232F220F281710F4479808952C
:1071A000479A089584B7877F84BF88E10FB6F89423
:1071B00080936000109260000FBE90E880E00FB6F0
:1071C000F89490936100809361000FBE81E085BFC9
:1071D00082E085BF3F9A209A559AE1E6F0E09083DD
:1071E000108247985D9A289A109289009AEF90939E
:1071F000880080936F0083E080938100E5C31F9235
:107200000F920FB60F9211242F938F939F93EF93AA
:10721000FF9310928500109284008091B0019091AC
:10722000B101009741F001979093B1018093B001B3
:10723000009709F45D9A8091B2019091B301009793
:1072400041F001979093B3018093B201009709F444
:10725000289AE0E0F0E0859194912FEF8F3F92071C
:1072600049F08091B4019091B50101969093B501D8
:107270008093B401FF91EF919F918F912F910F9087
:107280000FBE0F901F90189582E061EC42E02FD363
:1072900083E061E842E12BD384E060E842E127C368
:1072A0008091BE01982F9F77913249F59091BF014F
:1072B0009032A1F0913219F5813A09F58091E800F8
:1072C000877F8093E8008DE091E067E070E045D42F
:1072D0008091E8008B778093E8000895813279F4FB
:1072E0008091E800877F8093E8008DE091E067E07F
:1072F00070E094D48091E8008E778093E800089540
:107300004F925F926F927F928F929F92AF92BF92B5
:10731000CF92DF92EF92FF920F931F93CF93DF9361
:1073200084E08093E9008091E80082FF4DC22898B4
:1073300084E690E09093B3018093B201D3DE182FDE
:10734000853481F484E699E19093B5018093B4018A
:1073500007B600FCFDCFF999FECF81E1809357007D
:10736000E89503C0843519F4BDDE8DE003C28C348A
:10737000E1F38035D1F3843721F484E4CDDE80E07D
:10738000F9C1813611F489E5F5C1813401F5AADE30
:10739000C82FA8DE282F30E0220F331F442737FDE7
:1073A0004095542F7C2F770F60E0CB01AA2797FDE3
:1073B000A095BA2F282B392B4A2B5B2B2093B60193
:1073C0003093B7014093B8015093B901CECF8037C5
:1073D00011F483E5CFC1833549F4C0E0D1E0899150
:1073E0009BDE41E0C730D407D1F7C5C1863521F413
:1073F00081E392DE80E3BEC1833731F487E88CDE1F
:1074000085E98ADE8EE1B6C18536F9F480E090E048
:10741000DC0133E025E0FC0130935700E89507B626
:1074200000FCFDCF20935700E89507B600FCFDCF88
:1074300080589F4FAF4FBF4F8030E0E79E07E0E09E
:10744000AE07E0E0BE0739F790CF823739F4E1E0CC
:10745000F0E089E08093570084918CC1863439F440
:10746000E0E0F0E089E080935700849183C18E349E
:1074700039F4E3E0F0E089E08093570084917AC129
:10748000813539F4E2E0F0E089E08093570084919F
:1074900071C1823631F489E53FDE80E03DDE80E86F
:1074A00069C1823419F0873609F0DAC01092B5014B
:1074B0001092B40117DEE82E15DEC82F13DED82E89
:1074C0008554823008F055C13E2D20E0D0E0C22B1B
:1074D000D32B10926F00173609F044C081E18093DE
:1074E0005700E895CC24BB24B39438C0E090B60193
:1074F000F090B7010091B8011091B901FD2DF6345B
:10750000B9F4EC2DF0E0EE29FF29849105DECC20C2
:1075100069F0D801C7010296A11DB11D8093B60183
:107520009093B701A093B801B093B901CB2415C0D3
:10753000D801C701B695A79597958795D2D4ECDD6C
:10754000D801C7010296A11DB11D8093B601909389
:10755000B701A093B801B093B9012197209709F022
:10756000C5CF7AC04090B6015090B7016090B80185
:107570007090B9014D2D463409F05AC083E0F201F4
:1075800080935700E89507B600FCFDCF51C0FD2D54
:10759000F63449F5CC2019F1E090B601F090B7012E
:1075A0000091B8011091B9019DDD982E88242B2DF2
:1075B00030E028293929F7010901A0925700E89500
:1075C0001124D801C7010296A11DB11D8093B601F7
:1075D0009093B701A093B801B093B90102C082DDC6
:1075E000B82ECA2423C0E090B601F090B7010091F4
:1075F000B8011091B90116950795F794E79472DDDB
:10760000682FC70176D48091B6019091B701A091FF
:10761000B801B091B9010296A11DB11D8093B601C8
:107620009093B701A093B801B093B901219704C01A
:10763000BB24CC24AA24A394209709F0A8CFFD2D25
:10764000F63441F485E0F20180935700E89507B6DF
:1076500000FCFDCF8DE060DD82E080936F008BC089
:10766000833471F4C091B601D091B7013BDD90E055
:1076700021E0FE010C0120935700E895112475CEFE
:107680008336A9F4E090B601F090B7010091B801FB
:107690001091B90127DDF701E16090E021E00C01D4
:1076A00020935700E8951124D801C70134C08D36C6
:1076B00061F4E091B601F091B70185E08093570045
:1076C000E89507B600FCFDCF50CE823551F4E0912D
:1076D000B601F091B701C591D4918D2F1DDD8C2F8E
:1076E00049C0843421F5E090B601F090B7010091D3
:1076F000B8011091B90116950795F794E794F2DC5B
:10770000682FC701F6D38091B6019091B701A0917F
:10771000B801B091B9010296A11DB11D8093B601C7
:107720009093B701A093B801B093B9011ECE8436EF
:10773000F1F4E090B601F090B7010091B80110911A
:10774000B901D801C701B695A79597958795C9D373
:10775000E3DCD801C7010296A11DB11D8093B601DB
:107760009093B701A093B801B093B90104C08B31D5
:1077700011F08FE3D1DC83E08093E9009091E80081
:107780008091E8008E778093E80095FF04C010C0D8
:107790008EB38823C9F08091E80080FFF9CF8091F3
:1077A000E8008E778093E80003C08EB3882361F0F1
:1077B0008091E80080FFF9CF84E08093E900809118
:1077C000E8008B778093E800DF91CF911F910F91B4
:1077D000FF90EF90DF90CF90BF90AF909F908F90F1
:1077E0007F906F905F904F900895209100083091A6
:1077F0000108109201081092000884B714BE98E1A5
:107800000FB6F89490936000109260000FBE90E065
:10781000FC01E270F07081FD1AC080FF06C0459146
:1078200054916FEF4F3F560789F483FF10C080914A
:10783000090190910A012817390749F0E0E0F0E0CA
:10784000859194912FEF8F3F920709F083DCAADC9A
:1078500078941092B5011092B4010DC051DD2FD370
:107860008091B4019091B5016BE18935960710F0D4
:107870001092140181DC80911401882379F78091A2
:10788000E00081608093E00065DC80E090E0089596
:10789000923029F0933041F0913061F410C02EE322
:1078A00030E087E291E01EC0882371F0813089F0DA
:1078B0008230A1F020E030E080E090E013C022E1CF
:1078C00030E085E191E00EC024E030E085E691E013
:1078D00009C028E130E089E691E004C02AE230E006
:1078E00083E891E0FA0191838083C9010895809330
:1078F000E900EBEEF0E0808181608083EDEEF0E066
:1079000010826093EC0040838091EE00881F8827EE
:10791000881F08958091BE0187FF11C003C08EB3F8
:107920008823B1F08091E80082FFF9CF8091E800D0
:107930008B778093E80008958EB3882349F0809177
:10794000E80080FFF9CF8091E8008E778093E8000F
:1079500008950F931F93CF93DF9341D048D0C8ED84
:10796000D0E088818F778883888180688883888148
:107970008F7D888319BC1EBA1092BC0100EE10E006
:10798000F80180818B7F808388818160888380E09B
:1079900060E042E0ACDFE1EEF0E080818E7F80834A
:1079A000E2EEF0E080818160808380818860808366
:1079B000F80180818E7F8083888180618883DF9158
:1079C000CF911F910F910895E7EDF0E080818160E4
:1079D00080838AE482BF81E08093BD01BACFE8ED65
:1079E000F0E080818E7F80831092E20008951092F3
:1079F000DA001092E10008951F920F920FB60F92D5
:107A000011242F933F934F935F936F937F938F93A3
:107A10009F93AF93BF93EF93FF938091DA0080FF22
:107A20001BC08091D80080FF17C08091DA008E7F44
:107A30008093DA008091D90080FF0BC080E189BD7E
:107A400082E189BD09B400FEFDCF81E08EBB36D254
:107A500003C019BC1EBA32D28091E10080FF17C06A
:107A60008091E20080FF13C08091E2008E7F8093BE
:107A7000E2008091E20080618093E2008091D80072
:107A800080628093D80019BC85E08EBB17D28091AC
:107A9000E10084FF2CC08091E20084FF28C080E1D7
:107AA00089BD82E189BD09B400FEFDCF8091D80077
:107AB0008F7D8093D8008091E1008F7E8093E100DC
:107AC0008091E2008F7E8093E2008091E2008160ED
:107AD0008093E2008091BC01882321F48091E3002F
:107AE00087FF02C084E001C081E08EBBE7D18091B6
:107AF000E10083FF21C08091E20083FF1DC08091DF
:107B0000E100877F8093E10082E08EBB1092BC0190
:107B10008091E1008E7F8093E1008091E2008E7F72
:107B20008093E2008091E20080618093E20080E037
:107B300060E042E0DCDEC2D1FF91EF91BF91AF91F6
:107B40009F918F917F916F915F914F913F912F9175
:107B50000F900FBE0F901F901895482F592FFA01C4
:107B60008091C4019091C5018617970718F4BC0154
:107B700040E03BC061157105D9F78091E8008E7730
:107B80008093E800F5CF8EB3882309F443C0853095
:107B9000E9F18091E80083FD3BC08091E80082FD1F
:107BA0002FC08091E80080FF20C09091F300809169
:107BB000F200392F20E090E0822B932B06C04191F8
:107BC0004093F1006150704001966115710519F004
:107BD00088309105A0F341E08830910509F040E03C
:107BE0008091E8008E778093E8006115710559F661
:107BF000442349F605C08EB3882361F0853061F0D7
:107C00008091E80082FFF7CF80E0089583E0089537
:107C100081E0089582E0089583E00895611571057B
:107C200051F524C04EB34423C9F1453099F1409138
:107C3000E80043FD31C04091E80042FFF3CFE82F58
:107C4000F92F07C08091F1008193CF0161507040FE
:107C500069F0CF015091F3004091F200352F20E000
:107C600050E0422B532B4115510561F74091E8003C
:107C70004B774093E80061157105A1F605C08EB3FE
:107C8000882361F0853061F08091E80080FFF7CFB4
:107C900080E0089583E0089581E0089582E00895EA
:107CA00083E008950F931F93DF93CF9300D0CDB758
:107CB000DEB7EEEBF1E08091F100819381E0E63CEC
:107CC000F807C9F7EDDA8091E80083FFE2C0809100
:107CD000BE019091BF01953009F46BC0963040F41D
:107CE000913061F1913070F0933009F0D2C026C02C
:107CF000983009F4A1C0993009F4B0C0963009F069
:107D0000C8C07AC0803809F4C4C0823809F0C1C044
:107D10008091C20187708093E9009091EB001092EE
:107D2000E9008091E800877F8093E80081E095FF7B
:107D300080E08093F1001092F10089C0882319F04F
:107D4000823009F0A6C08F71823009F0A2C0809104
:107D5000C001882341F52091C201277009F499C020
:107D60002093E9008091EB0080FF1DC08091BF014E
:107D7000833021F48091EB00806213C08091EB008E
:107D800080618093EB0081E090E002C0880F991F32
:107D90002A95E2F78093EA001092EA008091EB00C6
:107DA00088608093EB001092E9008091E800877F63
:107DB00051C0882309F06DC01091C0011F770FB723
:107DC000F8948091E800877F8093E800A3DD80919C
:107DD000E80080FFFCCF8091E3008078812B8093C6
:107DE000E30080688093E300112311F083E001C079
:107DF00082E08EBB0FBF4DC08058823008F049C072
:107E00008091C0019091C1016091C201AE014F5FAC
:107E10005F4F3EDDBC01009709F43BC08091E80054
:107E2000877F8093E80089819A8197DE8091E800BE
:107E30008B778093E8002DC0803859F58091E80059
:107E4000877F8093E8008091BC018093F10080914E
:107E5000E8008E778093E8005DDD1BC08823C9F4BD
:107E60009091C0019230A8F48091E800877F8093C0
:107E7000E8009093BC014EDD8091BC01882321F481
:107E80008091E30087FF02C084E001C081E08EBBE7
:107E9000FBD98091E80083FF0AC08091EB008062EB
:107EA0008093EB008091E800877F8093E8000F903B
:107EB0000F90CF91DF911F910F9108950895CF9367
:107EC0008EB3882361F0C091E900C7701092E90079
:107ED0008091E80083FF01C0E5DEC093E900CF9107
:107EE0000895F999FECF92BD81BDF89A992780B582
:107EF0000895262FF999FECF1FBA92BD81BD20BDEE
:107F00000FB6F894FA9AF99A0FBE01960895F8946C
:027F1000FFCFA1
:107F12004341544552494E41007777000800000022
:107F2200000000080112011001020000084F1B743A
:107F32002B01000201000109023E00020100803211
:107F420009040000010202010005240010010424BA
:107F520002040524060001070582030800FF090444
:107F62000100020A000000070504021000010705D3
:107F720083021000010403090418034D0061004B41
:107F8200006500790020004D0061004B006500791A
:107F92000000002A0353007000610072006B00466B
:107FA2000075006E00200045006C006500630074DF
:107FB2000072006F006E0069006300730000000031
:040000030000700089
:100000000C946E010C9496010C9496010C9496013C
:100010000C9496010C9496010C9496010C94960104
:100020000C9496010C9496010C94200F0C94AB0F39
:100030000C9496010C9496010C9496010C949601E4
:100040000C9496010C9496010C9496010C949601D4
:100050000C9496010C9496010C9496010C947509DD
:100060000C9496010C9496010C9496010C949601B4
:100070000C9496010C9496010C9496010C949601A4
:100080000C9496010C9496010C9496010C94960194
:100090000C9496010C9496010C9496010C94960184
:1000A0000C9496010C9496010C94960100000000AB
:1000B000240027002A002D00300000000000250049
:1000C00028002B002E003100000000002300260035
:1000D00029002C002F000404040404030405020278
:1000E00002020403020202020606060606060404D1
:1000F00002020204040802011040804010204080E7
:10010000408008020401804020100201108010206D
:1001100040400000000200080E0000030401000B34
:100120000000070605040100080A0B0C0D09050173
:100130000902A1010901A10085010509190129038D
:10014000150025019503750181029501750581034F
:1001500005010930093109381581257F7508950396
:100160008106C0C005010906A1018502050719E045
:1001700029E715002501750195088102950175088B
:100180008103950675081500256505071900296581
:100190008100C009040200010300000009210101DF
:1001A00000012265000705840340000100000000F3
:1001B000000000002A2B28000000000000000000C2
:1001C0000000000000000000000000002C9EB4A011
:1001D000A1A2A434A6A7A5AE362D3738271E1F200E
:1001E000212223242526B333B62EB7B89F848586D3
:1001F0008788898A8B8C8D8E8F9091929394959617
:100200009798999A9B9C9D2F3130A3AD3504050694
:100210000708090A0B0C0D0E0F10111213141516F6
:100220001718191A1B1C1DAFB1B0B500040309043F
:100230002203410072006400750069006E006F00C7
:1002400020004C0065006F006E00610072006400C9
:100250006F001803410072006400750069006E00B1
:100260006F0020004C004C0043001201000200000F
:10027000004041233680000101020001120100020A
:10028000020000404123368000010102000100C14C
:100290008081C1080B000202020100090400000174
:1002A00002020000052400100105240101010424BC
:1002B0000206052406000107058103100040090419
:1002C0000100020A000000070502024000000705C5
:1002D000830240000000E20B5C0E3E1111241FBEA1
:1002E000CFEFDAE0DEBFCDBF11E0A0E0B1E0EAE79A
:1002F000F4E202C005900D92A03BB107D9F713E0DC
:10030000A0EBB1E001C01D92A838B107E1F712E0FF
:10031000CCEDD2E004C02297FE010E943712C63D08
:10032000D107C9F70E94220D0C943B120C940000D7
:100330008EE090E09093B9028093B8028CE090E058
:100340009093BB028093BA02A2EBB1E020E030E0D0
:1003500091E0F901EF59FE4F80818C93F901E35C44
:10036000FE4F0190F081E02D1296FC93EE931197D1
:1003700013961C92139714961C92149715961C9220
:10038000159716961C92169717961C921797189603
:100390001C92189719961C9219971A961C921A97E4
:1003A0001B961C921B971C961C921C97F7FF04C06F
:1003B0001A969C931A970AC03197329720F41B968D
:1003C0009C931B9703C01C969C931C972E5F3F4FDA
:1003D0001D962432310509F0BCCF089521E030E0AC
:1003E0000090B50202C0220F331F0A94E2F78091F9
:1003F000B402A82FB0E0AB54BE4FE8EBF1E08C9113
:1004000090E082239323892B19F081818F5F818370
:100410008081882319F08181815081831D963D96CA
:1004200082E0E23AF80759F708951F936091BA0203
:100430007091BB024091B8025091B902ADEBB2E0AD
:10044000E9EBF1E030E011E0818182839081882343
:10045000B9F0892F90E02381861797073CF4118229
:100460002223A1F011961C921E9210C0222379F033
:100470008D919C911197019611969C938E9307C034
:10048000892F90E04817590714F4118331E0129630
:100490003D9682E0A13EB807B9F63093BC021F91A9
:1004A000089582E190E09093E7028093E60283E171
:1004B00090E09093E9028093E80284E190E09093C9
:1004C000EB028093EA0285E190E09093ED02809345
:1004D000EC0286E190E09093EF028093EE0287E1D8
:1004E00090E09093F1028093F00210920B0310922F
:1004F0000A0381E090E090930D0380930C0382E067
:1005000090E090930F0380930E0383E090E090932C
:1005100011038093100384E090E090931303809381
:10052000120385E090E0909315038093140388E014
:1005300090E09093FF028093FE028CE090E0909315
:10054000F7028093F6028FE090E09093010380938E
:1005500000038DE090E0909305038093040386E010
:1005600090E09093F5028093F40287E090E09093FE
:10057000F3028093F20208952DE030E0829FF001B3
:10058000839FF00D929FF00D1124EE54FE4F808555
:10059000882349F162307105A1F0633071053CF4A4
:1005A00061157105F1F061307105D1F40DC0643051
:1005B000710581F06430710554F06530710581F486
:1005C0000CC061E070E00FC063E070E00CC064E05C
:1005D00070E009C065E070E006C066E070E003C04E
:1005E000089562E070E0CB010895CF93DF93C0E0FF
:1005F000D0E08EE061E00E94430B5D9880E161E015
:100600000E94430B289860E971E080E090E00E942E
:10061000E3098EE060E00E94430B5D9A80E160E0B8
:100620000E94430B289A60E971E080E090E00E940C
:10063000E3092196C330D105E1F6DF91CF9108950A
:100640001F93EAEBF1E090E010E08081882331F025
:100650008481882311F411E001C091E03D9682E08D
:10066000E43AF80791F7992331F08EE061E00E94B7
:10067000430B5D9805C08EE060E00E94430B5D9ADD
:10068000112331F080E161E00E94430B289805C0FE
:1006900080E160E00E94430B289A1F9108951F9308
:1006A000182F60E00E94A60A812F60E00E94430B91
:1006B0001F9108951F93182F61E00E94A60A812FB1
:1006C00060E00E94430B1F9108958AE080939C0292
:1006D00099E090939E022BE020939D0290939F02BD
:1006E0002093A1028093A0028093A2022093A402EF
:1006F0009093A3022093A5029093A7028093A60251
:100700002093A8028093AA029093A9029093AB022F
:100710008093AD022093AC021092AE021092AF0211
:100720001092B0021092B1021092B2021092B30273
:1007300089E00E944F038AE00E944F038BE00E94F1
:100740004F038EE00E945A0380E10E945A030895ED
:100750001F93182F61E00E94A60A812F61E00E947A
:10076000430B1F910895FF920F931F93DF93CF9335
:1007700000D00F92CDB7DEB769837A838B83142FB5
:10078000F72E062F0E944F03112339F08F2D0E9460
:100790005A03802F0E94A80303C0802F0E945A038F
:1007A0000F900F900F90CF91DF911F910F91FF90BD
:1007B00008950F931F93CF93DF9300E010E068C07C
:1007C00060919C0270919D0280919E0241E00E9486
:1007D000B30386EA90E00E943C0A60919F02709108
:1007E000A0028091A10241E00E94B30386EA90E05A
:1007F0000E943C0A6091A2027091A3028091A4021F
:1008000041E00E94B30386EA90E00E943C0A6091B6
:10081000A5027091A6028091A70241E00E94B30355
:1008200086EA90E00E943C0A6091AB027091AC02B3
:100830008091AD0241E00E94B30386EA90E00E94FD
:100840003C0A6091A8027091A9028091AA0241E03D
:100850000E94B30386EA90E00E943C0A21978FEF42
:10086000CF3FD80709F0ACCF89E00E944F038AE060
:100870000E944F038BE00E944F0360E971E080E02B
:1008800090E00E94E3090F5F1F4F0330110519F03C
:10089000C0E9D1E0E3CFDF91CF911F910F9108958F
:1008A000CF93DF93C0E0D0E06091A8027091A902DD
:1008B0008091AA0241E00E94B30360E971E080E008
:1008C00090E00E94E3096091AB027091AC028091CC
:1008D000AD0241E00E94B30360E971E080E090E086
:1008E0000E94E3092196C431D105F1F689E00E9406
:1008F0004F038AE00E944F038BE00E944F03DF9179
:10090000CF910895CF93DF9389E00E944F038AE04F
:100910000E944F038BE00E944F03C0E0D0E0609143
:100920009C0270919D0280919E0241E00E94B3035F
:1009300062E370E080E090E00E94E3096091A5022C
:100940007091A6028091A70241E00E94B30362E386
:1009500070E080E090E00E94E30960919F02709156
:10096000A0028091A10241E00E94B30362E370E023
:1009700080E090E00E94E3096091A2027091A302DE
:100980008091A40241E00E94B30362E370E080E042
:1009900090E00E94E3092196C430D10509F0BFCF51
:1009A000C0E0D0E06091A8027091A9028091AA02F3
:1009B00041E00E94B30364E670E080E090E00E94B2
:1009C000E3096091AB027091AC028091AD0241E00D
:1009D0000E94B30364E670E080E090E00E94E309C7
:1009E0002196C430D105F1F689E00E944F038AE0D8
:1009F0000E944F038BE00E944F03DF91CF91089537
:100A000089E00E944F038AE00E944F038BE00E941E
:100A10004F038091E1028F5F66E00E940212909383
:100A2000E102992369F48091BA01882349F0609129
:100A30009C0270919D0280919E0241E00E94B3034E
:100A40008091E102813069F48091C701882349F0E7
:100A500060919F027091A0028091A10241E00E94EA
:100A6000B3038091E102823069F48091D40188233C
:100A700049F06091A2027091A3028091A40241E02A
:100A80000E94B3038091E102833069F48091E10117
:100A9000882349F06091A5027091A6028091A70277
:100AA00041E00E94B3038091E102843069F48091B7
:100AB000EE01882349F06091A8027091A90280910B
:100AC000AA0241E00E94B3038091E102853069F4FB
:100AD0008091FB01882349F06091AB027091AC02D8
:100AE0008091AD0241E00E94B3030895BF92CF927E
:100AF000DF92EF92FF920F931F93CF93DF937C01CE
:100B00008B01B62E862F0E944F03CE2C8E2D0E9475
:100B10004F03802F60E00E94A60A802F60E00E94B1
:100B2000430B62E070E080E090E00E94E309802FD8
:100B30000E94760B20E0019709F421E0DD24D39494
:100B4000D2228C2D0E945A0362E070E080E090E097
:100B50000E94E309C1E6D1E0888199818E159F0545
:100B600051F08017910739F00E94760B20E0019731
:100B700009F421E0D222229681E0C538D80761F736
:100B80008B2D0E94760B20E0892B09F421E0D222E4
:100B90008B2D0E944F038C2D0E944F0362E070E06A
:100BA00080E090E00E94E3098D2DDF91CF911F91AD
:100BB0000F91FF90EF90DF90CF90BF9008950F932B
:100BC0001F93CF93DF93C1E6D1E001E02881398103
:100BD000C90106970397D8F02C303105C1F02D30AC
:100BE0003105A9F02F30310591F0F901EE0FFF1F0B
:100BF000EA51FD4F60817181C9010E947605182F6D
:100C000069E170E080E090E00E94E3090123229610
:100C100081E0C538D807D1F6802FDF91CF911F91A1
:100C20000F910895AF92BF92CF92DF92FF920F93F0
:100C30001F93CF93DF9302EB11E0C0E0D0E08DE093
:100C4000A82EB12CB1E0CB2ED12C8091B402CA9D3C
:100C5000F001CB9DF00DDA9DF00D1124EE54FE4F06
:100C6000E80FF11DF3808F2D90E00090B50202C0D7
:100C7000959587950A94E2F78170F80186838081C3
:100C80000E94760B9091B502882351F4960102C020
:100C9000220F331F9A95E2F7C9019F2D982B09C0A7
:100CA000F60102C0EE0FFF1F9A95E2F79E2F909576
:100CB0009F218091B402CA9DF001CB9DF00DDA9D79
:100CC000F00D1124EE54FE4FE80FF11D9383219691
:100CD000035F1F4FC231D10509F0B7CFDF91CF912C
:100CE0001F910F91FF90DF90CF90BF90AF9008952C
:100CF0000F931F93CF93DF931092B1011092B00125
:100D000008EB1BE00E9412060E94EE018091B502E2
:100D10008F5F8093B502883059F41092B5028091AC
:100D2000B4028F5F8093B402833011F41092B40246
:100D30000E9415020E9400050E942003C091B0018C
:100D4000D091B101C330D10509F450C0C430D105F0
:100D50004CF4C130D10531F1C230D105ACF520974A
:100D600079F07DC0C530D10509F464C0C530D10526
:100D70000CF44EC0C630D10509F071C081E085C0C9
:100D800060919C0270919D0280919E0241E00E94C0
:100D9000B3036091B0017091B10180E090E00E94D6
:100DA000BC0259C060919F027091A0028091A10283
:100DB00041E00E94B3036091B0017091B10181E004
:100DC00090E00E94BC0247C06091A2027091A30211
:100DD0008091A40241E00E94B3036091B001709140
:100DE000B10182E090E00E94BC0235C06091A50292
:100DF0007091A6028091A70241E00E94B303609126
:100E0000B0017091B10183E090E00E94BC0223C068
:100E10006091A8027091A9028091AA0241E00E940B
:100E2000B3036091B0017091B10184E090E00E9441
:100E3000BC0211C06091AB027091AC028091AD0216
:100E400041E00E94B3036091B0017091B10185E06F
:100E500090E00E94BC029093B1018093B0010150D8
:100E600010408091B0019091B1018C179D0711F055
:100E70000C501E4F61E070E080E090E00E94E309BA
:100E8000101611060CF43ECF80E0DF91CF911F9138
:100E90000F910895CF93DF930E94510264EF71E0A8
:100EA00080E090E00E94E3090E94DF05882309F4B6
:100EB00049C00E94F5020E947806882311F186E15C
:100EC00093E060E071E041E00E946909C0E0D0E099
:100ED00081E293E060E271E00E94930D6AE070E0CD
:100EE00080E090E00E94E3092196C233D10581F7AA
:100EF00081E293E062E271E00E94960D0E94D903C4
:100F000021C086E193E060E071E040E00E94690961
:100F1000C0E0D0E081E293E06DE271E00E94930DC9
:100F20006AE070E080E090E00E94E3092196C63418
:100F3000D10581F781E293E06FE271E00E94960DA6
:100F40000E945004DF91CF9108950E94BD09209125
:100F5000E4023091E502621B730B7093E30260932D
:100F6000E20282E0683E780734F488EE92E0861B65
:100F7000970B0E943C0A0E94BD097093E5026093A2
:100F8000E4020895FF920F931F93CF93DF93809114
:100F9000B6029091B702019663E270E00E940E12D1
:100FA0009093B7028093B602009709F0ADC0EDEBC5
:100FB000F2E0C3EBD1E040E010E0FF2400E08985DF
:100FC000882309F465C08F81882309F461C02881D2
:100FD00039815FEF2F3F3507A1F4808191815FEF69
:100FE0008B36950714F401E03CC055E08C3D950725
:100FF0000CF083C066E970E00E940E12062F0F5FAE
:1010000047C08FEF2E3F3807A9F4808191812FEFE1
:101010008B3692071CF4FF24F3943AC055E08C3DC4
:1010200095070CF06CC066E970E00E940E12F62E77
:10103000F3942EC08FEF2D3F380799F48081918172
:101040002FEF8B3692070CF45DC055E08C3D950771
:101050000CF051C066E970E00E940E12162F1F5F5F
:1010600017C02C5F3F4FA1F4808191812FEF8B3609
:10107000920714F441E00CC055E08C3D950714F044
:101080004AE006C066E970E00E940E12462F4F5FEC
:1010900032962D9682E0E13EF80709F090CF1123B9
:1010A00029F0442339F4612F619505C0442311F0E0
:1010B000642F01C060E0FF2021F0002339F44F2DA0
:1010C00006C0002319F0402F419501C040E066237F
:1010D00011F44423C9F070E0660F771F660F771F85
:1010E00050E0440F551F440F551F80E293E020E06D
:1010F0000E94D70C09C01AE0CBCF0AE0B2CF9AE029
:10110000F92EC6CF11E0C4CFDF91CF911F910F917F
:10111000FF900895CF93DF938091BC028823A9F1BB
:10112000C3EBD1E08A85882359F18F81882399F018
:1011300088819981019729F480E293E061E00E941F
:10114000060D888199810297D9F480E293E062E0EC
:101150000E94060D15C08885882391F088819981A9
:10116000019729F480E293E061E00E94FE0C8881FF
:101170009981029729F480E293E062E00E94FE0CDC
:101180002D9682E0CD39D80769F6DF91CF91089589
:10119000FF920F931F93CF93DF931092BC020DEB3E
:1011A00012E0C3EBD1E0FF24F3948F8188872E8176
:1011B000882321F130E08091BA029091BB02281778
:1011C000390794F4F092BC021F828B85882329F0A2
:1011D00081E293E068810E94230C8985882309F1CC
:1011E000F801118210821DC089858823D1F0F80191
:1011F0008081918101969183808313C030E080913A
:10120000B8029091B902821793075CF4F092BC0285
:10121000FF828B85882329F081E293E068810E9418
:10122000660C0E5F1F4F2D96F2E0013E1F0709F07E
:10123000BCCFDF91CF911F910F91FF9008950E9435
:1012400012060E94EE018091B5028F5F8093B50275
:10125000883059F41092B5028091B4028F5F809368
:10126000B402833011F41092B4020E94C8080E94A4
:101270008A080E94C2070E9400050E9420030E9463
:10128000A5070895CF93DF93C1E6D1E0888160E0A0
:101290000E94A60A888160E00E94430B229681E0AA
:1012A000C538D80799F781E293E00E94C30B80E22A
:1012B00093E00E94C20BDF91CF9108950E946503D5
:1012C0000E9442090E9498010E944A070E948204DB
:1012D0000895F999FECF1FBA72BD61BD40BD0FB62A
:1012E000F894FA9AF99A0FBE08951F920F920FB6CA
:1012F0000F9211242F933F938F939F93AF93BF939C
:1013000080911B0390911C03A0911D03B0911E03BB
:1013100030911F030196A11DB11D232F2D5F2D3785
:1013200020F02D570196A11DB11D20931F0380931E
:101330001B0390931C03A0931D03B0931E03809185
:10134000170390911803A0911903B0911A03019605
:10135000A11DB11D8093170390931803A093190347
:10136000B0931A03BF91AF919F918F913F912F91AD
:101370000F900FBE0F901F9018959FB7F894209173
:101380001703309118034091190350911A0386B541
:10139000A89B06C08F3F21F02F5F3F4F4F4F5F4FFD
:1013A0009FBF542F432F322F2227280F311D411D5D
:1013B000511D82E0220F331F441F551F8A95D1F71C
:1013C000B901CA0108959B01AC017FB7F8948091DF
:1013D000170390911803A0911903B0911A0366B5F1
:1013E000A89B05C06F3F19F00196A11DB11D7FBFDD
:1013F000BA2FA92F982F8827860F911DA11DB11DE7
:1014000062E0880F991FAA1FBB1F6A95D1F7BC0124
:101410002DC0FFB7F8948091170390911803A09105
:101420001903B0911A03E6B5A89B05C0EF3F19F068
:101430000196A11DB11DFFBFBA2FA92F982F882794
:101440008E0F911DA11DB11DE2E0880F991FAA1FEB
:10145000BB1FEA95D1F7861B970B885E9340C8F2B5
:10146000215030404040504068517C4F211531059B
:101470004105510571F60895019739F0880F991FBC
:10148000880F991F02970197F1F70895789484B512
:10149000826084BD84B5816084BD85B5826085BD70
:1014A00085B5816085BDEEE6F0E080818160808356
:1014B000E1E8F0E010828081826080838081816039
:1014C0008083E0E8F0E0808181608083E1EBF0E000
:1014D000808184608083E0EBF0E0808181608083A4
:1014E000E1E9F0E080818260808380818160808397
:1014F000E0E9F0E0808181608083E1ECF0E08081D0
:101500008460808380818260808380818160808329
:10151000E3ECF0E0808181608083E0ECF0E08081AA
:1015200082608083E2ECF0E0808181608083EAE782
:10153000F0E080818460808380818260808380810C
:10154000816080838081806880830895CF93DF935A
:10155000482F50E0CA018C509F4FFC0134914A52F1
:101560005F4FFA018491882369F190E0880F991FF9
:10157000FC01E455FF4FA591B491FC01E654FF4FE7
:10158000C591D491662351F42FB7F8948C91932F81
:10159000909589238C93888189230BC0623061F4F4
:1015A0002FB7F8948C91932F909589238C938881F1
:1015B000832B88832FBF06C09FB7F8948C91832B11
:1015C0008C939FBFDF91CF9108958730C1F1883010
:1015D00080F48330F9F0843030F4813029F18230A6
:1015E00009F050C024C08430C9F0863009F04AC0E8
:1015F00022C08A3091F18B3030F4883031F189305B
:1016000009F040C026C08C3091F18C3060F18E30F2
:10161000C9F533C0809180008F7703C0809180002E
:101620008F7D80938000089584B58F7702C084B544
:101630008F7D84BD08958091B0008F7703C0809125
:10164000B0008F7D8093B0000895809190008F77D7
:1016500007C0809190008F7D03C080919000877FAC
:101660008093900008958091C0008F7703C080918F
:10167000C0008F7D8093C00008958091C200877F55
:101680008093C2000895FF920F931F93F62E482F68
:1016900050E0CA018E5E9E4FFC012491CA018C501D
:1016A0009F4FFC0114914A525F4FFA0104910023AD
:1016B000C9F0222319F0822F0E94E50AE02FF0E002
:1016C000EE0FFF1FE654FF4FA591B4919FB7F8941A
:1016D000FF2021F48C911095812302C08C91812BE5
:1016E0008C939FBF1F910F91FF9008950F931F93AD
:1016F000482F50E0CA018E5E9E4FFC012491CA0122
:101700008C509F4FFC0104914A525F4FFA01149193
:10171000112319F420E030E015C0222319F0822FA4
:101720000E94E50A812F90E0880F991F88539F4FF0
:10173000FC01A591B4918C9120E030E0802311F060
:1017400021E030E0C9011F910F910895FC019181C2
:101750008081813A31F4913089F080E0933089F4CE
:101760000DC0813269F49B3021F482818093850120
:1017700005C09A3029F482818093860181E0089522
:1017800080E0089508950895EF92FF920F931F93BC
:101790008C01E62EDC01ED91FC910480F581E02DB9
:1017A0000995F82ED801ED91FC910680F781E02D86
:1017B000C8016E2D09958F2D90E01F910F91FF901C
:1017C000EF900895109220031092240310922303A7
:1017D00083E991E090932203809321030895EF928F
:1017E000FF920F931F93DF93CF930F92CDB7DEB786
:1017F00089838B017A0184E0BE016F5F7F4F41E0F6
:1018000050E00E947B0E84E4B801A7010E947B0E89
:101810000F90CF91DF911F910F91FF90EF9008955E
:1018200082E048E050E00E94EF0B0895FC01168230
:101830001782108611861286138614823496BF0191
:101840000E94100C0895DC01683810F0685829C017
:10185000E62FF0E067FF13C0E058F04081E090E031
:1018600002C0880F991FEA95E2F7809514962C9193
:101870001497282314962C93149760E012C0E45513
:10188000FE4F6491662319F420E030E01DC067FF2D
:1018900008C014968C9114978D7F14968C9314978E
:1018A0006F77FD0190E0662321F08681861709F4A9
:1018B00016829F5F31969630B1F7CD011496BD0127
:1018C0000E94100C21E030E0C9010895CF93DF930E
:1018D000DC01683810F0685825C0E62FF0E067FF9B
:1018E00012C0E058F04081E090E002C0880F991FDC
:1018F000EA95E2F714962C911497282B14962C93C2
:10190000149760E00FC0E455FE4F64916623D9F14F
:1019100067FF08C014968C911497826014968C937C
:1019200014976F7716968C9116978617A9F11796CC
:101930008C911797861781F118968C9118978617B6
:1019400059F119968C911997861731F11A968C9145
:101950001A97861709F11B968C911B978617E1F051
:10196000ED01E0E0F0E09E2F8E81882321F4EA0F64
:10197000FB1F668306C09F5F31962196E630F10516
:1019800091F7963049F481E090E013969C938E9302
:10199000129720E030E007C0CD011496BD010E94EF
:1019A000100C21E030E0C901DF91CF910895DF9361
:1019B000CF9300D000D0CDB7DEB7FC018081898302
:1019C0006A834B832C8381E0BE016F5F7F4F44E0CD
:1019D00050E00E94EF0B0F900F900F900F90CF915F
:1019E000DF910895FC018081681739F06083CF0191
:1019F00060E040E020E00E94D70C0895FC01609573
:101A000020812623622F0E94F20C0895FC01862F6C
:101A10006081682BCF010E94F20C089580E86EE28D
:101A200071E045E650E00E94F60D0895FC018081CA
:101A30008F5F808380E863E971E049E150E00E94B4
:101A4000F60D0895CF93DF930E94460A85E393E055
:101A50000E945D0E0E945E09C0E0D0E00E941F0956
:101A60002097E1F30E940000F9CFCF92DF92EF922E
:101A7000FF920F931F93CF93DF937C016B018A0139
:101A8000C0E0D0E00FC0D6016D916D01D701ED919E
:101A9000FC910190F081E02DC7010995C80FD91F75
:101AA000015010400115110571F7CE01DF91CF9162
:101AB0001F910F91FF90EF90DF90CF900895EF92DC
:101AC000FF920F931F938C01DC01ED91FC9101902B
:101AD000F081E02D6DE009957C01D801ED91FC913C
:101AE0000190F081E02DC8016AE009959C012E0D5E
:101AF0003F1DC9011F910F91FF90EF900895CF9363
:101B0000DF93DB010D900020E9F71197A61BB70BBF
:101B1000EC01E881F9810280F381E02DAD010995A6
:101B2000DF91CF9108950E947F0D0895EF92FF926B
:101B30000F931F937C010E947F0D8C01C7010E94AF
:101B40005F0D080F191FC8011F910F91FF90EF90B3
:101B50000895282F80912F038823C1F057FF1AC0C2
:101B600015C0289890932E038091F1008193E2177D
:101B7000F307B9F74115510539F08091F200882338
:101B800019F48BE68093E800AFBF02C04FEF5FEF20
:101B9000CA010895AFB7F89427702093E9008091A7
:101BA000F200282F30E0241735070CF4A901FB01BF
:101BB0009B01240F311D94E6DACFDF93CF930F9270
:101BC000CDB7DEB7BE016F5F7F4F41E050E00E94AE
:101BD000A90D019719F02FEF3FEF03C08981282F3E
:101BE00030E0C9010F90CF91DF910895FF920F93DC
:101BF0001F93F82E142F052F409132035091330379
:101C0000212F302FC901DC01FB016EEF29C0F7FE47
:101C100002C0949101C09081209130033091310332
:101C200024173507ACF48091E8008570E1F38091CA
:101C3000E80082FF03C02FEF3FEF17C09093F10041
:101C4000C90101968F739070892B11F46093E8009D
:101C50002F5F3F4F3093310320933003119731961C
:101C60001097A9F6812F902F9C01C9011F910F9108
:101C7000FF9008959C018091E80082FFFCCFF9015C
:101C8000260F311D03C08091F1008193E217F30705
:101C9000D1F7289884E680932E038BEF8093E80099
:101CA000CB0108958093E9008091F200882319F018
:101CB0008AE38093E8000895089510922F0381E04D
:101CC0008093D70080EA8093D80082E189BD09B46F
:101CD00000FEFDCF61E070E080E090E00E94E3094B
:101CE00080E98093D8008CE08093E2001092E000BD
:101CF000559A209A08955F926F927F928F929F9249
:101D0000AF92BF92CF92DF92EF92FF920F931F9309
:101D1000CF93DF93E82E842E752E80912F03882396
:101D200071F18B01242F352FC901EC017AEFF72EC9
:101D300067E0962E9E2050E4552E8E2D90E040E2D6
:101D4000A42EB12CA822B9223AE3632E20E4C22E9D
:101D5000D12CC822D92258C09FB7F8949092E9009C
:101D60008091E80085FD02C020E004C08091F2006F
:101D7000252D281B9FBF222361F4FA9419F42FEF1D
:101D80003FEF4DC061E070E080E090E00E94E30929
:101D90003BC0822F90E0C817D9070CF42C2FC21B30
:101DA000D1094FB7F8949092E900A114B10421F43D
:101DB00006C01092F10021502223D9F719C0E7FC88
:101DC00003C0F801922F10C0C801322F06C0FC01D9
:101DD0000196E491E093F10031503323C1F706C03E
:101DE00081918093F10091509923D1F7020F111D39
:101DF0008091E80085FF05C0209729F4C114D10423
:101E000011F06092E8004FBF209709F0A5CF5D98D0
:101E100084E680932D03282D372DC9019C01C9012B
:101E2000DF91CF911F910F91FF90EF90DF90CF90B6
:101E3000BF90AF909F908F907F906F905F9008952C
:101E40001F920F920FB60F9211241F932F933F935F
:101E50004F935F936F937F938F939F93AF93BF93B2
:101E6000EF93FF938091E1001092E100982F83FFA0
:101E70000FC01092E90081E08093EB001092EC001B
:101E800082E38093ED0010922F0388E08093F000AE
:101E900092FF36C083E08093E9008091F2008823AE
:101EA00049F08AE38093E80005C08AE793E00E9446
:101EB000811101C012E09FB7F8941093E90080915E
:101EC000F2009FBF882389F780912D03882351F06A
:101ED00080912D03815080932D0380912D038823C1
:101EE00009F45D9A80912E03882351F080912E038E
:101EF000815080932E0380912E03882309F4289A21
:101F0000FF91EF91BF91AF919F918F917F916F91D1
:101F10005F914F913F912F911F910F900FBE0F90A6
:101F20001F9018950F931F93DF93CF930F92CDB708
:101F3000DEB719828E010F5F1F4FC8010E94A011EA
:101F4000C8010E94160D898190E00F90CF91DF911A
:101F50001F910F9108951F920F920FB60F921124A7
:101F6000EF92FF921F932F933F934F935F936F9343
:101F70007F938F939F93AF93BF93EF93FF93DF93E1
:101F8000CF93CDB7DEB76197DEBFCDBF1092E9002A
:101F90008091E80083FF0FC1FE0131969E01275F0B
:101FA0003F4F03C08091F1008193E217F307D1F70F
:101FB000289884E680932E0382EF8093E80099812D
:101FC00097FF05C08091E80080FFFCCF03C08EEF33
:101FD0008093E800292F30E0C90180769070892B2A
:101FE00009F0C2C08A81882329F41092F10010926E
:101FF000F100D6C0813009F4D3C0833009F4D0C0D9
:10200000853049F48091E80080FFFCCF8B818068A7
:102010008093E300C5C0863009F07CC01C81EF804E
:10202000F8841230C1F51092E90010923103109239
:10203000300310923303109232030E94920F99E002
:10204000FE013996DF01292F1D922A95E9F799871C
:102050001A8791E09E8790E8988B9AEF998B209150
:10206000300330913103275F3F4F3C872B878D87AB
:102070001092E9001092310310923003F092330372
:10208000E092320380E0BF0149E050E00E94F60D8B
:102090000E94920F85C01092E900109231031092B5
:1020A0003003F0923303E0923203123241F482E2C1
:1020B00090E00E940E0D892B09F476C071C011309A
:1020C00079F488E0E816F10419F481E08093340390
:1020D00080913403882309F06BC0EAE6F2E013C074
:1020E000133009F061C08B81882319F4ECE2F2E02F
:1020F0000AC0823019F4E0E3F2E005C0813009F053
:1021000053C0E2E5F2E0449180E8BF0150E00E9454
:10211000F60D46C0873009F447C0883021F481E0CD
:102120008093F1003DC08930D9F523703070232BA6
:10213000D9F5EFE8F2E091E031E026E39093E90091
:102140003093EB0084918093EC002093ED009F5F2F
:102150003196953099F78EE78093EA001092EA0065
:102160008B8180932F031CC08F8198851092E9008A
:102170001092310310923003909333038093320313
:102180008D81882329F4CE0101960E94AC1106C0EE
:10219000823051F4CE0101960E94A60B882321F0D3
:1021A0008EEF8093E80007C081E28093EB0003C0CC
:1021B000ECE7F2E0A8CF6196DEBFCDBFCF91DF9113
:1021C000FF91EF91BF91AF919F918F917F916F910F
:1021D0005F914F913F912F911F91FF90EF900F9042
:1021E0000FBE0F901F9018952091760330917703C2
:1021F0008091780390917903281B390B2F733070ED
:10220000C901089520917603309177038091780376
:10221000909179032817390719F42FEF3FEF09C080
:10222000E0917803F0917903EA5CFC4F8081282FDC
:1022300030E0C901089520917603309177038091B1
:102240007803909179032817390719F42FEF3FEF9E
:1022500013C0E0917803F0917903EA5CFC4F208190
:10226000809178039091790301968F739070909389
:1022700079038093780330E0C901089510927D03BB
:1022800010927C0388EE93E0A0E0B0E080937E03A0
:1022900090937F03A0938003B093810381EA91E040
:1022A00090937B0380937A0308950F931F93DF939A
:1022B000CF930F92CDB7DEB78C01698380918E01E9
:1022C000882369F083E0BE016F5F7F4F41E050E0FB
:1022D0000E947B0E1816190614F49C0107C081E0B9
:1022E00090E0F8019383828320E030E0C9010F90F1
:1022F000CF91DF911F910F91089583E00E94520EBC
:10230000089582E00E94DD0D482F209176033091E0
:1023100077032F5F3F4F2F73307080917803909138
:1023200079032817390759F0E0917603F091770384
:10233000EA5CFC4F40833093770320937603089543
:10234000FC0180818E5F808380E863E972E042E473
:1023500050E00E94F60D0895FC0181819081913A30
:1023600059F4813209F04CC080E067E871E047E041
:1023700050E00E94F60D42C0913209F041C0803217
:1023800039F487E891E067E070E00E943A0E36C0C9
:10239000823209F035C0828180938E01809187015D
:1023A00090918801A0918901B0918A01805B94404D
:1023B000A040B04019F580918E0180FD12C087E7E2
:1023C00097E790930108809300082BE088E190E064
:1023D0000FB6F894A895809360000FBE209360001C
:1023E0000DC088E10FB6F8948093600010926000F1
:1023F0000FBEA895109201081092000881E0089580
:1024000080E00895991B79E004C0991F961708F0A1
:10241000961B881F7A95C9F78095089597FB092E1A
:1024200007260AD077FD04D00CD006D000201AF47D
:10243000709561957F4F0895F6F7909581959F4F20
:102440000895AA1BBB1B51E107C0AA1FBB1FA617FB
:10245000B70710F0A61BB70B881F991F5A95A9F74D
:1024600080959095BC01CD010895EE0FFF1F05905A
:0A247000F491E02D0994F894FFCFD9
:10247A0074657374696E6720696E707574200020C4
:10248A003D3D3E20002E2E2E204641494C4544001B
:10249A002B002050415353203A2D290A002D004683
:1024AA0041494C21212121212121210A00DA00D987
:1024BA0000D800D700200001007700610073006493
:1024CA000066006700FFFFFEFFFDFFFCFF01000240
:1024DA00000C0008000D000F0007000600050004AC
:1024EA000003000200010000001700160015001486
:1024FA000013001200010100E100000000000000CA
:10250A00000000C40B350D660C230C160C000000ED
:10251A00005511350DF4101B1102117D11811100A6
:00000001FF

