:1070000055C000006EC000006CC000006AC00000E7
:1070100068C0000066C0000064C0000062C00000DC
:1070200060C000005EC00000E7C400005AC000005D
:1070300058C0000056C0000054C0000052C00000FC
:1070400050C00000DCC000004CC000004AC000007E
:1070500048C0000046C0000044C0000042C000001C
:1070600040C000003EC000003CC000003AC000002C
:1070700038C0000036C0000034C0000032C000003C
:1070800030C000002EC000002CC000002AC000004C
:1070900028C0000026C0000024C0000022C000005C
:1070A00020C000001EC000001CC0000011241FBE34
:1070B000CFEFDAE0DEBFCDBF11E0A0E0B1E0E2E16A
:1070C000FFE702C005900D92A03BB107D9F711E090
:1070D000A0EBB1E001C01D92A63CB107E1F785D35A
:1070E00016C78ECF84E08093E9000DC08091E80040
:1070F0008B778093E80003C08EB3882359F080918A
:10710000E80082FFF9CF8091E80085FFEFCF809102
:10711000F100089580E0089593E09093E900909144
:10712000E80095FD0DC09091E8009E779093E800EF
:1071300003C09EB3992369F09091E80090FFF9CFC6
:107140008093F1005D9884E690E09093B101809384
:10715000B0010895F89410926F001092810010927F
:1071600085001092840081E085BF15BE47985D9A26
:10717000289A0C94000008958091BA019091BB0167
:1071800001969093BB018093BA01292F97FF03C00A
:107190003EEF391B232F220F281710F4479808952C
:1071A000479A089584B7877F84BF88E10FB6F89423
:1071B00080936000109260000FBE90E880E00FB6F0
:1071C000F89490936100809361000FBE81E085BFC9
:1071D00082E085BF3F9A209A559AE1E6F0E09083DD
:1071E000108247985D9A289A109289009AEF90939E
:1071F000880080936F0083E080938100E5C31F9235
:107200000F920FB60F9211242F938F939F93EF93AA
:10721000FF9310928500109284008091B0019091AC
:10722000B101009741F001979093B1018093B001B3
:10723000009709F45D9A8091B2019091B301009793
:1072400041F001979093B3018093B201009709F444
:10725000289AE0E0F0E0859194912FEF8F3F92071C
:1072600049F08091B4019091B50101969093B501D8
:107270008093B401FF91EF919F918F912F910F9087
:107280000FBE0F901F90189582E061EC42E02FD363
:1072900083E061E842E12BD384E060E842E127C368
:1072A0008091BE01982F9F77913249F59091BF014F
:1072B0009032A1F0913219F5813A09F58091E800F8
:1072C000877F8093E8008DE091E067E070E045D42F
:1072D0008091E8008B778093E8000895813279F4FB
:1072E0008091E800877F8093E8008DE091E067E07F
:1072F00070E094D48091E8008E778093E800089540
:107300004F925F926F927F928F929F92AF92BF92B5
:10731000CF92DF92EF92FF920F931F93CF93DF9361
:1073200084E08093E9008091E80082FF4DC22898B4
:1073300084E690E09093B3018093B201D3DE182FDE
:10734000853481F484E699E19093B5018093B4018A
:1073500007B600FCFDCFF999FECF81E1809357007D
:10736000E89503C0843519F4BDDE8DE003C28C348A
:10737000E1F38035D1F3843721F484E4CDDE80E07D
:10738000F9C1813611F489E5F5C1813401F5AADE30
:10739000C82FA8DE282F30E0220F331F442737FDE7
:1073A0004095542F7C2F770F60E0CB01AA2797FDE3
:1073B000A095BA2F282B392B4A2B5B2B2093B60193
:1073C0003093B7014093B8015093B901CECF8037C5
:1073D00011F483E5CFC1833549F4C0E0D1E0899150
:1073E0009BDE41E0C730D407D1F7C5C1863521F413
:1073F00081E392DE80E3BEC1833731F487E88CDE1F
:1074000085E98ADE8EE1B6C18536F9F480E090E048
:10741000DC0133E025E0FC0130935700E89507B626
:1074200000FCFDCF20935700E89507B600FCFDCF88
:1074300080589F4FAF4FBF4F8030E0E79E07E0E09E
:10744000AE07E0E0BE0739F790CF823739F4E1E0CC
:10745000F0E089E08093570084918CC1863439F440
:10746000E0E0F0E089E080935700849183C18E349E
:1074700039F4E3E0F0E089E08093570084917AC129
:10748000813539F4E2E0F0E089E08093570084919F
:1074900071C1823631F489E53FDE80E03DDE80E86F
:1074A00069C1823419F0873609F0DAC01092B5014B
:1074B0001092B40117DEE82E15DEC82F13DED82E89
:1074C0008554823008F055C13E2D20E0D0E0C22B1B
:1074D000D32B10926F00173609F044C081E18093DE
:1074E0005700E895CC24BB24B39438C0E090B60193
:1074F000F090B7010091B8011091B901FD2DF6345B
:10750000B9F4EC2DF0E0EE29FF29849105DECC20C2
:1075100069F0D801C7010296A11DB11D8093B60183
:107520009093B701A093B801B093B901CB2415C0D3
:10753000D801C701B695A79597958795D2D4ECDD6C
:10754000D801C7010296A11DB11D8093B601909389
:10755000B701A093B801B093B9012197209709F022
:10756000C5CF7AC04090B6015090B7016090B80185
:107570007090B9014D2D463409F05AC083E0F201F4
:1075800080935700E89507B600FCFDCF51C0FD2D54
:10759000F63449F5CC2019F1E090B601F090B7012E
:1075A0000091B8011091B9019DDD982E88242B2DF2
:1075B00030E028293929F7010901A0925700E89500
:1075C0001124D801C7010296A11DB11D8093B601F7
:1075D0009093B701A093B801B093B90102C082DDC6
:1075E000B82ECA2423C0E090B601F090B7010091F4
:1075F000B8011091B90116950795F794E79472DDDB
:10760000682FC70176D48091B6019091B701A091FF
:10761000B801B091B9010296A11DB11D8093B601C8
:107620009093B701A093B801B093B901219704C01A
:10763000BB24CC24AA24A394209709F0A8CFFD2D25
:10764000F63441F485E0F20180935700E89507B6DF
:1076500000FCFDCF8DE060DD82E080936F008BC089
:10766000833471F4C091B601D091B7013BDD90E055
:1076700021E0FE010C0120935700E895112475CEFE
:107680008336A9F4E090B601F090B7010091B801FB
:107690001091B90127DDF701E16090E021E00C01D4
:1076A00020935700E8951124D801C70134C08D36C6
:1076B00061F4E091B601F091B70185E08093570045
:1076C000E89507B600FCFDCF50CE823551F4E0912D
:1076D000B601F091B701C591D4918D2F1DDD8C2F8E
:1076E00049C0843421F5E090B601F090B7010091D3
:1076F000B8011091B90116950795F794E794F2DC5B
:10770000682FC701F6D38091B6019091B701A0917F
:10771000B801B091B9010296A11DB11D8093B601C7
:107720009093B701A093B801B093B9011ECE8436EF
:10773000F1F4E090B601F090B7010091B80110911A
:10774000B901D801C701B695A79597958795C9D373
:10775000E3DCD801C7010296A11DB11D8093B601DB
:107760009093B701A093B801B093B90104C08B31D5
:1077700011F08FE3D1DC83E08093E9009091E80081
:107780008091E8008E778093E80095FF04C010C0D8
:107790008EB38823C9F08091E80080FFF9CF8091F3
:1077A000E8008E778093E80003C08EB3882361F0F1
:1077B0008091E80080FFF9CF84E08093E900809118
:1077C000E8008B778093E800DF91CF911F910F91B4
:1077D000FF90EF90DF90CF90BF90AF909F908F90F1
:1077E0007F906F905F904F900895209100083091A6
:1077F0000108109201081092000884B714BE98E1A5
:107800000FB6F89490936000109260000FBE90E065
:10781000FC01E270F07081FD1AC080FF06C0459146
:1078200054916FEF4F3F560789F483FF10C080914A
:10783000090190910A012817390749F0E0E0F0E0CA
:10784000859194912FEF8F3F920709F083DCAADC9A
:1078500078941092B5011092B4010DC051DD2FD370
:107860008091B4019091B5016BE18935960710F0D4
:107870001092140181DC80911401882379F78091A2
:10788000E00081608093E00065DC80E090E0089596
:10789000923029F0933041F0913061F410C02EE322
:1078A00030E087E291E01EC0882371F0813089F0DA
:1078B0008230A1F020E030E080E090E013C022E1CF
:1078C00030E085E191E00EC024E030E085E691E013
:1078D00009C028E130E089E691E004C02AE230E006
:1078E00083E891E0FA0191838083C9010895809330
:1078F000E900EBEEF0E0808181608083EDEEF0E066
:1079000010826093EC0040838091EE00881F8827EE
:10791000881F08958091BE0187FF11C003C08EB3F8
:107920008823B1F08091E80082FFF9CF8091E800D0
:107930008B778093E80008958EB3882349F0809177
:10794000E80080FFF9CF8091E8008E778093E8000F
:1079500008950F931F93CF93DF9341D048D0C8ED84
:10796000D0E088818F778883888180688883888148
:107970008F7D888319BC1EBA1092BC0100EE10E006
:10798000F80180818B7F808388818160888380E09B
:1079900060E042E0ACDFE1EEF0E080818E7F80834A
:1079A000E2EEF0E080818160808380818860808366
:1079B000F80180818E7F8083888180618883DF9158
:1079C000CF911F910F910895E7EDF0E080818160E4
:1079D00080838AE482BF81E08093BD01BACFE8ED65
:1079E000F0E080818E7F80831092E20008951092F3
:1079F000DA001092E10008951F920F920FB60F92D5
:107A000011242F933F934F935F936F937F938F93A3
:107A10009F93AF93BF93EF93FF938091DA0080FF22
:107A20001BC08091D80080FF17C08091DA008E7F44
:107A30008093DA008091D90080FF0BC080E189BD7E
:107A400082E189BD09B400FEFDCF81E08EBB36D254
:107A500003C019BC1EBA32D28091E10080FF17C06A
:107A60008091E20080FF13C08091E2008E7F8093BE
:107A7000E2008091E20080618093E2008091D80072
:107A800080628093D80019BC85E08EBB17D28091AC
:107A9000E10084FF2CC08091E20084FF28C080E1D7
:107AA00089BD82E189BD09B400FEFDCF8091D80077
:107AB0008F7D8093D8008091E1008F7E8093E100DC
:107AC0008091E2008F7E8093E2008091E2008160ED
:107AD0008093E2008091BC01882321F48091E3002F
:107AE00087FF02C084E001C081E08EBBE7D18091B6
:107AF000E10083FF21C08091E20083FF1DC08091DF
:107B0000E100877F8093E10082E08EBB1092BC0190
:107B10008091E1008E7F8093E1008091E2008E7F72
:107B20008093E2008091E20080618093E20080E037
:107B300060E042E0DCDEC2D1FF91EF91BF91AF91F6
:107B40009F918F917F916F915F914F913F912F9175
:107B50000F900FBE0F901F901895482F592FFA01C4
:107B60008091C4019091C5018617970718F4BC0154
:107B700040E03BC061157105D9F78091E8008E7730
:107B80008093E800F5CF8EB3882309F443C0853095
:107B9000E9F18091E80083FD3BC08091E80082FD1F
:107BA0002FC08091E80080FF20C09091F300809169
:107BB000F200392F20E090E0822B932B06C04191F8
:107BC0004093F1006150704001966115710519F004
:107BD00088309105A0F341E08830910509F040E03C
:107BE0008091E8008E778093E8006115710559F661
:107BF000442349F605C08EB3882361F0853061F0D7
:107C00008091E80082FFF7CF80E0089583E0089537
:107C100081E0089582E0089583E00895611571057B
:107C200051F524C04EB34423C9F1453099F1409138
:107C3000E80043FD31C04091E80042FFF3CFE82F58
:107C4000F92F07C08091F1008193CF0161507040FE
:107C500069F0CF015091F3004091F200352F20E000
:107C600050E0422B532B4115510561F74091E8003C
:107C70004B774093E80061157105A1F605C08EB3FE
:107C8000882361F0853061F08091E80080FFF7CFB4
:107C900080E0089583E0089581E0089582E00895EA
:107CA00083E008950F931F93DF93CF9300D0CDB758
:107CB000DEB7EEEBF1E08091F100819381E0E63CEC
:107CC000F807C9F7EDDA8091E80083FFE2C0809100
:107CD000BE019091BF01953009F46BC0963040F41D
:107CE000913061F1913070F0933009F0D2C026C02C
:107CF000983009F4A1C0993009F4B0C0963009F069
:107D0000C8C07AC0803809F4C4C0823809F0C1C044
:107D10008091C20187708093E9009091EB001092EE
:107D2000E9008091E800877F8093E80081E095FF7B
:107D300080E08093F1001092F10089C0882319F04F
:107D4000823009F0A6C08F71823009F0A2C0809104
:107D5000C001882341F52091C201277009F499C020
:107D60002093E9008091EB0080FF1DC08091BF014E
:107D7000833021F48091EB00806213C08091EB008E
:107D800080618093EB0081E090E002C0880F991F32
:107D90002A95E2F78093EA001092EA008091EB00C6
:107DA00088608093EB001092E9008091E800877F63
:107DB00051C0882309F06DC01091C0011F770FB723
:107DC000F8948091E800877F8093E800A3DD80919C
:107DD000E80080FFFCCF8091E3008078812B8093C6
:107DE000E30080688093E300112311F083E001C079
:107DF00082E08EBB0FBF4DC08058823008F049C072
:107E00008091C0019091C1016091C201AE014F5FAC
:107E10005F4F3EDDBC01009709F43BC08091E80054
:107E2000877F8093E80089819A8197DE8091E800BE
:107E30008B778093E8002DC0803859F58091E80059
:107E4000877F8093E8008091BC018093F10080914E
:107E5000E8008E778093E8005DDD1BC08823C9F4BD
:107E60009091C0019230A8F48091E800877F8093C0
:107E7000E8009093BC014EDD8091BC01882321F481
:107E80008091E30087FF02C084E001C081E08EBBE7
:107E9000FBD98091E80083FF0AC08091EB008062EB
:107EA0008093EB008091E800877F8093E8000F903B
:107EB0000F90CF91DF911F910F9108950895CF9367
:107EC0008EB3882361F0C091E900C7701092E90079
:107ED0008091E80083FF01C0E5DEC093E900CF9107
:107EE0000895F999FECF92BD81BDF89A992780B582
:107EF0000895262FF999FECF1FBA92BD81BD20BDEE
:107F00000FB6F894FA9AF99A0FBE01960895F8946C
:027F1000FFCFA1
:107F12004341544552494E41007777000800000022
:107F2200000000080112011001020000084F1B743A
:107F32002B01000201000109023E00020100803211
:107F420009040000010202010005240010010424BA
:107F520002040524060001070582030800FF090444
:107F62000100020A000000070504021000010705D3
:107F720083021000010403090418034D0061004B41
:107F8200006500790020004D0061004B006500791A
:107F92000000002A0353007000610072006B00466B
:107FA2000075006E00200045006C006500630074DF
:107FB2000072006F006E0069006300730000000031
:040000030000700089
:100000000C946E010C9496010C9496010C9496013C
:100010000C9496010C9496010C9496010C94960104
:100020000C9496010C9496010C94F40E0C947F0F92
:100030000C9496010C9496010C9496010C949601E4
:100040000C9496010C9496010C9496010C949601D4
:100050000C9496010C9496010C9496010C944C0906
:100060000C9496010C9496010C9496010C949601B4
:100070000C9496010C9496010C9496010C949601A4
:100080000C9496010C9496010C9496010C94960194
:100090000C9496010C9496010C9496010C94960184
:1000A0000C9496010C9496010C94960100000000AB
:1000B000240027002A002D00300000000000250049
:1000C00028002B002E003100000000002300260035
:1000D00029002C002F000404040404030405020278
:1000E00002020403020202020606060606060404D1
:1000F00002020204040802011040804010204080E7
:10010000408008020401804020100201108010206D
:1001100040400000000200080E0000030401000B34
:100120000000070605040100080A0B0C0D09050173
:100130000902A1010901A10085010509190129038D
:10014000150025019503750181029501750581034F
:1001500005010930093109381581257F7508950396
:100160008106C0C005010906A1018502050719E045
:1001700029E715002501750195088102950175088B
:100180008103950675081500256505071900296581
:100190008100C009040200010300000009210101DF
:1001A00000012265000705840340000100000000F3
:1001B000000000002A2B28000000000000000000C2
:1001C0000000000000000000000000002C9EB4A011
:1001D000A1A2A434A6A7A5AE362D3738271E1F200E
:1001E000212223242526B333B62EB7B89F848586D3
:1001F0008788898A8B8C8D8E8F9091929394959617
:100200009798999A9B9C9D2F3130A3AD3504050694
:100210000708090A0B0C0D0E0F10111213141516F6
:100220001718191A1B1C1DAFB1B0B500040309043F
:100230002203410072006400750069006E006F00C7
:1002400020004C0065006F006E00610072006400C9
:100250006F001803410072006400750069006E00B1
:100260006F0020004C004C0043001201000200000F
:10027000004041233680000101020001120100020A
:10028000020000404123368000010102000100C14C
:100290008081C1080B000202020100090400000174
:1002A00002020000052400100105240101010424BC
:1002B0000206052406000107058103100040090419
:1002C0000100020A000000070502024000000705C5
:1002D000830240000000B90B300E121111241FBE22
:1002E000CFEFDAE0DEBFCDBF11E0A0E0B1E0E2E2A7
:1002F000F4E202C005900D92A03FB107D9F713E0D8
:10030000A0EFB1E001C01D92A83CB107E1F712E0F7
:10031000CCEDD2E004C02297FE010E940B12C63D34
:10032000D107C9F70E94F90C0C940F120C9400002D
:100330008EE090E09093F9028093F8028CE090E0D8
:100340009093FB028093FA02A2EFB1E020E030E04C
:1003500091E0F901EE55FE4F80818C93F901E2584E
:10036000FE4F0190F081E02D1296FC93EE931197D1
:1003700013961C92139714961C92149715961C9220
:10038000159716961C92169717961C921797189603
:100390001C92189719961C9219971A961C921A97E4
:1003A0001B961C921B971C961C921C97F7FF04C06F
:1003B0001A969C931A970AC03197329720F41B968D
:1003C0009C931B9703C01C969C931C972E5F3F4FDA
:1003D0001D962432310509F0BCCF089521E030E0AC
:1003E0000090F50202C0220F331F0A94E2F78091B9
:1003F000F402A82FB0E0AB50BE4FE8EFF1E08C91D3
:1004000090E082239323892B19F081818F5F818370
:100410008081882319F08181815081831D963D96CA
:1004200082E0E23EF80759F708951F936091FA02BF
:100430007091FB024091F8025091F902ADEFB2E0E9
:10044000E9EFF1E030E011E081818283908188233F
:10045000B9F0892F90E02381861797073CF4118229
:100460002223A1F011961C921E9210C0222379F033
:100470008D919C911197019611969C938E9307C034
:10048000892F90E04817590714F4118331E0129630
:100490003D9683E0A132B807B9F63093FC021F9174
:1004A000089582E190E0909327038093260383E1EF
:1004B00090E0909329038093280384E190E0909347
:1004C0002B0380932A0385E190E090932D03809382
:1004D0002C0386E190E090932F0380932E0387E115
:1004E00090E0909331038093300310924B0310926D
:1004F0004A0381E090E090934D0380934C0382E0A7
:1005000090E090934F0380934E0383E090E09093AC
:1005100051038093500384E090E0909353038093C1
:10052000520385E090E0909355038093540388E054
:1005300090E090933F0380933E038CE090E0909393
:100540003703809336038FE090E0909341038093CC
:1005500040038DE090E0909345038093440386E050
:1005600090E0909335038093340387E090E090937C
:1005700033038093320308952DE030E0829FF00131
:10058000839FF00D929FF00D1124EE50FE4F808559
:10059000882349F162307105A1F0633071053CF4A4
:1005A00061157105F1F061307105D1F40DC0643051
:1005B000710581F06430710554F06530710581F486
:1005C0000CC061E070E00FC063E070E00CC064E05C
:1005D00070E009C065E070E006C066E070E003C04E
:1005E000089562E070E0CB010895CF93DF93C0E0FF
:1005F000D0E08EE061E00E941A0B5D9880E161E03E
:100600000E941A0B289860E971E080E090E00E9457
:10061000BA098EE060E00E941A0B5D9A80E160E00A
:100620000E941A0B289A60E971E080E090E00E9435
:10063000BA092196C330D105E1F6DF91CF91089533
:100640001F93EAEFF1E090E010E08081882331F021
:100650008481882311F411E001C091E03D9682E08D
:10066000E43EF80791F7992331F08EE061E00E94B3
:100670001A0B5D9805C08EE060E00E941A0B5D9A2F
:10068000112331F080E161E00E941A0B289805C027
:1006900080E160E00E941A0B289A1F9108951F9331
:1006A000182F60E00E947D0A812F60E00E941A0BE3
:1006B0001F9108951F93182F61E00E947D0A812FDA
:1006C00060E00E941A0B1F9108958AE08093DC027B
:1006D00099E09093DE022BE02093DD029093DF02FD
:1006E0002093E1028093E0028093E2022093E402EF
:1006F0009093E3022093E5029093E7028093E60251
:100700002093E8028093EA029093E9029093EB022F
:100710008093ED022093EC021092EE021092EF0211
:100720001092F0021092F1021092F2021092F30273
:1007300089E00E944F038AE00E944F038BE00E94F1
:100740004F038EE00E945A0380E10E945A030895ED
:100750001F93182F61E00E947D0A812F61E00E94A3
:100760001A0B1F910895FF920F931F93DF93CF935E
:1007700000D00F92CDB7DEB769837A838B83142FB5
:10078000F72E062F0E944F03112339F08F2D0E9460
:100790005A03802F0E94A80303C0802F0E945A038F
:1007A0000F900F900F90CF91DF911F910F91FF90BD
:1007B00008950F931F93CF93DF9300E010E068C07C
:1007C0006091DC027091DD028091DE0241E00E94C6
:1007D000B30386EA90E00E94130A6091DF027091F1
:1007E000E0028091E10241E00E94B30386EA90E0DA
:1007F0000E94130A6091E2027091E3028091E40288
:1008000041E00E94B30386EA90E00E94130A6091DF
:10081000E5027091E6028091E70241E00E94B30395
:1008200086EA90E00E94130A6091EB027091EC025C
:100830008091ED0241E00E94B30386EA90E00E94BD
:10084000130A6091E8027091E9028091EA0241E0A6
:100850000E94B30386EA90E00E94130A21978FEF6B
:10086000CF3FD80709F0ACCF89E00E944F038AE060
:100870000E944F038BE00E944F0360E971E080E02B
:1008800090E00E94BA090F5F1F4F0330110519F065
:10089000C0E9D1E0E3CFDF91CF911F910F9108958F
:1008A000CF93DF93C0E0D0E06091E8027091E9025D
:1008B0008091EA0241E00E94B30360E971E080E0C8
:1008C00090E00E94BA096091EB027091EC02809175
:1008D000ED0241E00E94B30360E971E080E090E046
:1008E0000E94BA092196C431D105F1F689E00E942F
:1008F0004F038AE00E944F038BE00E944F03DF9179
:10090000CF910895CF93DF9389E00E944F038AE04F
:100910000E944F038BE00E944F03C0E0D0E0609143
:10092000DC027091DD028091DE0241E00E94B3039F
:1009300062E370E080E090E00E94BA096091E50215
:100940007091E6028091E70241E00E94B30362E306
:1009500070E080E090E00E94BA096091DF0270913F
:10096000E0028091E10241E00E94B30362E370E0A3
:1009700080E090E00E94BA096091E2027091E30287
:100980008091E40241E00E94B30362E370E080E002
:1009900090E00E94BA092196C430D10509F0BFCF7A
:1009A000C0E0D0E06091E8027091E9028091EA0233
:1009B00041E00E94B30364E670E080E090E00E94B2
:1009C000BA096091EB027091EC028091ED0241E076
:1009D0000E94B30364E670E080E090E00E94BA09F0
:1009E0002196C430D105F1F689E00E944F038AE0D8
:1009F0000E944F038BE00E944F03DF91CF91089537
:100A000089E00E944F038AE00E944F038BE00E941E
:100A10004F03809121038F5F66E00E94D61190936F
:100A20002103992369F48091FA01882349F06091A8
:100A3000DC027091DD028091DE0241E00E94B3038E
:100A400080912103813069F480910702882349F065
:100A50006091DF027091E0028091E10241E00E942A
:100A6000B30380912103823069F4809114028823BA
:100A700049F06091E2027091E3028091E40241E06A
:100A80000E94B30380912103833069F48091210295
:100A9000882349F06091E5027091E6028091E702B7
:100AA00041E00E94B30380912103843069F4809176
:100AB0002E02882349F06091E8027091E90280914A
:100AC000EA0241E00E94B30380912103853069F47A
:100AD00080913B02882349F06091EB027091EC0217
:100AE0008091ED0241E00E94B3030895BF92CF923E
:100AF000DF92EF92FF920F931F93CF93DF937C01CE
:100B00008B01B62E862F0E944F03CE2C8E2D0E9475
:100B10004F03802F60E00E947D0A802F60E00E94DA
:100B20001A0B62E070E080E090E00E94BA09802F2A
:100B30000E944D0B20E0019709F421E0DD24D394BD
:100B4000D2228C2D0E945A0362E070E080E090E097
:100B50000E94BA09C2EAD1E0888199818E159F0569
:100B600051F08017910739F00E944D0B20E001975A
:100B700009F421E0D222229681E0C63CD80761F731
:100B80008B2D0E944D0B20E0892B09F421E0D2220D
:100B90008B2D0E944F038C2D0E944F0362E070E06A
:100BA00080E090E00E94BA098D2DDF91CF911F91D6
:100BB0000F91FF90EF90DF90CF90BF9008950F932B
:100BC0001F93CF93DF93C2EAD1E001E028813981FE
:100BD000C90106970397D8F02C303105C1F02D30AC
:100BE0003105A9F02F30310591F0F901EE0FFF1F0B
:100BF000EA5DFC4F60817181C9010E947605182F62
:100C000069E170E080E090E00E94BA090123229639
:100C100081E0C63CD807D1F6802FDF91CF911F919C
:100C20000F910895AF92BF92CF92DF92FF920F93F0
:100C30001F93CF93DF9302EF11E0C0E0D0E08DE08F
:100C4000A82EB12CB1E0CB2ED12C8091F402CA9DFC
:100C5000F001CB9DF00DDA9DF00D1124EE50FE4F0A
:100C6000E80FF11DF3808F2D90E00090F50202C097
:100C7000959587950A94E2F78170F80186838081C3
:100C80000E944D0B9091F502882351F4960102C009
:100C9000220F331F9A95E2F7C9019F2D982B09C0A7
:100CA000F60102C0EE0FFF1F9A95E2F79E2F909576
:100CB0009F218091F402CA9DF001CB9DF00DDA9D39
:100CC000F00D1124EE50FE4FE80FF11D9383219695
:100CD000035F1F4FC231D10509F0B7CFDF91CF912C
:100CE0001F910F91FF90DF90CF90BF90AF9008952C
:100CF0000F931F93CF93DF931092F1011092F001A5
:100D000008EB1BE00E9412060E94EE018091F502A2
:100D10008F5F8093F502883059F41092F50280912C
:100D2000F4028F5F8093F402833011F41092F40286
:100D30000E9415020E9400050E942003C091F0014C
:100D4000D091F101C330D10509F450C0C430D105B0
:100D50004CF4C130D10531F1C230D105ACF520974A
:100D600079F07DC0C530D10509F464C0C530D10526
:100D70000CF44EC0C630D10509F071C081E085C0C9
:100D80006091DC027091DD028091DE0241E00E9400
:100D9000B3036091F0017091F10180E090E00E9456
:100DA000BC0259C06091DF027091E0028091E102C3
:100DB00041E00E94B3036091F0017091F10181E084
:100DC00090E00E94BC0247C06091E2027091E30291
:100DD0008091E40241E00E94B3036091F0017091C0
:100DE000F10182E090E00E94BC0235C06091E50212
:100DF0007091E6028091E70241E00E94B3036091A6
:100E0000F0017091F10183E090E00E94BC0223C0E8
:100E10006091E8027091E9028091EA0241E00E944B
:100E2000B3036091F0017091F10184E090E00E94C1
:100E3000BC0211C06091EB027091EC028091ED0256
:100E400041E00E94B3036091F0017091F10185E0EF
:100E500090E00E94BC029093F1018093F001015058
:100E600010408091F0019091F1018C179D0711F0D5
:100E70000C501E4F61E070E080E090E00E94BA09E3
:100E8000101611060CF43ECF80E0DF91CF911F9138
:100E90000F9108950E94510264EF71E080E090E0AC
:100EA0000E94BA090E94DF05882329F10E94F502F9
:100EB0000E947806882381F086E593E060E071E087
:100EC00041E00E94400981E693E060E271E00E9407
:100ED0006A0D0E94D903089586E593E060E071E011
:100EE00040E00E94400981E693E06AE471E00E94DC
:100EF0006A0D0E94500408950E94940920912403D1
:100F000030912503621B730B7093230360932203BC
:100F100082E0683E780734F488EE92E0861B970BF7
:100F20000E94130A0E94940970932503609324037E
:100F30000895FF920F931F93CF93DF938091F60252
:100F40009091F702019663E270E00E94E2119093A3
:100F5000F7028093F602009709F0ADC0EDEFF2E0E2
:100F6000C3EFD1E040E010E0FF2400E08985882352
:100F700009F465C08F81882309F461C02881398113
:100F80005FEF2F3F3507A1F4808191815FEF8B36B2
:100F9000950714F401E03CC055E08C3D95070CF03A
:100FA00083C066E970E00E94E211062F0F5F47C020
:100FB0008FEF2E3F3807A9F4808191812FEF8B3678
:100FC00092071CF4FF24F3943AC055E08C3D95073A
:100FD0000CF06CC066E970E00E94E211F62EF3940A
:100FE0002EC08FEF2D3F380799F4808191812FEF2C
:100FF0008B3692070CF45DC055E08C3D95070CF0E4
:1010000051C066E970E00E94E211162F1F5F17C001
:101010002C5F3F4FA1F4808191812FEF8B36920797
:1010200014F441E00CC055E08C3D950714F04AE003
:1010300006C066E970E00E94E211462F4F5F3296CB
:101040002D9683E0E132F80709F090CF112329F0C3
:10105000442339F4612F619505C0442311F0642FB6
:1010600001C060E0FF2021F0002339F44F2D06C0BD
:10107000002319F0402F419501C040E0662311F490
:101080004423C9F070E0660F771F660F771F50E0AA
:10109000440F551F440F551F80E693E020E00E9447
:1010A000AE0C09C01AE0CBCF0AE0B2CF9AE0F92E1D
:1010B000C6CF11E0C4CFDF91CF911F910F91FF9068
:1010C0000895CF93DF938091FC028823A9F1C3EFA9
:1010D000D1E08A85882359F18F81882399F088810E
:1010E0009981019729F480E693E061E00E94DD0C8C
:1010F000888199810297D9F480E693E062E00E94AA
:10110000DD0C15C08885882391F08881998101972D
:1011100029F480E693E061E00E94D50C88819981F2
:10112000029729F480E693E062E00E94D50C2D96A8
:1011300082E0CD3DD80769F6DF91CF910895FF9207
:101140000F931F93CF93DF931092FC020DEF12E0E9
:10115000C3EFD1E0FF24F3948F8188872E81882309
:1011600021F130E08091FA029091FB0228173907B3
:1011700094F4F092FC021F828B85882329F081E68B
:1011800093E068810E94FA0B8985882309F1F801B0
:10119000118210821DC089858823D1F0F8018081D9
:1011A000918101969183808313C030E08091F80291
:1011B0009091F902821793075CF4F092FC02FF828F
:1011C0008B85882329F081E693E068810E943D0C9D
:1011D0000E5F1F4F2D96F3E001321F0709F0BCCFC1
:1011E000DF91CF911F910F91FF9008950E941206F9
:1011F0000E94EE018091F5028F5F8093F5028830A6
:1012000059F41092F5028091F4028F5F8093F402FA
:10121000833011F41092F4020E949F080E9461082A
:101220000E9499070E9400050E9420030E947C07EB
:101230000895CF93DF93C2EAD1E0888160E00E94F5
:101240007D0A888160E00E941A0B229681E0C63CEC
:10125000D80799F781E693E00E949A0B80E693E025
:101260000E94990BDF91CF9108950E9465030E941F
:1012700019090E9498010E944A070E948204089559
:10128000F999FECF1FBA72BD61BD40BD0FB6F8948B
:10129000FA9AF99A0FBE08951F920F920FB60F9205
:1012A00011242F933F938F939F93AF93BF9380917C
:1012B0005B0390915C03A0915D03B0915E0330915C
:1012C0005F030196A11DB11D232F2D5F2D3720F047
:1012D0002D570196A11DB11D20935F0380935B03E1
:1012E00090935C03A0935D03B0935E0380915703DA
:1012F00090915803A0915903B0915A030196A11DF2
:10130000B11D8093570390935803A0935903B09352
:101310005A03BF91AF919F918F913F912F910F9061
:101320000FBE0F901F9018959FB7F8942091570308
:10133000309158034091590350915A0386B5A89BA8
:1013400006C08F3F21F02F5F3F4F4F4F5F4F9FBF32
:10135000542F432F322F2227280F311D411D511D9D
:1013600082E0220F331F441F551F8A95D1F7B90120
:10137000CA0108959B01AC017FB7F894809157038F
:1013800090915803A0915903B0915A0366B5A89B58
:1013900005C06F3F19F00196A11DB11D7FBFBA2F87
:1013A000A92F982F8827860F911DA11DB11D62E0DE
:1013B000880F991FAA1FBB1F6A95D1F7BC012DC0CA
:1013C000FFB7F8948091570390915803A091590367
:1013D000B0915A03E6B5A89B05C0EF3F19F00196FE
:1013E000A11DB11DFFBFBA2FA92F982F88278E0FDF
:1013F000911DA11DB11DE2E0880F991FAA1FBB1FFF
:10140000EA95D1F7861B970B885E9340C8F221506E
:1014100030404040504068517C4F21153105410516
:10142000510571F60895019739F0880F991F880FBB
:10143000991F02970197F1F70895789484B5826017
:1014400084BD84B5816084BD85B5826085BD85B568
:10145000816085BDEEE6F0E0808181608083E1E817
:10146000F0E010828081826080838081816080834F
:10147000E0E8F0E0808181608083E1EBF0E0808152
:1014800084608083E0EBF0E0808181608083E1E92B
:10149000F0E0808182608083808181608083E0E9E8
:1014A000F0E0808181608083E1ECF0E08081846005
:1014B0008083808182608083808181608083E3EC8F
:1014C000F0E0808181608083E0ECF0E080818260E8
:1014D0008083E2ECF0E0808181608083EAE7F0E0E5
:1014E000808184608083808182608083808181604C
:1014F00080838081806880830895CF93DF93482F15
:1015000050E0CA018C509F4FFC0134914A525F4F0A
:10151000FA018491882369F190E0880F991FFC01FA
:10152000E455FF4FA591B491FC01E654FF4FC591DE
:10153000D491662351F42FB7F8948C91932F909502
:1015400089238C93888189230BC0623061F42FB783
:10155000F8948C91932F909589238C938881832B79
:1015600088832FBF06C09FB7F8948C91832B8C93F0
:101570009FBFDF91CF9108958730C1F1883080F40B
:101580008330F9F0843030F4813029F1823009F071
:1015900050C024C08430C9F0863009F04AC022C04F
:1015A0008A3091F18B3030F4883031F1893009F094
:1015B00040C026C08C3091F18C3060F18E30C9F57E
:1015C00033C0809180008F7703C0809180008F7D31
:1015D00080938000089584B58F7702C084B58F7D95
:1015E00084BD08958091B0008F7703C08091B000D2
:1015F0008F7D8093B0000895809190008F7707C011
:10160000809190008F7D03C080919000877F8093B0
:10161000900008958091C0008F7703C08091C00032
:101620008F7D8093C00008958091C200877F809352
:10163000C2000895FF920F931F93F62E482F50E09B
:10164000CA018E5E9E4FFC012491CA018C509F4FAF
:10165000FC0114914A525F4FFA0104910023C9F032
:10166000222319F0822F0E94BC0AE02FF0E0EE0F37
:10167000FF1FE654FF4FA591B4919FB7F894FF2048
:1016800021F48C911095812302C08C91812B8C9335
:101690009FBF1F910F91FF9008950F931F93482FA5
:1016A00050E0CA018E5E9E4FFC012491CA018C500D
:1016B0009F4FFC0104914A525F4FFA01149111238C
:1016C00019F420E030E015C0222319F0822F0E9487
:1016D000BC0A812F90E0880F991F88539F4FFC010F
:1016E000A591B4918C9120E030E0802311F021E0AD
:1016F00030E0C9011F910F910895FC019181808113
:10170000813A31F4913089F080E0933089F40DC052
:10171000813269F49B3021F482818093C60105C037
:101720009A3029F482818093C70181E0089580E096
:10173000089508950895EF92FF920F931F938C01DF
:10174000E62EDC01ED91FC910480F581E02D0995F8
:10175000F82ED801ED91FC910680F781E02DC801AB
:101760006E2D09958F2D90E01F910F91FF90EF90B6
:10177000089510926003109264031092630384ED45
:1017800091E090936203809361030895EF92FF923A
:101790000F931F93DF93CF930F92CDB7DEB789835B
:1017A0008B017A0184E0BE016F5F7F4F41E050E022
:1017B0000E944F0E84E4B801A7010E944F0E0F90C3
:1017C000CF91DF911F910F91FF90EF90089582E0EC
:1017D00048E050E00E94C60B0895FC011682178273
:1017E000108611861286138614823496BF010E94D9
:1017F000E70B0895DC01683810F0685829C0E62F1F
:10180000F0E067FF13C0E058F04081E090E002C0D4
:10181000880F991FEA95E2F7809514962C911497FA
:10182000282314962C93149760E012C0E455FE4FC1
:101830006491662319F420E030E01DC067FF08C002
:1018400014968C9114978D7F14968C9314976F77C0
:10185000FD0190E0662321F08681861709F4168247
:101860009F5F31969630B1F7CD011496BD010E946D
:10187000E70B21E030E0C9010895CF93DF93DC014D
:10188000683810F0685825C0E62FF0E067FF12C0F6
:10189000E058F04081E090E002C0880F991FEA957F
:1018A000E2F714962C911497282B14962C931497E6
:1018B00060E00FC0E455FE4F64916623D9F167FFE5
:1018C00008C014968C911497826014968C93149788
:1018D0006F7716968C9116978617A9F117968C91AB
:1018E0001797861781F118968C911897861759F1DA
:1018F00019968C911997861731F11A968C911A972F
:10190000861709F11B968C911B978617E1F0ED0164
:10191000E0E0F0E09E2F8E81882321F4EA0FFB1F88
:10192000668306C09F5F31962196E630F10591F7F8
:10193000963049F481E090E013969C938E93129731
:1019400020E030E007C0CD011496BD010E94E70BF6
:1019500021E030E0C901DF91CF910895DF93CF936B
:1019600000D000D0CDB7DEB7FC01808189836A83C7
:101970004B832C8381E0BE016F5F7F4F44E050E0DA
:101980000E94C60B0F900F900F900F90CF91DF9198
:101990000895FC018081681739F06083CF0160E011
:1019A00040E020E00E94AE0C0895FC01609520818B
:1019B0002623622F0E94C90C0895FC01862F6081A6
:1019C000682BCF010E94C90C089580E86EE271E097
:1019D00045E650E00E94CA0D0895FC0180818F5FAA
:1019E000808380E863E971E049E150E00E94CA0D1C
:1019F0000895CF93DF930E941D0A85E793E00E942C
:101A0000310E0E943509C0E0D0E00E94F608209710
:101A1000E1F30E940000F9CFCF92DF92EF92FF92A4
:101A20000F931F93CF93DF937C016B018A01C0E07A
:101A3000D0E00FC0D6016D916D01D701ED91FC9101
:101A40000190F081E02DC7010995C80FD91F015001
:101A500010400115110571F7CE01DF91CF911F9153
:101A60000F91FF90EF90DF90CF900895EF92FF924B
:101A70000F931F938C01DC01ED91FC910190F0819B
:101A8000E02D6DE009957C01D801ED91FC9101906C
:101A9000F081E02DC8016AE009959C012E0D3F1DE3
:101AA000C9011F910F91FF90EF900895CF93DF939D
:101AB000DB010D900020E9F71197A61BB70BEC0195
:101AC000E881F9810280F381E02DAD010995DF9174
:101AD000CF910895EF92FF920F931F937C010E9484
:101AE000560D8C01C7010E94360D080F191FC80141
:101AF0001F910F91FF90EF900895282F80916F0311
:101B00008823C1F057FF1AC015C0289890936E0320
:101B10008091F1008193E217F307B9F74115510560
:101B200039F08091F200882319F48BE68093E80065
:101B3000AFBF02C04FEF5FEFCA010895AFB7F8948F
:101B400027702093E9008091F200282F30E02417BD
:101B500035070CF4A901FB019B01240F311D94E60C
:101B6000DACFDF93CF930F92CDB7DEB7BE016F5FB1
:101B70007F4F41E050E00E947D0D019719F02FEF5B
:101B80003FEF03C08981282F30E0C9010F90CF912A
:101B9000DF910895FF920F931F93F82E142F052FB6
:101BA0004091720350917303212F302FC901DC0142
:101BB000FB016EEF29C0F7FE02C0949101C0908135
:101BC000209170033091710324173507ACF4809194
:101BD000E8008570E1F38091E80082FF03C02FEFF9
:101BE0003FEF17C09093F100C90101968F73907079
:101BF000892B11F46093E8002F5F3F4F30937103FE
:101C000020937003119731961097A9F6812F902F8A
:101C10009C01C9011F910F91FF9008959C01809133
:101C2000E80082FFFCCFF901260F311D03C080912F
:101C3000F1008193E217F307D1F7289884E68093A7
:101C40006E038BEF8093E800CB0108958093E90049
:101C50008091F200882319F08AE38093E8000895C8
:101C6000089510926F0381E08093D70080EA8093FB
:101C7000D80082E189BD09B400FEFDCF61E070E0CB
:101C800080E090E00E94BA0980E98093D8008CE05F
:101C90008093E2001092E000559A209A08955F9296
:101CA0006F927F928F929F92AF92BF92CF92DF926C
:101CB000EF92FF920F931F93CF93DF93E82E842E22
:101CC000752E80916F03882371F18B01242F352F9E
:101CD000C901EC017AEFF72E67E0962E9E2050E4C2
:101CE000552E8E2D90E040E2A42EB12CA822B922D0
:101CF0003AE3632E20E4C22ED12CC822D92258C048
:101D00009FB7F8949092E9008091E80085FD02C0A9
:101D100020E004C08091F200252D281B9FBF2223C4
:101D200061F4FA9419F42FEF3FEF4DC061E070E0D9
:101D300080E090E00E94BA093BC0822F90E0C81773
:101D4000D9070CF42C2FC21BD1094FB7F8949092ED
:101D5000E900A114B10421F406C01092F100215051
:101D60002223D9F719C0E7FC03C0F801922F10C055
:101D7000C801322F06C0FC010196E491E093F10006
:101D800031503323C1F706C081918093F100915007
:101D90009923D1F7020F111D8091E80085FF05C03E
:101DA000209729F4C114D10411F06092E8004FBFCC
:101DB000209709F0A5CF5D9884E680936D03282DC8
:101DC000372DC9019C01C901DF91CF911F910F915E
:101DD000FF90EF90DF90CF90BF90AF909F908F904B
:101DE0007F906F905F9008951F920F920FB60F92A1
:101DF00011241F932F933F934F935F936F937F9380
:101E00008F939F93AF93BF93EF93FF938091E100E4
:101E10001092E100982F83FF0FC01092E90081E03B
:101E20008093EB001092EC0082E38093ED0010921F
:101E30006F0388E08093F00092FF36C083E08093C8
:101E4000E9008091F200882349F08AE38093E8005A
:101E500005C08AEB93E00E94551101C012E09FB7C4
:101E6000F8941093E9008091F2009FBF882389F7CE
:101E700080916D03882351F080916D038150809390
:101E80006D0380916D03882309F45D9A80916E0340
:101E9000882351F080916E03815080936E0380916E
:101EA0006E03882309F4289AFF91EF91BF91AF91B7
:101EB0009F918F917F916F915F914F913F912F9162
:101EC0001F910F900FBE0F901F9018950F931F93A7
:101ED000DF93CF930F92CDB7DEB719828E010F5FDC
:101EE0001F4FC8010E947411C8010E94ED0C898126
:101EF00090E00F90CF91DF911F910F9108951F9265
:101F00000F920FB60F921124EF92FF921F932F930F
:101F10003F934F935F936F937F938F939F93AF9371
:101F2000BF93EF93FF93DF93CF93CDB7DEB7619766
:101F3000DEBFCDBF1092E9008091E80083FF0FC1A2
:101F4000FE0131969E01275F3F4F03C08091F10053
:101F50008193E217F307D1F7289884E680936E0304
:101F600082EF8093E800998197FF05C08091E80097
:101F700080FFFCCF03C08EEF8093E800292F30E074
:101F8000C90180769070892B09F0C2C08A818823AC
:101F900029F41092F1001092F100D6C0813009F4BA
:101FA000D3C0833009F4D0C0853049F48091E80073
:101FB00080FFFCCF8B8180688093E300C5C08630B2
:101FC00009F07CC01C81EF80F8841230C1F51092BA
:101FD000E900109271031092700310927303109233
:101FE00072030E94660F99E0FE013996DF01292FE6
:101FF0001D922A95E9F799871A8791E09E8790E8C4
:10200000988B9AEF998B2091700330917103275F21
:102010003F4F3C872B878D871092E9001092710308
:1020200010927003F0927303E092720380E0BF019C
:1020300049E050E00E94CA0D0E94660F85C01092D0
:10204000E9001092710310927003F0927303E09212
:102050007203123241F482E290E00E94E50C892B77
:1020600009F476C071C0113079F488E0E816F10403
:1020700019F481E08093740380917403882309F03C
:102080006BC0EAE6F2E013C0133009F061C08B8147
:10209000882319F4ECE2F2E00AC0823019F4E0E39C
:1020A000F2E005C0813009F053C0E2E5F2E044916E
:1020B00080E8BF0150E00E94CA0D46C0873009F495
:1020C00047C0883021F481E08093F1003DC0893021
:1020D000D9F523703070232BD9F5EFE8F2E091E0C9
:1020E00031E026E39093E9003093EB0084918093F4
:1020F000EC002093ED009F5F3196953099F78EE7C5
:102100008093EA001092EA008B8180936F031CC0D9
:102110008F8198851092E9001092710310927003DC
:1021200090937303809372038D81882329F4CE01E9
:1021300001960E94801106C0823051F4CE010196B2
:102140000E947D0B882321F08EEF8093E80007C06A
:1021500081E28093EB0003C0ECE7F2E0A8CF619648
:10216000DEBFCDBFCF91DF91FF91EF91BF91AF91D6
:102170009F918F917F916F915F914F913F912F919F
:102180001F91FF90EF900F900FBE0F901F9018952A
:102190002091B6033091B7038091B8039091B903B1
:1021A000281B390B2F733070C90108952091B60395
:1021B0003091B7038091B8039091B903281739077C
:1021C00019F42FEF3FEF09C0E091B803F091B90384
:1021D000EA58FC4F8081282F30E0C90108952091F2
:1021E000B6033091B7038091B8039091B9032817D3
:1021F000390719F42FEF3FEF13C0E091B803F091C6
:10220000B903EA58FC4F20818091B8039091B9033B
:1022100001968F7390709093B9038093B80330E068
:10222000C90108951092BD031092BC0388EE93E09B
:10223000A0E0B0E08093BE039093BF03A093C003DF
:10224000B093C10382EE91E09093BB038093BA03F5
:1022500008950F931F93DF93CF930F92CDB7DEB7FF
:102260008C0169838091CF01882369F083E0BE01EE
:102270006F5F7F4F41E050E00E944F0E1816190625
:1022800014F49C0107C081E090E0F80193838283FD
:1022900020E030E0C9010F90CF91DF911F910F91A5
:1022A000089583E00E94260E089582E00E94B10DF9
:1022B000482F2091B6033091B7032F5F3F4F2F7304
:1022C00030708091B8039091B9032817390759F0FD
:1022D000E091B603F091B703EA58FC4F4083309386
:1022E000B7032093B6030895FC0180818E5F80833D
:1022F00080E863E972E042E450E00E94CA0D08956C
:10230000FC0181819081913A59F4813209F04CC0ED
:1023100080E068EC71E047E050E00E94CA0D42C0E6
:10232000913209F041C0803239F488EC91E067E0E5
:1023300070E00E940E0E36C0823209F035C08281F4
:102340008093CF018091C8019091C901A091CA01E9
:10235000B091CB01805B9440A040B04019F58091D2
:10236000CF0180FD12C087E797E790930108809323
:1023700000082BE088E190E00FB6F894A8958093D0
:1023800060000FBE209360000DC088E10FB6F89486
:1023900080936000109260000FBEA8951092010813
:1023A0001092000881E0089580E00895991B79E07B
:1023B00004C0991F961708F0961B881F7A95C9F7D5
:1023C0008095089597FB092E07260AD077FD04D043
:1023D0000CD006D000201AF4709561957F4F0895B7
:1023E000F6F7909581959F4F0895AA1BBB1B51E16D
:1023F00007C0AA1FBB1FA617B70710F0A61BB70B75
:10240000881F991F5A95A9F780959095BC01CD0119
:102410000895EE0FFF1F0590F491E02D0994F894B4
:02242000FFCFEC
:1024220074657374696E6720696E7075742000201C
:102432003D3D3E20002E2E2E204641494C45440073
:102442004D614B6579204D614B65792073656C66F2
:102452002D7465737420726573756C743A205041E3
:1024620053534544203A2D290A005741524E494EB2
:10247200473A204D614B6579204D614B6579207358
:10248200656C662D7465737420726573756C743A2D
:10249200204641494C454421212121210A00DA00EC
:1024A200D900D800D7002000010077006100730036
:1024B200640066006700FFFFFEFFFDFFFCFF0100F6
:1024C20002000C0008000D000F00070006000500C6
:1024D20004000300020001000000170016001500AE
:1024E200140013001200010100E1000000000000CE
:1024F200000000009B0B0C0D3D0CFA0BED0B0000D5
:10250200000029110C0DC810EF10D61051115511F1
:00000001FF

